{
  "contractName": "Activity",
  "abi": [
    {
      "inputs": [],
      "stateMutability": "nonpayable",
      "type": "constructor"
    },
    {
      "anonymous": false,
      "inputs": [
        {
          "indexed": true,
          "internalType": "address",
          "name": "previousOwner",
          "type": "address"
        },
        {
          "indexed": true,
          "internalType": "address",
          "name": "newOwner",
          "type": "address"
        }
      ],
      "name": "OwnershipTransferStarted",
      "type": "event"
    },
    {
      "anonymous": false,
      "inputs": [
        {
          "indexed": true,
          "internalType": "address",
          "name": "previousOwner",
          "type": "address"
        },
        {
          "indexed": true,
          "internalType": "address",
          "name": "newOwner",
          "type": "address"
        }
      ],
      "name": "OwnershipTransferred",
      "type": "event"
    },
    {
      "inputs": [],
      "name": "acceptOwnership",
      "outputs": [],
      "stateMutability": "nonpayable",
      "type": "function"
    },
    {
      "inputs": [],
      "name": "owner",
      "outputs": [
        {
          "internalType": "address",
          "name": "",
          "type": "address"
        }
      ],
      "stateMutability": "view",
      "type": "function",
      "constant": true
    },
    {
      "inputs": [],
      "name": "pendingOwner",
      "outputs": [
        {
          "internalType": "address",
          "name": "",
          "type": "address"
        }
      ],
      "stateMutability": "view",
      "type": "function",
      "constant": true
    },
    {
      "inputs": [],
      "name": "renounceOwnership",
      "outputs": [],
      "stateMutability": "nonpayable",
      "type": "function"
    },
    {
      "inputs": [
        {
          "internalType": "address",
          "name": "newOwner",
          "type": "address"
        }
      ],
      "name": "transferOwnership",
      "outputs": [],
      "stateMutability": "nonpayable",
      "type": "function"
    },
    {
      "inputs": [
        {
          "internalType": "address",
          "name": "lender",
          "type": "address"
        },
        {
          "internalType": "address",
          "name": "borrower",
          "type": "address"
        },
        {
          "internalType": "uint256",
          "name": "amountBorrowedInUSD",
          "type": "uint256"
        }
      ],
      "name": "borrowLoan",
      "outputs": [],
      "stateMutability": "nonpayable",
      "type": "function"
    },
    {
      "inputs": [
        {
          "internalType": "address",
          "name": "lender",
          "type": "address"
        },
        {
          "internalType": "address",
          "name": "borrower",
          "type": "address"
        },
        {
          "internalType": "uint256",
          "name": "interestPaidInUSD",
          "type": "uint256"
        },
        {
          "internalType": "bool",
          "name": "completed",
          "type": "bool"
        }
      ],
      "name": "repayLoan",
      "outputs": [],
      "stateMutability": "nonpayable",
      "type": "function"
    },
    {
      "inputs": [
        {
          "internalType": "address",
          "name": "user",
          "type": "address"
        }
      ],
      "name": "activeLoansCount",
      "outputs": [
        {
          "internalType": "uint16",
          "name": "",
          "type": "uint16"
        }
      ],
      "stateMutability": "view",
      "type": "function",
      "constant": true
    },
    {
      "inputs": [
        {
          "internalType": "address",
          "name": "borrower",
          "type": "address"
        },
        {
          "internalType": "uint256",
          "name": "amountInUSD",
          "type": "uint256"
        }
      ],
      "name": "dropCollateral",
      "outputs": [],
      "stateMutability": "nonpayable",
      "type": "function"
    },
    {
      "inputs": [
        {
          "internalType": "address",
          "name": "user",
          "type": "address"
        }
      ],
      "name": "isDefaulter",
      "outputs": [
        {
          "internalType": "bool",
          "name": "",
          "type": "bool"
        }
      ],
      "stateMutability": "view",
      "type": "function",
      "constant": true
    },
    {
      "inputs": [
        {
          "internalType": "address",
          "name": "user",
          "type": "address"
        }
      ],
      "name": "getActivity",
      "outputs": [
        {
          "components": [
            {
              "internalType": "uint16",
              "name": "borrowedTimes",
              "type": "uint16"
            },
            {
              "internalType": "uint16",
              "name": "lentTimes",
              "type": "uint16"
            },
            {
              "internalType": "uint256",
              "name": "borrowedVolume",
              "type": "uint256"
            },
            {
              "internalType": "uint256",
              "name": "lentVolume",
              "type": "uint256"
            },
            {
              "internalType": "uint256",
              "name": "lastActive",
              "type": "uint256"
            },
            {
              "internalType": "uint256",
              "name": "collateralVolume",
              "type": "uint256"
            },
            {
              "internalType": "uint256",
              "name": "interestPaidVolume",
              "type": "uint256"
            },
            {
              "internalType": "uint16",
              "name": "defaultedTimes",
              "type": "uint16"
            },
            {
              "internalType": "uint256",
              "name": "defaultedVolume",
              "type": "uint256"
            },
            {
              "internalType": "uint256",
              "name": "firstBorrowAt",
              "type": "uint256"
            },
            {
              "internalType": "uint16",
              "name": "activeLoans",
              "type": "uint16"
            }
          ],
          "internalType": "struct ActivityLibrary.Model",
          "name": "",
          "type": "tuple"
        }
      ],
      "stateMutability": "view",
      "type": "function",
      "constant": true
    },
    {
      "inputs": [
        {
          "internalType": "address",
          "name": "address_",
          "type": "address"
        }
      ],
      "name": "setLendingPool",
      "outputs": [],
      "stateMutability": "nonpayable",
      "type": "function"
    }
  ],
  "bytecode": "0x6080806040523461006357600180546001600160a01b03199081169091556000805433928116831782556001600160a01b0316907f8be0079c531659141344cd1fd0a4f28419497f9722a3daafe3b4186f6b6457e09080a361095090816100698239f35b600080fdfe604060808152600436101561001357600080fd5b600090813560e01c908163113aa8b11461068a578163519badd61461057357816363a6c9811461051757816366d13fb61461041e578163715018a6146103af57816379ba5097146102cd578163875bc3d1146101ee5781638da5cb5b146101c85781639445ae041461018a578163d8689e131461014a578163e30c39781461011e575063f2fde38b146100a557600080fd5b3461011b57602036600319011261011b576100be6106d6565b6100c6610707565b6001600160a01b03809116908173ffffffffffffffffffffffffffffffffffffffff1960015416176001558254167f38d16b8cac22d99fc7c124b9cd0de2d3fa1faef420bfe791d8c362d765e227008380a380f35b80fd5b9050346101465781600319360112610146576020906001600160a01b03600154169051908152f35b5080fd5b9050346101465760203660031901126101465761ffff6006826020946001600160a01b036101766106d6565b168152600386522001541615159051908152f35b9050346101465760203660031901126101465761ffff6009826020946001600160a01b036101b66106d6565b16815260038652200154169051908152f35b9050346101465781600319360112610146576001600160a01b0360209254169051908152f35b905034610146576080366003190112610146576102096106d6565b906102126106f1565b9060643580151581036102c9576001600160a01b03806002541633036102c55784610278826102789561027d9461028299168a526003602052808a209188168a52892094600586016102676044358254610788565b9055426003870155610285576107cc565b610861565b6107cc565b80f35b6009810180549061ffff908161029c81851661084d565b1661ffff1980941617905560098701918254916102ba81841661084d565b1691161790556107cc565b8580fd5b8480fd5b905034610146578160031936011261014657600154906001600160a01b03903382841603610346575073ffffffffffffffffffffffffffffffffffffffff19809216600155825491339083161783553391167f8be0079c531659141344cd1fd0a4f28419497f9722a3daafe3b4186f6b6457e08380a380f35b6084905162461bcd60e51b815260206004820152602960248201527f4f776e61626c6532537465703a2063616c6c6572206973206e6f74207468652060448201527f6e6577206f776e657200000000000000000000000000000000000000000000006064820152fd5b823461011b578060031936011261011b576103c8610707565b806001600160a01b0373ffffffffffffffffffffffffffffffffffffffff19806001541660015582549081168355167f8be0079c531659141344cd1fd0a4f28419497f9722a3daafe3b4186f6b6457e08280a380f35b905034610146576020366003190112610146576101609161043d6106d6565b91610446610795565b82815282602082015282828201528260608201528260808201528260a08201528260c08201528260e08201526101009383858301526104a883856001600160a01b036101209482868801526101409889809801521681526003602052206107cc565b9083519561ffff948584511688528560208501511660208901528084015190880152606083015160608801526080830151608088015260a083015160a088015260c083015160c08801528460e08401511660e08801528083015190870152808201519086015201511690820152f35b9050346101465780600319360112610146576105316106d6565b6001600160a01b038060025416330361056f5761028292610278918316855260036020528420600481016105686024358254610788565b90556107cc565b8380fd5b9050346101465760603660031901126101465761058e6106d6565b906105976106f1565b906044356001600160a01b03806002541633036102c55784610278826102789561027d9461028299168a526003602052808a209188168a52892094815461ffff9063ffff00006105eb838360101c1661075f565b60101b169063ffff0000191617835560028301610609838254610788565b905560098301918254928261061f81861661075f565b1661ffff198095161790554260038501558754838361063f81841661075f565b16911617885561065460018901918254610788565b9055600987019182549161066981841661075f565b16911617905560088501805415610681575b506107cc565b4290553861067b565b823461011b57602036600319011261011b576001600160a01b036106ac6106d6565b6106b4610707565b1673ffffffffffffffffffffffffffffffffffffffff19600254161760025580f35b600435906001600160a01b03821682036106ec57565b600080fd5b602435906001600160a01b03821682036106ec57565b6001600160a01b0360005416330361071b57565b606460405162461bcd60e51b815260206004820152602060248201527f4f776e61626c653a2063616c6c6572206973206e6f7420746865206f776e65726044820152fd5b90600161ffff8093160191821161077257565b634e487b7160e01b600052601160045260246000fd5b9190820180921161077257565b60405190610160820182811067ffffffffffffffff8211176107b657604052565b634e487b7160e01b600052604160045260246000fd5b906107d5610795565b91600981549161ffff8381809516875260101c166020860152600181015460408601526002810154606086015260038101546080860152600481015460a0860152600581015460c08601528260068201541660e086015260078101546101008601526008810154610120860152015416610140830152565b61ffff908116600019019190821161077257565b9061ffff808351169281602082015116604082015190606083015160808401519060a085015160c0860151908760e0880151169361010093848901519761012097888b01519b610140809c0151169c6040519e8f916001600160a01b0316825260208201526040015260608d015260808c015260a08b015260c08a015260e08901528701528501528301526101608201526101807f2dd01e2b69318edb9d1b3c3b89892c0035f669809d9fa20e7a489c2663e0519491a156fea2646970667358221220c97715c542556fee912825c7d52daec0bef74d7e13ea61a31552125fe544ca5664736f6c63430008110033",
  "immutableReferences": {},
  "source": "// SPDX-License-Identifier: MIT\npragma solidity ^0.8.17;\n\nimport \"./libraries/ActivityLibrary.sol\";\n\nimport \"./interfaces/IActivity.sol\";\n\nimport \"@openzeppelin/contracts/access/Ownable2Step.sol\";\n\n/// @title Activity contract\n/// @author Lima\n/// @notice Keeps record of every user's activity on the LendingPool contract\n/// @dev These records are use to calculate user's zapster score\n\ncontract Activity is Ownable2Step, IActivity {\n    address lendingPool;\n\n    constructor() Ownable2Step() {}\n\n    mapping(address => ActivityLibrary.Model) activities;\n\n    function borrowLoan(\n        address lender,\n        address borrower,\n        uint256 amountBorrowedInUSD\n    ) public override onlyLendingPool {\n        ActivityLibrary.Model storage lenderActivity = activities[lender];\n        ActivityLibrary.Model storage borrowerActivity = activities[borrower];\n\n        lenderActivity.lentTimes += 1;\n        lenderActivity.lentVolume += amountBorrowedInUSD;\n        lenderActivity.activeLoans += 1;\n\n        lenderActivity.lastActive = block.timestamp;\n\n        borrowerActivity.borrowedTimes += 1;\n        borrowerActivity.borrowedVolume += amountBorrowedInUSD;\n        borrowerActivity.activeLoans += 1;\n\n        if (borrowerActivity.firstBorrowAt == 0) {\n            borrowerActivity.firstBorrowAt = block.timestamp;\n        }\n\n        _emitActivity(lenderActivity, lender);\n        _emitActivity(borrowerActivity, borrower);\n    }\n\n    function repayLoan(\n        address lender,\n        address borrower,\n        uint256 interestPaidInUSD,\n        bool completed\n    ) external onlyLendingPool {\n        ActivityLibrary.Model storage lenderActivity = activities[lender];\n        ActivityLibrary.Model storage borrowerActivity = activities[borrower];\n\n        borrowerActivity.interestPaidVolume += interestPaidInUSD;\n        borrowerActivity.lastActive = block.timestamp;\n\n        if (completed) {\n            lenderActivity.activeLoans -= 1;\n            borrowerActivity.activeLoans -= 1;\n        }\n\n        _emitActivity(lenderActivity, lender);\n        _emitActivity(borrowerActivity, borrower);\n    }\n\n    function activeLoansCount(address user)\n        public\n        view\n        override\n        returns (uint16)\n    {\n        return activities[user].activeLoans;\n    }\n\n    function dropCollateral(address borrower, uint256 amountInUSD)\n        public\n        override\n        onlyLendingPool\n    {\n        ActivityLibrary.Model storage activity = activities[borrower];\n        activity.collateralVolume += amountInUSD;\n\n        _emitActivity(activity, borrower);\n    }\n\n    function isDefaulter(address user) public view override returns (bool) {\n        return activities[user].defaultedTimes > 0;\n    }\n\n    function getActivity(address user)\n        public\n        view\n        override\n        returns (ActivityLibrary.Model memory)\n    {\n        return activities[user];\n    }\n\n    function _emitActivity(ActivityLibrary.Model memory activity, address user)\n        private\n    {\n        emit ActivityLibrary.ActivityChanged(\n            user,\n            activity.borrowedTimes,\n            activity.lentTimes,\n            activity.borrowedVolume,\n            activity.lentVolume,\n            activity.lastActive,\n            activity.collateralVolume,\n            activity.interestPaidVolume,\n            activity.defaultedTimes,\n            activity.defaultedVolume,\n            activity.firstBorrowAt,\n            activity.activeLoans\n        );\n    }\n\n    function setLendingPool(address address_) public onlyOwner {\n        lendingPool = address_;\n    }\n\n    modifier onlyLendingPool() {\n        require(msg.sender == lendingPool);\n        _;\n    }\n}\n",
  "sourcePath": "/home/runner/smart-contracts/contracts/Activity.sol",
  "compiler": {
    "name": "solc",
    "version": "0.8.17+commit.8df45f5f.Emscripten.clang"
  },
  "schemaVersion": "3.4.13",
  "updatedAt": "2024-07-31T05:01:52.413Z",
  "networkType": "ethereum",
  "devdoc": {
    "author": "Lima",
    "details": "These records are use to calculate user's zapster score",
    "kind": "dev",
    "methods": {
      "acceptOwnership()": {
        "details": "The new owner accepts the ownership transfer."
      },
      "owner()": {
        "details": "Returns the address of the current owner."
      },
      "pendingOwner()": {
        "details": "Returns the address of the pending owner."
      },
      "renounceOwnership()": {
        "details": "Leaves the contract without owner. It will not be possible to call `onlyOwner` functions anymore. Can only be called by the current owner. NOTE: Renouncing ownership will leave the contract without an owner, thereby removing any functionality that is only available to the owner."
      },
      "transferOwnership(address)": {
        "details": "Starts the ownership transfer of the contract to a new account. Replaces the pending transfer if there is one. Can only be called by the current owner."
      }
    },
    "title": "Activity contract",
    "version": 1
  },
  "userdoc": {
    "kind": "user",
    "methods": {},
    "notice": "Keeps record of every user's activity on the LendingPool contract",
    "version": 1
  }
}