{
  "contractName": "Errors",
  "abi": [
    {
      "inputs": [],
      "name": "PRICE_FEED_TOKEN_BELOW_ZERO",
      "outputs": [
        {
          "internalType": "string",
          "name": "",
          "type": "string"
        }
      ],
      "stateMutability": "view",
      "type": "function"
    },
    {
      "inputs": [],
      "name": "PRICE_FEED_TOKEN_NOT_SUPPORTED",
      "outputs": [
        {
          "internalType": "string",
          "name": "",
          "type": "string"
        }
      ],
      "stateMutability": "view",
      "type": "function"
    }
  ],
  "bytecode": "0x6080806040523461001a5761019d9081610020823930815050f35b600080fdfe6080604052600436101561001257600080fd5b6000803560e01c80634933f511146100825763d517828f1461003357600080fd5b8060031936011261007f5761007b6100496100cb565b7f313031000000000000000000000000000000000000000000000000000000000060208201526040519182918261011e565b0390f35b80fd5b508060031936011261007f5761007b6100996100cb565b7f313030000000000000000000000000000000000000000000000000000000000060208201526040519182918261011e565b604051906040820182811067ffffffffffffffff8211176100ef5760405260038252565b7f4e487b7100000000000000000000000000000000000000000000000000000000600052604160045260246000fd5b6020808252825181830181905290939260005b82811061015357505060409293506000838284010152601f8019910116010190565b81810186015184820160400152850161013156fea26469706673582212205b444fde66401e5c71773ed9c2770e4ea62c512c865c97f2b5e4a899135288e664736f6c63430008110033",
  "immutableReferences": {},
  "source": "// SPDX-License-Identifier: None\npragma solidity ^0.8.0;\n\nlibrary Errors {\n    string public constant PRICE_FEED_TOKEN_NOT_SUPPORTED = \"100\"; // Token is not supported\n    string public constant PRICE_FEED_TOKEN_BELOW_ZERO = \"101\"; // Token below zero price\n}",
  "sourcePath": "/home/runner/smart-contracts/contracts/libraries/Errors.sol",
  "compiler": {
    "name": "solc",
    "version": "0.8.17+commit.8df45f5f.Emscripten.clang"
  },
  "schemaVersion": "3.4.13",
  "updatedAt": "2024-07-31T04:56:55.965Z",
  "devdoc": {
    "kind": "dev",
    "methods": {},
    "version": 1
  },
  "userdoc": {
    "kind": "user",
    "methods": {},
    "version": 1
  }
}