{
  "contractName": "FeeManager",
  "abi": [
    {
      "inputs": [],
      "stateMutability": "nonpayable",
      "type": "constructor"
    },
    {
      "anonymous": false,
      "inputs": [
        {
          "indexed": true,
          "internalType": "address",
          "name": "previousOwner",
          "type": "address"
        },
        {
          "indexed": true,
          "internalType": "address",
          "name": "newOwner",
          "type": "address"
        }
      ],
      "name": "OwnershipTransferStarted",
      "type": "event"
    },
    {
      "anonymous": false,
      "inputs": [
        {
          "indexed": true,
          "internalType": "address",
          "name": "previousOwner",
          "type": "address"
        },
        {
          "indexed": true,
          "internalType": "address",
          "name": "newOwner",
          "type": "address"
        }
      ],
      "name": "OwnershipTransferred",
      "type": "event"
    },
    {
      "inputs": [],
      "name": "acceptOwnership",
      "outputs": [],
      "stateMutability": "nonpayable",
      "type": "function"
    },
    {
      "inputs": [],
      "name": "owner",
      "outputs": [
        {
          "internalType": "address",
          "name": "",
          "type": "address"
        }
      ],
      "stateMutability": "view",
      "type": "function",
      "constant": true
    },
    {
      "inputs": [],
      "name": "pendingOwner",
      "outputs": [
        {
          "internalType": "address",
          "name": "",
          "type": "address"
        }
      ],
      "stateMutability": "view",
      "type": "function",
      "constant": true
    },
    {
      "inputs": [],
      "name": "renounceOwnership",
      "outputs": [],
      "stateMutability": "nonpayable",
      "type": "function"
    },
    {
      "inputs": [
        {
          "internalType": "address",
          "name": "newOwner",
          "type": "address"
        }
      ],
      "name": "transferOwnership",
      "outputs": [],
      "stateMutability": "nonpayable",
      "type": "function"
    },
    {
      "inputs": [
        {
          "internalType": "address",
          "name": "token",
          "type": "address"
        },
        {
          "internalType": "uint256",
          "name": "amount",
          "type": "uint256"
        }
      ],
      "name": "credit",
      "outputs": [],
      "stateMutability": "nonpayable",
      "type": "function"
    },
    {
      "inputs": [
        {
          "internalType": "address",
          "name": "token",
          "type": "address"
        },
        {
          "internalType": "uint256",
          "name": "amount",
          "type": "uint256"
        }
      ],
      "name": "debit",
      "outputs": [],
      "stateMutability": "nonpayable",
      "type": "function"
    },
    {
      "inputs": [
        {
          "internalType": "address",
          "name": "token",
          "type": "address"
        }
      ],
      "name": "balanceOf",
      "outputs": [
        {
          "internalType": "uint256",
          "name": "",
          "type": "uint256"
        }
      ],
      "stateMutability": "view",
      "type": "function",
      "constant": true
    },
    {
      "inputs": [],
      "name": "feePercentage",
      "outputs": [
        {
          "internalType": "uint160",
          "name": "",
          "type": "uint160"
        }
      ],
      "stateMutability": "view",
      "type": "function",
      "constant": true
    },
    {
      "inputs": [
        {
          "internalType": "uint160",
          "name": "percentage_",
          "type": "uint160"
        }
      ],
      "name": "changePercentage",
      "outputs": [],
      "stateMutability": "nonpayable",
      "type": "function"
    },
    {
      "inputs": [
        {
          "internalType": "address",
          "name": "lendingPool_",
          "type": "address"
        }
      ],
      "name": "setLendingPool",
      "outputs": [],
      "stateMutability": "nonpayable",
      "type": "function"
    }
  ],
  "bytecode": "0x6080806040523461006a57600560018060a01b031980600154166001556000543382821617600055339060018060a01b03167f8be0079c531659141344cd1fd0a4f28419497f9722a3daafe3b4186f6b6457e0600080a3600354161760035561058c90816100708239f35b600080fdfe6040608081526004908136101561001557600080fd5b600091823560e01c918263113aa8b114610459578263636be27a146103b357826370a082311461037d578263715018a61461031b57826379ba5097146102445782638da5cb5b1461021e5782639f409998146101dd578263a001ecdd146101b5578263e30c397814610189578263ef6506db1461010957505063f2fde38b1461009d57600080fd5b34610106576020366003190112610106576100b6610498565b6100be6104b3565b6001600160a01b0380911690816001600160a01b031960015416176001558254167f38d16b8cac22d99fc7c124b9cd0de2d3fa1faef420bfe791d8c362d765e227008380a380f35b80fd5b90915034610185578060031936011261018557610124610498565b6001600160a01b039061013c8260025416331461050b565b168352816020528220805491602435830180931161015957505580f35b8360116024927f4e487b7100000000000000000000000000000000000000000000000000000000835252fd5b8280fd5b8390346101b157816003193601126101b1576020906001600160a01b03600154169051908152f35b5080fd5b8390346101b157816003193601126101b1576020906001600160a01b03600354169051908152f35b8382346101b15760203660031901126101b157356001600160a01b0381168091036101b15761020a6104b3565b6001600160a01b0319600354161760035580f35b8390346101b157816003193601126101b1576001600160a01b0360209254169051908152f35b90915034610185578260031936011261018557600154916001600160a01b039133838516036102b25750506001600160a01b0319809216600155825491339083161783553391167f8be0079c531659141344cd1fd0a4f28419497f9722a3daafe3b4186f6b6457e08380a380f35b906020608492519162461bcd60e51b8352820152602960248201527f4f776e61626c6532537465703a2063616c6c6572206973206e6f74207468652060448201527f6e6577206f776e657200000000000000000000000000000000000000000000006064820152fd5b83346101065780600319360112610106576103346104b3565b806001600160a01b036001600160a01b0319806001541660015582549081168355167f8be0079c531659141344cd1fd0a4f28419497f9722a3daafe3b4186f6b6457e08280a380f35b9150346101855760203660031901126101855760209282916001600160a01b036103a5610498565b168252845220549051908152f35b9150346101855781600319360112610185576103cd610498565b91602435926001600160a01b03906103ea8260025416331461050b565b168085528260205283828620541061041657845281602052832090815492830392831161015957505580f35b606483602084519162461bcd60e51b8352820152601060248201527f4552525f494e53554646494349454e54000000000000000000000000000000006044820152fd5b8334610106576020366003190112610106576001600160a01b0361047b610498565b6104836104b3565b166001600160a01b0319600254161760025580f35b600435906001600160a01b03821682036104ae57565b600080fd5b6001600160a01b036000541633036104c757565b606460405162461bcd60e51b815260206004820152602060248201527f4f776e61626c653a2063616c6c6572206973206e6f7420746865206f776e65726044820152fd5b1561051257565b606460405162461bcd60e51b815260206004820152601560248201527f4552525f4f4e4c595f4c454e44494e475f504f4f4c00000000000000000000006044820152fdfea2646970667358221220f649c199206eecaf3644aa33c9f6a360f3ea848f41396bfe639010c045ef0a2664736f6c63430008110033",
  "immutableReferences": {},
  "source": "// SPDX-License-Identifier: MIT\npragma solidity ^0.8.17;\n\nimport \"../interfaces/IFeeManager.sol\";\n\nimport \"@openzeppelin/contracts/access/Ownable2Step.sol\";\n\n/*\n    The FeeManager contract is solely created to bookkeep\n    @dev revenue from the LendingPool contract.\n   This contract can only be modified by the LendingPool \n    contract.\n*/\n \n\ncontract FeeManager is IFeeManager, Ownable2Step {\n    address deployer;\n\n    uint160 private _percentage = 5; // 2%\n    mapping(address => uint256) private _balances;\n\n    constructor() Ownable2Step() {}\n\n    function credit(address token, uint256 amount)\n        public\n        override\n        onlyLendingPool\n    {\n        _balances[token] += amount;\n    }\n\n    function debit(address token, uint256 amount)\n        public\n        override\n        onlyLendingPool\n    {\n        uint256 balance = _balances[token];\n        require(balance >= amount, \"ERR_INSUFFICIENT\");\n        _balances[token] -= amount;\n    }\n\n    function balanceOf(address token) public view override returns (uint256) {\n        return _balances[token];\n    }\n\n    function feePercentage() public view override returns (uint160) {\n        return _percentage;\n    }\n\n    function changePercentage(uint160 percentage_) public onlyOwner {\n        _percentage = percentage_;\n    }\n\n    function setLendingPool(address lendingPool_) public onlyOwner {\n        deployer = lendingPool_;\n    }\n\n    modifier onlyLendingPool() {\n        require(deployer == msg.sender, \"ERR_ONLY_LENDING_POOL\");\n        _;\n    }\n}\n",
  "sourcePath": "/home/runner/smart-contracts/contracts/managers/FeeManager.sol",
  "compiler": {
    "name": "solc",
    "version": "0.8.17+commit.8df45f5f.Emscripten.clang"
  },
  "schemaVersion": "3.4.13",
  "updatedAt": "2024-07-31T05:00:17.020Z",
  "networkType": "ethereum",
  "devdoc": {
    "kind": "dev",
    "methods": {
      "acceptOwnership()": {
        "details": "The new owner accepts the ownership transfer."
      },
      "owner()": {
        "details": "Returns the address of the current owner."
      },
      "pendingOwner()": {
        "details": "Returns the address of the pending owner."
      },
      "renounceOwnership()": {
        "details": "Leaves the contract without owner. It will not be possible to call `onlyOwner` functions anymore. Can only be called by the current owner. NOTE: Renouncing ownership will leave the contract without an owner, thereby removing any functionality that is only available to the owner."
      },
      "transferOwnership(address)": {
        "details": "Starts the ownership transfer of the contract to a new account. Replaces the pending transfer if there is one. Can only be called by the current owner."
      }
    },
    "version": 1
  },
  "userdoc": {
    "kind": "user",
    "methods": {},
    "version": 1
  }
}