{
  "contractName": "LendingPool",
  "abi": [
    {
      "inputs": [],
      "stateMutability": "nonpayable",
      "type": "constructor"
    },
    {
      "anonymous": false,
      "inputs": [
        {
          "indexed": false,
          "internalType": "uint256",
          "name": "id",
          "type": "uint256"
        },
        {
          "indexed": false,
          "internalType": "uint256",
          "name": "timestamp",
          "type": "uint256"
        },
        {
          "indexed": false,
          "internalType": "address",
          "name": "from",
          "type": "address"
        },
        {
          "indexed": false,
          "internalType": "address",
          "name": "to",
          "type": "address"
        },
        {
          "indexed": false,
          "internalType": "uint256",
          "name": "fieldId",
          "type": "uint256"
        }
      ],
      "name": "Notify",
      "type": "event"
    },
    {
      "anonymous": false,
      "inputs": [
        {
          "indexed": true,
          "internalType": "address",
          "name": "previousOwner",
          "type": "address"
        },
        {
          "indexed": true,
          "internalType": "address",
          "name": "newOwner",
          "type": "address"
        }
      ],
      "name": "OwnershipTransferStarted",
      "type": "event"
    },
    {
      "anonymous": false,
      "inputs": [
        {
          "indexed": true,
          "internalType": "address",
          "name": "previousOwner",
          "type": "address"
        },
        {
          "indexed": true,
          "internalType": "address",
          "name": "newOwner",
          "type": "address"
        }
      ],
      "name": "OwnershipTransferred",
      "type": "event"
    },
    {
      "anonymous": false,
      "inputs": [
        {
          "indexed": false,
          "internalType": "address",
          "name": "account",
          "type": "address"
        }
      ],
      "name": "Paused",
      "type": "event"
    },
    {
      "anonymous": false,
      "inputs": [
        {
          "indexed": false,
          "internalType": "uint256",
          "name": "transferId",
          "type": "uint256"
        },
        {
          "indexed": false,
          "internalType": "uint256",
          "name": "offerId",
          "type": "uint256"
        },
        {
          "indexed": false,
          "internalType": "address",
          "name": "from",
          "type": "address"
        },
        {
          "indexed": false,
          "internalType": "uint256",
          "name": "amount",
          "type": "uint256"
        },
        {
          "indexed": false,
          "internalType": "address",
          "name": "token",
          "type": "address"
        },
        {
          "indexed": false,
          "internalType": "enum LendingPoolProvider.Type",
          "name": "transferType",
          "type": "uint8"
        },
        {
          "indexed": false,
          "internalType": "uint256",
          "name": "timestamp",
          "type": "uint256"
        }
      ],
      "name": "Transfer",
      "type": "event"
    },
    {
      "anonymous": false,
      "inputs": [
        {
          "indexed": false,
          "internalType": "address",
          "name": "account",
          "type": "address"
        }
      ],
      "name": "Unpaused",
      "type": "event"
    },
    {
      "inputs": [],
      "name": "ACCEPT_REQUEST",
      "outputs": [
        {
          "internalType": "uint256",
          "name": "",
          "type": "uint256"
        }
      ],
      "stateMutability": "view",
      "type": "function",
      "constant": true
    },
    {
      "inputs": [],
      "name": "EXPIRE_REQUEST",
      "outputs": [
        {
          "internalType": "uint256",
          "name": "",
          "type": "uint256"
        }
      ],
      "stateMutability": "view",
      "type": "function",
      "constant": true
    },
    {
      "inputs": [],
      "name": "INTEREST_RATE_DENOMINATOR",
      "outputs": [
        {
          "internalType": "uint256",
          "name": "",
          "type": "uint256"
        }
      ],
      "stateMutability": "view",
      "type": "function",
      "constant": true
    },
    {
      "inputs": [],
      "name": "LENDINGPOOL_VERSION",
      "outputs": [
        {
          "internalType": "uint256",
          "name": "",
          "type": "uint256"
        }
      ],
      "stateMutability": "view",
      "type": "function",
      "constant": true
    },
    {
      "inputs": [],
      "name": "LIQUIDATION",
      "outputs": [
        {
          "internalType": "uint256",
          "name": "",
          "type": "uint256"
        }
      ],
      "stateMutability": "view",
      "type": "function",
      "constant": true
    },
    {
      "inputs": [],
      "name": "PERCENT",
      "outputs": [
        {
          "internalType": "uint16",
          "name": "",
          "type": "uint16"
        }
      ],
      "stateMutability": "view",
      "type": "function",
      "constant": true
    },
    {
      "inputs": [],
      "name": "REJECT_REQUEST",
      "outputs": [
        {
          "internalType": "uint256",
          "name": "",
          "type": "uint256"
        }
      ],
      "stateMutability": "view",
      "type": "function",
      "constant": true
    },
    {
      "inputs": [],
      "name": "REPAID_LOAN",
      "outputs": [
        {
          "internalType": "uint256",
          "name": "",
          "type": "uint256"
        }
      ],
      "stateMutability": "view",
      "type": "function",
      "constant": true
    },
    {
      "inputs": [],
      "name": "acceptOwnership",
      "outputs": [],
      "stateMutability": "nonpayable",
      "type": "function"
    },
    {
      "inputs": [
        {
          "internalType": "uint16",
          "name": "percentage",
          "type": "uint16"
        }
      ],
      "name": "checkPercentage",
      "outputs": [],
      "stateMutability": "pure",
      "type": "function",
      "constant": true
    },
    {
      "inputs": [
        {
          "internalType": "uint256",
          "name": "principal",
          "type": "uint256"
        },
        {
          "internalType": "uint256",
          "name": "durationSecs",
          "type": "uint256"
        },
        {
          "internalType": "uint256",
          "name": "interestRate",
          "type": "uint256"
        }
      ],
      "name": "getFullInterestAmount",
      "outputs": [
        {
          "internalType": "uint256",
          "name": "",
          "type": "uint256"
        }
      ],
      "stateMutability": "pure",
      "type": "function",
      "constant": true
    },
    {
      "inputs": [],
      "name": "nativeAddress",
      "outputs": [
        {
          "internalType": "address",
          "name": "",
          "type": "address"
        }
      ],
      "stateMutability": "view",
      "type": "function",
      "constant": true
    },
    {
      "inputs": [
        {
          "internalType": "address",
          "name": "from",
          "type": "address"
        },
        {
          "internalType": "address",
          "name": "to",
          "type": "address"
        },
        {
          "internalType": "uint256",
          "name": "notification",
          "type": "uint256"
        },
        {
          "internalType": "uint256",
          "name": "fieldId",
          "type": "uint256"
        }
      ],
      "name": "notify",
      "outputs": [],
      "stateMutability": "nonpayable",
      "type": "function"
    },
    {
      "inputs": [],
      "name": "owner",
      "outputs": [
        {
          "internalType": "address",
          "name": "",
          "type": "address"
        }
      ],
      "stateMutability": "view",
      "type": "function",
      "constant": true
    },
    {
      "inputs": [],
      "name": "paused",
      "outputs": [
        {
          "internalType": "bool",
          "name": "",
          "type": "bool"
        }
      ],
      "stateMutability": "view",
      "type": "function",
      "constant": true
    },
    {
      "inputs": [],
      "name": "pendingOwner",
      "outputs": [
        {
          "internalType": "address",
          "name": "",
          "type": "address"
        }
      ],
      "stateMutability": "view",
      "type": "function",
      "constant": true
    },
    {
      "inputs": [
        {
          "internalType": "uint256",
          "name": "total",
          "type": "uint256"
        },
        {
          "internalType": "uint160",
          "name": "percent",
          "type": "uint160"
        }
      ],
      "name": "percentageOf",
      "outputs": [
        {
          "internalType": "uint256",
          "name": "",
          "type": "uint256"
        }
      ],
      "stateMutability": "pure",
      "type": "function",
      "constant": true
    },
    {
      "inputs": [],
      "name": "renounceOwnership",
      "outputs": [],
      "stateMutability": "nonpayable",
      "type": "function"
    },
    {
      "inputs": [
        {
          "internalType": "uint256",
          "name": "offerId",
          "type": "uint256"
        },
        {
          "internalType": "address",
          "name": "from",
          "type": "address"
        },
        {
          "internalType": "uint256",
          "name": "amount",
          "type": "uint256"
        },
        {
          "internalType": "address",
          "name": "token",
          "type": "address"
        },
        {
          "internalType": "enum LendingPoolProvider.Type",
          "name": "transferType",
          "type": "uint8"
        }
      ],
      "name": "transfer",
      "outputs": [],
      "stateMutability": "nonpayable",
      "type": "function"
    },
    {
      "inputs": [
        {
          "internalType": "address",
          "name": "newOwner",
          "type": "address"
        }
      ],
      "name": "transferOwnership",
      "outputs": [],
      "stateMutability": "nonpayable",
      "type": "function"
    },
    {
      "inputs": [
        {
          "internalType": "uint256",
          "name": "principalAmount_",
          "type": "uint256"
        },
        {
          "internalType": "address",
          "name": "principalToken",
          "type": "address"
        },
        {
          "internalType": "address[]",
          "name": "collateralTokens",
          "type": "address[]"
        },
        {
          "internalType": "uint16",
          "name": "daysToMaturity",
          "type": "uint16"
        },
        {
          "internalType": "uint256",
          "name": "interestRate",
          "type": "uint256"
        },
        {
          "internalType": "uint16",
          "name": "daysToExpire",
          "type": "uint16"
        }
      ],
      "name": "createLendingOffer",
      "outputs": [],
      "stateMutability": "payable",
      "type": "function",
      "payable": true
    },
    {
      "inputs": [
        {
          "internalType": "address",
          "name": "principalToken",
          "type": "address"
        },
        {
          "internalType": "uint256",
          "name": "principalAmount",
          "type": "uint256"
        },
        {
          "internalType": "address",
          "name": "collateralToken",
          "type": "address"
        },
        {
          "internalType": "uint256",
          "name": "interestRate",
          "type": "uint256"
        },
        {
          "internalType": "uint16",
          "name": "daysToMaturity",
          "type": "uint16"
        },
        {
          "internalType": "uint16",
          "name": "hoursToExpire",
          "type": "uint16"
        }
      ],
      "name": "createBorrowingOffer",
      "outputs": [],
      "stateMutability": "payable",
      "type": "function",
      "payable": true
    },
    {
      "inputs": [
        {
          "internalType": "uint256",
          "name": "offerId",
          "type": "uint256"
        },
        {
          "internalType": "uint16",
          "name": "percentage",
          "type": "uint16"
        },
        {
          "internalType": "uint16",
          "name": "daysToMaturity",
          "type": "uint16"
        },
        {
          "internalType": "uint256",
          "name": "interestRate",
          "type": "uint256"
        },
        {
          "internalType": "uint16",
          "name": "hoursToExpire",
          "type": "uint16"
        }
      ],
      "name": "createLendingRequest",
      "outputs": [],
      "stateMutability": "payable",
      "type": "function",
      "payable": true
    },
    {
      "inputs": [
        {
          "internalType": "uint256",
          "name": "offerId",
          "type": "uint256"
        },
        {
          "internalType": "uint16",
          "name": "percentage",
          "type": "uint16"
        },
        {
          "internalType": "address",
          "name": "collateralToken",
          "type": "address"
        },
        {
          "internalType": "uint256",
          "name": "interestRate",
          "type": "uint256"
        },
        {
          "internalType": "uint16",
          "name": "daysToMaturity",
          "type": "uint16"
        },
        {
          "internalType": "uint16",
          "name": "hoursToExpire",
          "type": "uint16"
        }
      ],
      "name": "createBorrowingRequest",
      "outputs": [],
      "stateMutability": "payable",
      "type": "function",
      "payable": true
    },
    {
      "inputs": [
        {
          "internalType": "uint256",
          "name": "offerId",
          "type": "uint256"
        },
        {
          "internalType": "uint16",
          "name": "percentage",
          "type": "uint16"
        }
      ],
      "name": "acceptBorrowingOffer",
      "outputs": [],
      "stateMutability": "payable",
      "type": "function",
      "payable": true
    },
    {
      "inputs": [
        {
          "internalType": "uint256",
          "name": "offerId",
          "type": "uint256"
        },
        {
          "internalType": "uint16",
          "name": "percentage",
          "type": "uint16"
        },
        {
          "internalType": "address",
          "name": "collateralToken",
          "type": "address"
        }
      ],
      "name": "acceptLendingOffer",
      "outputs": [],
      "stateMutability": "payable",
      "type": "function",
      "payable": true
    },
    {
      "inputs": [
        {
          "internalType": "uint256",
          "name": "offerId",
          "type": "uint256"
        },
        {
          "internalType": "uint16",
          "name": "percentage",
          "type": "uint16"
        }
      ],
      "name": "removePrincipal",
      "outputs": [],
      "stateMutability": "nonpayable",
      "type": "function"
    },
    {
      "inputs": [
        {
          "internalType": "uint256",
          "name": "offerId",
          "type": "uint256"
        },
        {
          "internalType": "uint16",
          "name": "percentage",
          "type": "uint16"
        }
      ],
      "name": "removeCollateral",
      "outputs": [],
      "stateMutability": "nonpayable",
      "type": "function"
    },
    {
      "inputs": [
        {
          "internalType": "uint256",
          "name": "requestId",
          "type": "uint256"
        }
      ],
      "name": "acceptBorrowingRequest",
      "outputs": [],
      "stateMutability": "nonpayable",
      "type": "function"
    },
    {
      "inputs": [
        {
          "internalType": "uint256",
          "name": "requestId",
          "type": "uint256"
        }
      ],
      "name": "acceptLendingRequest",
      "outputs": [],
      "stateMutability": "payable",
      "type": "function",
      "payable": true
    },
    {
      "inputs": [
        {
          "internalType": "uint256",
          "name": "offerId",
          "type": "uint256"
        },
        {
          "internalType": "uint16",
          "name": "toExpire",
          "type": "uint16"
        }
      ],
      "name": "reActivateOffer",
      "outputs": [],
      "stateMutability": "nonpayable",
      "type": "function"
    },
    {
      "inputs": [
        {
          "internalType": "uint256",
          "name": "loanId",
          "type": "uint256"
        },
        {
          "internalType": "uint16",
          "name": "percentage",
          "type": "uint16"
        }
      ],
      "name": "repayLoan",
      "outputs": [],
      "stateMutability": "payable",
      "type": "function",
      "payable": true
    },
    {
      "inputs": [
        {
          "internalType": "uint256",
          "name": "loanId",
          "type": "uint256"
        }
      ],
      "name": "repayLiquidatedLoan",
      "outputs": [],
      "stateMutability": "payable",
      "type": "function",
      "payable": true
    },
    {
      "inputs": [
        {
          "internalType": "uint256",
          "name": "requestId",
          "type": "uint256"
        }
      ],
      "name": "rejectRequest",
      "outputs": [],
      "stateMutability": "nonpayable",
      "type": "function"
    },
    {
      "inputs": [
        {
          "internalType": "uint256",
          "name": "requestId",
          "type": "uint256"
        }
      ],
      "name": "cancelRequest",
      "outputs": [],
      "stateMutability": "nonpayable",
      "type": "function"
    },
    {
      "inputs": [
        {
          "internalType": "uint256",
          "name": "loanId",
          "type": "uint256"
        }
      ],
      "name": "claimCollateral",
      "outputs": [],
      "stateMutability": "nonpayable",
      "type": "function"
    },
    {
      "inputs": [
        {
          "internalType": "uint256",
          "name": "loanId",
          "type": "uint256"
        }
      ],
      "name": "claimBorrowedPrincipal",
      "outputs": [],
      "stateMutability": "nonpayable",
      "type": "function"
    },
    {
      "inputs": [
        {
          "internalType": "uint256",
          "name": "loanId",
          "type": "uint256"
        }
      ],
      "name": "claimPrincipal",
      "outputs": [],
      "stateMutability": "nonpayable",
      "type": "function"
    },
    {
      "inputs": [
        {
          "internalType": "uint256",
          "name": "loanId",
          "type": "uint256"
        }
      ],
      "name": "claimDefaultCollateral",
      "outputs": [],
      "stateMutability": "nonpayable",
      "type": "function"
    },
    {
      "inputs": [
        {
          "internalType": "uint256",
          "name": "loanId",
          "type": "uint256"
        }
      ],
      "name": "liquidateLoan",
      "outputs": [],
      "stateMutability": "nonpayable",
      "type": "function"
    },
    {
      "inputs": [],
      "name": "getVersion",
      "outputs": [
        {
          "internalType": "uint256",
          "name": "",
          "type": "uint256"
        }
      ],
      "stateMutability": "pure",
      "type": "function",
      "constant": true
    },
    {
      "inputs": [
        {
          "internalType": "address",
          "name": "ltv_",
          "type": "address"
        },
        {
          "internalType": "address",
          "name": "activity_",
          "type": "address"
        },
        {
          "internalType": "address",
          "name": "priceFeed_",
          "type": "address"
        }
      ],
      "name": "setFeeds",
      "outputs": [],
      "stateMutability": "nonpayable",
      "type": "function"
    },
    {
      "inputs": [
        {
          "internalType": "address",
          "name": "loanManager_",
          "type": "address"
        },
        {
          "internalType": "address",
          "name": "offerManager_",
          "type": "address"
        },
        {
          "internalType": "address",
          "name": "feeManager_",
          "type": "address"
        }
      ],
      "name": "setManagers",
      "outputs": [],
      "stateMutability": "nonpayable",
      "type": "function"
    },
    {
      "inputs": [
        {
          "internalType": "address",
          "name": "token",
          "type": "address"
        },
        {
          "internalType": "address payable",
          "name": "receiver",
          "type": "address"
        },
        {
          "internalType": "uint256",
          "name": "amount",
          "type": "uint256"
        }
      ],
      "name": "claim",
      "outputs": [],
      "stateMutability": "nonpayable",
      "type": "function"
    }
  ],
  "bytecode": "0x6080806040523461006d576001805560035460028054336001600160a01b0319821681179092556001600160a01b03167f8be0079c531659141344cd1fd0a4f28419497f9722a3daafe3b4186f6b6457e0600080a36001600160a81b0319166003556149c690816100738239f35b600080fdfe608080604052600436101561001357600080fd5b600090813560e01c90816303e7783714613bec575080630548db1214613b785780630c49f023146139fb5780630d11c0d3146113fb5780630d8e6e2c14612d2757806310b3ed2a146139855780632672a87a146134935780632d7788db1461334b5780632e4763371461331c5780633015394c14613117578063380dad57146130fb5780634add7c8214612d435780634ae3223514612d2757806350a55fe614612d0b57806353188b141461291d5780635c7f31aa146124575780635c975abb146124315780635d03999f146123bd57806361ba9443146123a8578063628118ee14611f2b578063669c987f14611e8e5780636fb9316714611d27578063715018a614611cc257806379ba509714611bed5780637a5ae69e14611bc45780637cc5805a14611a435780638da5cb5b14611a1c578063996cba68146118c3578063a33928da1461151a578063a6aea415146114a4578063b2ac850d14611417578063b85a8b20146113fb578063b91dc4bb14611384578063c1bc89ef14611166578063c49785b4146110f0578063cc3266e8146110cd578063ccdd9f5d14610bcc578063e0b2695914610b98578063e0f7dffd14610b4c578063e30c397814610b25578063e643321b14610b09578063e826fbe7146103a5578063f2fde38b1461033a5763f9af05791461020557600080fd5b346103375760203660031901126103375761021e614675565b610226613d38565b6007546040517ff400c7430000000000000000000000000000000000000000000000000000000081526004803590820152336024820152906001600160a01b039060609083908316818681604481015b03925af19081156102d657839084938593610300575b50821673eeeeeeeeeeeeeeeeeeeeeeeeeeeeeeeeeeeeeeee81036102eb575083808280156102e1575b8280929181923390f1156102d6576102cf925b3390614783565b6001805580f35b6040513d85823e3d90fd5b6108fc91506102b5565b926102fb826102cf953390614354565b6102c8565b91509250610325915060603d8111610330575b61031d8183613ca6565b810190614653565b92919092913861028c565b503d610313565b80fd5b503461033757602036600319011261033757610354613c07565b61035c613ce0565b6001600160a01b0380911690816001600160a01b03196003541617600355600254167f38d16b8cac22d99fc7c124b9cd0de2d3fa1faef420bfe791d8c362d765e227008380a380f35b506060366003190112610337576103ba613c49565b6103c2613c33565b6103ca613d38565b6103d3826148ef565b6001600160a01b0360085416604051926322bc934560e11b845260043560048501528484602481855afa9384156108d0578594610ae5575b50604051633970062960e01b815260048035908201526001600160a01b0384166024820152916020908390604490829089905af19182156108d05761046b9261045b918791610ab6575b50614202565b61ffff60808501519116906148cb565b600554604084810151905163912d228f60e01b81526001600160a01b0391821660048201526024810184905292949291602091839160449183918a91165af19081156108d0578591610a83575b506006546040516322a0fe3360e21b81523360048201526024810192909252602090829060449082906001600160a01b03165afa9081156108d0578591610a49575b506005546040838101519051631c07d98160e21b81526001600160a01b03918216600482015285821660248201526044810187905291602091839160649183918b91165af1908115610943578691610a17575b50600460206001600160a01b036006541660405192838092636882509b60e11b82525afa908115610a0c5787916109c2575b506105979260ff610591921690614054565b906148cb565b73eeeeeeeeeeeeeeeeeeeeeeeeeeeeeeeeeeeeeeee9390856001600160a01b0385168681036109ac5750503481106109685785945b6105da8583336004356147ea565b826001600160a01b03604086015116918214600014610958575050848083801561094e575b8280929181923390f1156108ac575b6106296001600160a01b036040850151168333600435614783565b60055460405163912d228f60e01b81526001600160a01b03868116600483015260248201849052909591602091879160449183918b91165af194851561094357869561090a575b50826020916001600160a01b036007541690886101c08801516106928161424d565b6106e68a6001600160a01b0360408c015116928b60a08101516001600160a01b0361012061ffff60c08501511693015116936040519c8d9b8c9a8b996319467e2760e01b8b52339760043560048d016142e0565b03925af180156108d0576108db575b506001600160a01b0360085416803b1561086e57848091604460405180948193630a5ff10960e41b835260043560048401528760248401525af19081156108d05785916108b7575b5050600554604083810151905163912d228f60e01b81526001600160a01b0391821660048201526024810193909352602091839160449183918991165af19081156108ac578491610872575b506001600160a01b0361012081600454169301511690823b1561086e576040516328cdd6eb60e11b81526001600160a01b0392909216600483015233602483015260448201529083908290606490829084905af19081156102d6578391610857575b50506001600160a01b0360045416803b15610853576040516363a6c98160e01b8152336004820152602481019290925282908290818381604481015b03925af18015610848576108385750f35b61084190613c7c565b6103375780f35b6040513d84823e3d90fd5b5050fd5b61086090613c7c565b61086b5781386107eb565b50fd5b8480fd5b9350506020833d6020116108a4575b8161088e60209383613ca6565b8101031261089f5783925138610789565b600080fd5b3d9150610881565b6040513d86823e3d90fd5b6108c090613c7c565b6108cb57833861073d565b505050fd5b6040513d87823e3d90fd5b6020809295503d8311610903575b6108f38183613ca6565b8101031261089f578392386106f5565b503d6108e9565b955093506020853d60201161093b575b8161092760209383613ca6565b8101031261089f5793518594909382610670565b3d915061091a565b6040513d88823e3d90fd5b6108fc91506105ff565b610963913390614354565b61060e565b606460405162461bcd60e51b815260206004820152601560248201527f4552525f434f4c4c41544552414c5f414d4f554e5400000000000000000000006044820152fd5b826109bd9197929730903390613d8b565b6105cc565b90506020813d602011610a04575b816109dd60209383613ca6565b81010312610a00576105979260ff6109f761059193614046565b9250509261057f565b8680fd5b3d91506109d0565b6040513d89823e3d90fd5b90506020813d602011610a41575b81610a3260209383613ca6565b8101031261089f57513861054d565b3d9150610a25565b90506020813d602011610a7b575b81610a6460209383613ca6565b8101031261086e57610a7590614032565b386104fa565b3d9150610a57565b90506020813d602011610aae575b81610a9e60209383613ca6565b8101031261089f575160206104b8565b3d9150610a91565b610ad8915060203d602011610ade575b610ad08183613ca6565b810190613df7565b38610455565b503d610ac6565b610b029194503d8087833e610afa8183613ca6565b810190614091565b923861040b565b5034610337578060031936011261033757602060405160668152f35b503461033757806003193601126103375760206001600160a01b0360035416604051908152f35b5034610337576060366003190112610337576020610b906004356064670de0b6b3a7640000610b88602435610b83604435866148b8565b6148b8565b040490614646565b604051908152f35b503461033757604036600319011261033757602435906001600160a01b0382168203610337576020610b90836004356148cb565b5034610337578060208060031936011261086b57610be8614675565b6001600160a01b039082826007541660405190632820036560e11b82526004356004830152816024816102c09586945af19182156108d05785926110a0575b5050610140810151610c399042614623565b9260a0820193845190610120840151610c5290836148b8565b90610c5c916148b8565b670de0b6b3a7640000900460649004610c7491614646565b8160055416938683604086015116928260608701948686511698604051809581809487631c07d98160e21b9e8f84526004840192610ccf936040919493929460608201956001600160a01b0380921683521660208201520152565b03925af191821561106357899261106e575b50828560055416918660408901511692610d0188885116928c5190614623565b6040518b81526001600160a01b039586166004820152929094166024830152604482019390935291829060649082908d905af1908115611063578991611031575b50889083866009541660046040518095819363a001ecdd60e01b83525af1908115611026578a91610fea575b610d7892506148cb565b9060e08601968751610d8a8484614623565b11610f2f5750610d9a8282614623565b97519651818110610eed5750507f8a8cb0fe37d0c19cc9895f868058c082887e682f711d8492ab309eb12e9f29df9160a091955b85610280820151169051906040519260688452429084015233604084015260608301526080820152a181806009541691511690803b15610a005760405163ef6506db60e01b81526001600160a01b039290921660048301526024820184905286908290604490829084905af1908115610943578691610ed9575b5050610e5990600754169184614623565b90803b1561086e576040517f3799ba3f00000000000000000000000000000000000000000000000000000000815260048035908201526024810193909352604483019390935260648201529082908290608490829084905af1801561084857610ec5575b506001805580f35b610ece90613c7c565b610337578038610ebd565b610ee290613c7c565b61086e578438610e48565b7f8a8cb0fe37d0c19cc9895f868058c082887e682f711d8492ab309eb12e9f29df9391985080610f2360a094610f29939b614623565b90614623565b95610dce565b9651600554855160408981015190519a8b526001600160a01b03918916821660048c015288161660248a0152604489018290529098509296928792508391508516818a816064810103925af1908115610a0c578791610fb6575b5060a07f8a8cb0fe37d0c19cc9895f868058c082887e682f711d8492ab309eb12e9f29df91958895610dce565b809750858092503d8311610fe3575b610fcf8183613ca6565b8101031261089f57945186959060a0610f89565b503d610fc5565b90508382813d831161101f575b6110018183613ca6565b8101031261101b57611015610d7892614032565b90610d6e565b8980fd5b503d610ff7565b6040513d8c823e3d90fd5b809950838092503d831161105c575b61104a8183613ca6565b8101031261089f578880985190610d42565b503d611040565b6040513d8b823e3d90fd5b985090508188813d8111611099575b6110878183613ca6565b8101031261089f578897519038610ce1565b503d61107d565b6110bf9250803d106110c6575b6110b78183613ca6565b8101906144df565b3880610c27565b503d6110ad565b50346103375780600319360112610337576020604051670de0b6b3a76400008152f35b50346103375760203660031901126103375761110a614675565b611112613d38565b6007546040517fa5aca3800000000000000000000000000000000000000000000000000000000081526004803590820152336024820152906001600160a01b03906060908390831681868160448101610276565b5060c03660031901126103375760043561117e613c1d565b60443567ffffffffffffffff81116113805736602382011215611380578060040135906111aa82613cc8565b906111b86040519283613ca6565b82825260208201906024829460051b8201019036821161137c57602401915b81831061135c575050506064359161ffff8316830361089f576111f8613c6b565b94611201613d38565b6001600160a01b03851673eeeeeeeeeeeeeeeeeeeeeeeeeeeeeeeeeeeeeeee0361133957503492918661ffff9692935b6001600160a01b0360085416926040519889957fc44df3400000000000000000000000000000000000000000000000000000000087528160e48801946001600160a01b038c1660048a01528a60248a015260843560448a015216606488015216608486015260e060a48601525180915261010484019490825b818110611314575050508290816020953360c483015203925af180156108ac5784906112e0575b6112dd93503390614851565b80f35b506020833d60201161130c575b816112fa60209383613ca6565b8101031261089f576112dd92516112d1565b3d91506112ed565b82516001600160a01b031687526020968701968a96508b9450909201916001016112aa565b9261134f8430336001600160a01b038916613d8b565b918661ffff969293611231565b82356001600160a01b038116810361089f578152602092830192016111d7565b8780fd5b8380fd5b5034610337576080366003190112610337577f8a8cb0fe37d0c19cc9895f868058c082887e682f711d8492ab309eb12e9f29df60a06113c1613c07565b6113c9613c1d565b906040519160443583524260208401526001600160a01b0380921660408401521660608201526064356080820152a180f35b5034610337578060031936011261033757602060405160648152f35b50346103375760403660031901126103375780611432613c49565b61143a613d38565b6001600160a01b036008541690813b156108535761ffff606484928360405195869485937f099bfe6b00000000000000000000000000000000000000000000000000000000855260043560048601521660248401523360448401525af18015610848576108385750f35b5034610337576020366003190112610337576114be614675565b6114c6613d38565b6007546040517fe41936d70000000000000000000000000000000000000000000000000000000081526004803590820152336024820152906001600160a01b03906060908390831681868160448101610276565b5060403660031901126103375780600435611533613c49565b61153b613d38565b611544816148ef565b6024836001600160a01b0360085416604051928380926322bc934560e11b82528760048301525afa9081156108ac5784916118a9575b5061159e61159361ffff6101a0840151941680946148cb565b9260808301516148cb565b916001600160a01b036040830151168373eeeeeeeeeeeeeeeeeeeeeeeeeeeeeeeeeeeeeeee8214600014611897579050341061086e575b6115ee6001600160a01b03604084015116843387614851565b6101208201936116196001600160a01b03865116836001600160a01b036101608701511691846147ea565b60055461016084015160405163912d228f60e01b81526001600160a01b0391821660048201526024810185905291602091839160449183918c91165af1908115610a0c57879161185f575b50602085916001600160a01b0360075416868a8a6116e883518a896101c08701519461168f8661424d565b6001600160a01b03604089015116976001600160a01b03610160820151169a6001600160a01b0361ffff60c060a085015194015116935116946040519e8f9d8e9c8d9b8c9a6319467e2760e01b8c526004339c0161426d565b03925af18015610a0c57611830575b506001600160a01b036008541691823b15610a005760405163346dab9960e01b815260048101929092526024820185905260448201529085908290606490829084905af19081156108d057859161181c575b5050600554604091820151915163912d228f60e01b81526001600160a01b0392831660048201526024810193909352602091839160449183918891165af19081156102d65783916117e7575b506001600160a01b03806004541692511690823b156108cb576040516328cdd6eb60e11b81523360048201526001600160a01b0390921660248301526044820152908290829081838160648101610827565b9250506020823d602011611814575b8161180360209383613ca6565b8101031261089f5782915138611795565b3d91506117f6565b61182590613c7c565b6108cb578338611749565b6020809297503d8311611858575b6118488183613ca6565b8101031261089f578594386116f7565b503d61183e565b9650506020863d60201161188f575b8161187b60209383613ca6565b8101031261089f5794518695906020611664565b3d915061186e565b6118a49130903390613d8b565b6115d5565b6118bd91503d8086833e610afa8183613ca6565b3861157a565b5034610337576060366003190112610337576118dd613c07565b6024356001600160a01b039081811680910361138057604435916118ff613ce0565b611907614675565b82156119d85784938160095416803b156119d4576040517f636be27a0000000000000000000000000000000000000000000000000000000081526001600160a01b0383166004820152602481018690529086908290604490829084905af19081156109435786916119c0575b50501673eeeeeeeeeeeeeeeeeeeeeeeeeeeeeeeeeeeeeeee81036119b15750828092819282f1156119a5576001805580f35b604051903d90823e3d90fd5b6119bb9350614354565b6102cf565b6119c990613c7c565b61086e578438611973565b8580fd5b606460405162461bcd60e51b815260206004820152600f60248201527f4552525f5a45524f5f414d4f554e5400000000000000000000000000000000006044820152fd5b503461033757806003193601126103375760206001600160a01b0360025416604051908152f35b5060a036600319011261033757600435611a5b613c49565b9060443561ffff80821680920361089f57611a74613c5a565b93611a7d613d38565b611a86816148ef565b856001600160a01b03926024828560085416604051928380926322bc934560e11b82528b60048301525afa9081156102d6578391611baa575b50846040611ad5846080850151971680976148cb565b9201511673eeeeeeeeeeeeeeeeeeeeeeeeeeeeeeeeeeeeeeee8103611b9157503410611b8d5760209560c4945b600854169160405198899788967fb438b89000000000000000000000000000000000000000000000000000000000885260048801526064356024880152604487015216606485015233608485015260a48401525af1801561084857611b65575080f35b602090813d8111611b86575b611b7b8183613ca6565b8101031261089f5780f35b503d611b71565b5080fd5b94611ba56020989260c49730903390613d8b565b611b02565b611bbe91503d8085833e610afa8183613ca6565b38611abf565b50346103375760203660031901126103375760043561ffff8116810361089f576112dd906148ef565b50346103375780600319360112610337576003546001600160a01b033381831603611c58576001600160a01b03198092166003556002549133908316176002553391167f8be0079c531659141344cd1fd0a4f28419497f9722a3daafe3b4186f6b6457e0600080a380f35b608460405162461bcd60e51b815260206004820152602960248201527f4f776e61626c6532537465703a2063616c6c6572206973206e6f74207468652060448201527f6e6577206f776e657200000000000000000000000000000000000000000000006064820152fd5b5034610337578060031936011261033757611cdb613ce0565b60006001600160a01b036001600160a01b03198060035416600355600254908116600255167f8be0079c531659141344cd1fd0a4f28419497f9722a3daafe3b4186f6b6457e08280a380f35b503461033757604036600319011261033757806024600435611d47613c49565b611d4f613d38565b611d58816148ef565b6001600160a01b0390848260085416604051958680926322bc934560e11b82528760048301525afa9384156108d0578594611e6b575b50611da560409161ffff60808701519116906148cb565b930181848183511673eeeeeeeeeeeeeeeeeeeeeeeeeeeeeeeeeeeeeeee8114600014611e56575050508480858015611e4c575b8280929181923390f1156108ac5781611df6915b511684338561471c565b6008541691823b156108cb576040517f7f4a10b600000000000000000000000000000000000000000000000000000000815260048101929092523360248301526044820152908290829081838160648101610827565b6108fc9150611dd8565b611df69391611e66913390614354565b611dec565b6040919450611e86611da5913d8089833e610afa8183613ca6565b949150611d8e565b50346103375760a036600319011261033757611ea8613c1d565b606435906001600160a01b039081831680930361089f57608435600481101561086e577f1b89f92faead76d76eeb15b01f4ca1cff0fcbad53196805a290812426389ea7e9360e093600160005401938460005560405194855260043560208601521660408401526044356060840152608083015260a08201524260c0820152a180f35b50604036600319011261033757600435611f43613c49565b611f4b613d38565b611f54816148ef565b826001600160a01b0392836007541660405190632820036560e11b8252826004830152816024816102c09687945af1928315610943578693612389575b50508361028083015116330361234557849384611fb361014085015142614623565b94611fff6064670de0b6b3a7640000611ff7611fe7611fdc61ffff60808c0151971680976148cb565b9560c08b01516148cb565b99610b836101208b0151876148b8565b040482614646565b6120098282614623565b84600954166040519063a001ecdd60e01b82528160048160209889945af1908115611026578a91612309575b5061204361204a91836148cb565b8092614623565b95856009541660408901928784511690823b156123055760405163ef6506db60e01b81526001600160a01b039290921660048301526024820152908b908290604490829084905af19182156122fa578b869288946122de575b5089908960075416926120fc6040519e8f96879586947f129773e2000000000000000000000000000000000000000000000000000000008652600486019094939260609260808301968352602083015260408201520152565b03925af19788156110635789986122bf575b508051851673eeeeeeeeeeeeeeeeeeeeeeeeeeeeeeeeeeeeeeee81036122a0575081341061229c5761216a849361215b61219e985b61214f8b519184614646565b89865116913390614851565b86806005541693511693614623565b918960405180988195829463912d228f60e01b845260048401602090939291936001600160a01b0360408201951681520152565b03925af1928315610943578693612267575b5060a07f8a8cb0fe37d0c19cc9895f868058c082887e682f711d8492ab309eb12e9f29df916102a0860195848751169051906040519260678452429084015233604084015260608301526080820152a1806004541692511691803b1561086e5784928360849260405196879586947f875bc3d100000000000000000000000000000000000000000000000000000000865260048601523360248601526044850152151560648401525af18015610848576108385750f35b809650818094503d8311612295575b6122808183613ca6565b8101031261089f5793518594909160a06121b0565b503d612276565b8880fd5b849361215b61219e986122ba8661216a9530903390613d8b565b612143565b6122d7919850843d8611610ade57610ad08183613ca6565b963861210e565b9092506122ec919350613c7c565b61101b578385918b386120a3565b6040513d8d823e3d90fd5b8c80fd5b90508481813d831161233e575b6123208183613ca6565b8101031261101b5761204361233761204a92614032565b9150612035565b503d612316565b606460405162461bcd60e51b815260206004820152601060248201527f4552525f4e4f545f424f52524f574552000000000000000000000000000000006044820152fd5b6123a0929350803d106110c6576110b78183613ca6565b903880611f91565b506020366003190112610337576112dd613d38565b5034610337576060366003190112610337576123d7613c07565b6123df613c1d565b6123e7613c33565b6123ef613ce0565b6123f7614675565b6001600160a01b038092816001600160a01b0319951685600754161760075516836008541617600855169060095416176009556001805580f35b5034610337578060031936011261033757602060ff60035460a01c166040519015158152f35b5060203660031901126103375761246c613d38565b806001600160a01b03600854166040519063c58343ef60e01b825260043560048301526101c082602481845afa9182156102d65783926128ea575b506101a06124ca818401516124bb8161424d565b6124c48161424d565b15614494565b836101008401516024604051809581936322bc934560e11b835260048301525afa9182156108ac5784926128ce575b5081015190612527612515604085019361ffff855116906148cb565b9261ffff6080840151915116906148cb565b91612549610100850151826001600160a01b03610160860151169133906147ea565b60408201516001600160a01b03168373eeeeeeeeeeeeeeeeeeeeeeeeeeeeeeeeeeeeeeee82036128be57505084808480156128b4575b8280929181923390f1156108ac575b6125ae610100850151846001600160a01b03604086015116913390614783565b6125cc6001600160a01b0360e08601511661010086015190336146ca565b60055461016083015160405163912d228f60e01b81526001600160a01b0391821660048201526024810184905291602091839160449183918b91165af190811561094357869161287c575b50602084916001600160a01b036007541661010088015191896101c088015161263f8161424d565b61269f6001600160a01b0360408b015116936001600160a01b036101608c015116968d60808101516001600160a01b0360e061ffff60608501511693015116938d6040519d8e9c8d9b8c9a6319467e2760e01b8c52339860048d016142e0565b03925af180156109435761284d575b506001600160a01b036008541690825190823b15610a005760405163346dab9960e01b815260048101929092526024820185905260448201529085908290606490829084905af19081156108d0578591612839575b50506001600160a01b0360085416803b1561086e57604051636d5d42c560e11b815260048035908201523360248201529085908290604490829084905af19081156108d0578591612825575b5050600554604091820151915163912d228f60e01b81526001600160a01b0392831660048201526024810193909352602091839160449183918891165af19081156102d65783916127f0575b506001600160a01b0360e081600454169301511690823b156108cb576040516328cdd6eb60e11b81526001600160a01b0390921660048301523360248301526044820152908290829081838160648101610827565b9250506020823d60201161281d575b8161280c60209383613ca6565b8101031261089f578291513861279b565b3d91506127ff565b61282e90613c7c565b6108cb57833861274f565b61284290613c7c565b6108cb578338612703565b6020809296503d8311612875575b6128658183613ca6565b8101031261089f578493386126ae565b503d61285b565b9550506020853d6020116128ac575b8161289860209383613ca6565b8101031261089f5793518594906020612617565b3d915061288b565b6108fc915061257f565b6128c9913390614354565b61258e565b6128e39192503d8086833e610afa8183613ca6565b90386124f9565b61290f9192506101c03d6101c011612916575b6129078183613ca6565b8101906143a6565b90386124a7565b503d6128fd565b5060c036600319011261033757612932613c07565b8161293b613c33565b91612944613c5a565b61294c613c6b565b612954613d38565b60055460405163912d228f60e01b81526001600160a01b03858116600483015260248035908301529491602090829060449082908a908a165af1908115610943578691612cd3575b506006546040516322a0fe3360e21b815233600482015260248101929092526020908290604490829089165afa908115610943578691612c99575b50600554604051631c07d98160e21b81526001600160a01b038481166004830152891660248083019190915235604482015290602090829060649082908b908b165af1908115610a0c578791612c64575b5060046020876006541660405192838092636882509b60e11b82525afa908115612c59578891612c13575b50612a659260ff610591921690614054565b9286851692858773eeeeeeeeeeeeeeeeeeeeeeeeeeeeeeeeeeeeeeee8603612bf9575050843410610a0057602092876101049288945b85600854169160405198899788967f90d870d200000000000000000000000000000000000000000000000000000000885216600487015260248601528960448601526024356064860152606435608486015261ffff80921660a48601521660c48401523360e48401525af180156108ac57612bca575b5060055460405163912d228f60e01b81526001600160a01b03959095166004860152602485019190915291929160209083906044908290879086165af19182156102d6578392612b93575b5060045416803b15610853576040516363a6c98160e01b815233600482015260248101929092528290829081838160448101610827565b925090506020823d602011612bc2575b81612bb060209383613ca6565b8101031261089f578291519038612b5c565b3d9150612ba3565b6020809294503d8311612bf2575b612be28183613ca6565b8101031261089f57839138612b11565b503d612bd8565b610104926020959294612c0e8930338b613d8b565b612a9b565b90506020813d602011612c51575b81612c2e60209383613ca6565b8101031261137c57612a659260ff612c4861059193614046565b92505092612a53565b3d9150612c21565b6040513d8a823e3d90fd5b9650506020863d602011612c91575b81612c8060209383613ca6565b8101031261089f5787955138612a28565b3d9150612c73565b90506020813d602011612ccb575b81612cb460209383613ca6565b810103126119d457612cc590614032565b386129d7565b3d9150612ca7565b9550506020853d602011612d03575b81612cef60209383613ca6565b8101031261089f579351869490602061299c565b3d9150612ce2565b5034610337578060031936011261033757602060405160688152f35b5034610337578060031936011261033757602060405160028152f35b503461033757602036600319011261033757612d5d613d38565b806001600160a01b03600854166040519063c58343ef60e01b825260043560048301526101c082602481845afa9182156102d65783926130d8575b50612dbc60016101a0840151612dad8161424d565b612db68161424d565b14614494565b826101008301516024604051809481936322bc934560e11b835260048301525afa9081156102d65783916130be575b50612e03608082015161ffff604085015116906148cb565b90612e376101008401516001600160a01b0360e086015116610140860151906001600160a01b0361012088015116926147ea565b8160206001600160a01b0360075416610100860151906101c0850151612e5c8161424d565b886001600160a01b0360408801511691612ecb6001600160a01b036101208c015116956101408c0151898d6101608101516080820151906001600160a01b0360e061ffff60608601511694015116946040519e8f9d8e9c8d9b8c9a6319467e2760e01b8c526004339c0161426d565b03925af180156108d05761308f575b50612ef96001600160a01b0360e08501511661010085015190336146ca565b6001600160a01b0360085416610100840151813b156119d4578591604483926040519485938492630a5ff10960e41b845260048401528860248401525af19081156108d057859161307b575b50506001600160a01b0360085416803b1561086e57604051636d5d42c560e11b815260048035908201523360248201529085908290604490829084905af19081156108d0578591613067575b5050600554604091820151915163912d228f60e01b81526001600160a01b0392831660048201526024810193909352602091839160449183918891165af19081156102d6578391613032575b506001600160a01b0360e081600454169301511690823b156108cb576040516328cdd6eb60e11b81523360048201526001600160a01b0390921660248301526044820152908290829081838160648101610827565b9250506020823d60201161305f575b8161304e60209383613ca6565b8101031261089f5782915138612fdd565b3d9150613041565b61307090613c7c565b6108cb578338612f91565b61308490613c7c565b6108cb578338612f45565b6020809295503d83116130b7575b6130a78183613ca6565b8101031261089f57839238612eda565b503d61309d565b6130d291503d8085833e610afa8183613ca6565b38612deb565b6130f49192506101c03d6101c011612916576129078183613ca6565b9038612d98565b5034610337578060031936011261033757602060405160678152f35b50346103375760203660031901126103375780600435613135613d38565b6001600160a01b0380600854166040519063c58343ef60e01b82528360048301526101c0918281602481855afa9283156109435786936132fd575b5050846101008301516024604051809481936322bc934560e11b835260048301525afa9081156108d0578592849184936132e1575b506101a08101516131b58161424d565b6131be8161424d565b613279576131db60409161ffff83608087015192015116906148cb565b9201511673eeeeeeeeeeeeeeeeeeeeeeeeeeeeeeeeeeeeeeee810361326857508180809281811561325f575b3390f115610848575b60085416803b15610853576040517f9498506500000000000000000000000000000000000000000000000000000000815260048101929092523360248301528290829081838160448101610827565b506108fc613207565b61327492503390614354565b613210565b9291506101208301511673eeeeeeeeeeeeeeeeeeeeeeeeeeeeeeeeeeeeeeee81146000146132ce57508080610140819401518181156132c5575b3390f1613210576040513d84823e3d90fd5b506108fc6132b3565b9050610140613274920151903390614354565b6132f69193503d8086833e610afa8183613ca6565b91386131a5565b613314929350803d10612916576129078183613ca6565b903880613170565b5034610337578060031936011261033757602060405173eeeeeeeeeeeeeeeeeeeeeeeeeeeeeeeeeeeeeeee8152f35b503461033757602036600319011261033757600435613368613d38565b6001600160a01b0390828260085416803b15611b8d576040517f774d3df5000000000000000000000000000000000000000000000000000000008152600481018490523360248201529082908290604490829084905af180156108485761347b575b505081600854169160405192839263c58343ef60e01b845260048401528260246101c09485935afa9081156108ac577f8a8cb0fe37d0c19cc9895f868058c082887e682f711d8492ab309eb12e9f29df9360a0938693613456575b50506101009060e083015116910151604051916065835242602084015233604084015260608301526080820152a180f35b610100929350908161347392903d10612916576129078183613ca6565b919038613425565b61348490613c7c565b61348f5782386133ca565b8280fd5b5060c036600319011261033757806004356134ac613c49565b906134b5613c33565b916134be613c5a565b916134c7613c6b565b916134d0613d38565b6134d9816148ef565b6001600160a01b0393846008541692604051946322bc934560e11b86528160048701528886602481885afa9485156110635761354f968a96613969575b50886040518092633970062960e01b8252818d8160209c8d968a600484019092916001600160a01b036020916040840195845216910152565b03925af1801561102657613569918b916139525750614202565b608085015161ffff851661357c916148cb565b60055460409687018051975163912d228f60e01b808252988b166001600160a01b031660048201526024810184905290959291899082908c16818f816044810103925af190811561389c578c9161391f575b506006546040516322a0fe3360e21b815233600482015260248101929092529091908990839060449082908e165afa95861561389c578b8d8b9481996138da575b506005549251604051631c07d98160e21b81526001600160a01b03918f1682166004820152921660248301526044820193909352929183918c1690829081606481015b03925af19081156122fa578b916138a7575b50600490888a6006541660405193848092636882509b60e11b82525afa91821561389c578c9261385d575b5061059160ff6136a0931687614054565b93888a16968b73eeeeeeeeeeeeeeeeeeeeeeeeeeeeeeeeeeeeeeee89146000146138495750348610613845578b9a89915b6005546040519182526001600160a01b03929092166004820152602481018890529b8c9160449183918e165af1998a156122fa578b9a613805575b509088889695949392816008541695604051998a987f3bb1374b000000000000000000000000000000000000000000000000000000008a5261ffff1660048a0152602489015260448801528b606488015216608486015260643560a486015261ffff1660c485015261ffff1660e48401523361010484015261012483015281885a9261014493f180156108d0576137d6575b505060045416803b15610853576040516363a6c98160e01b815233600482015260248101929092528290829081838160448101610827565b90809294503d83116137fe575b6137ed8183613ca6565b8101031261089f578291388061379e565b503d6137e3565b919a509850939291908685813d811161383e575b6138238183613ca6565b8101031261089f578a99888896519a9192939495965061370c565b503d613819565b8b80fd5b9a89916138588830338d613d8b565b6136d1565b91508882813d8311613895575b6138748183613ca6565b810103126138455761059160ff61388d6136a094614046565b93505061368f565b503d61386a565b6040513d8e823e3d90fd5b809b50888092503d83116138d3575b6138c08183613ca6565b8101031261089f5760048b9a5190613664565b503d6138b6565b93985050509181813d8311613918575b6138f48183613ca6565b81010312613845578b95613652928c61390d8c94614032565b98909192939461360f565b503d6138ea565b80929c50898092503d831161394b575b6139398183613ca6565b8101031261089f57518b9a90886135ce565b503d61392f565b610ad89150883d8a11610ade57610ad08183613ca6565b61397e9196503d808c833e610afa8183613ca6565b9438613516565b50346103375760203660031901126103375761399f614675565b6139a7613d38565b6007546040517f189a4b760000000000000000000000000000000000000000000000000000000081526004803590820152336024820152906001600160a01b03906060908390831681868160448101610276565b503461033757604036600319011261033757600435816024613a1b613c49565b613a23613d38565b613a2c816148ef565b6001600160a01b0390838260085416604051948580926322bc934560e11b82528960048301525afa9283156108ac578493613b54575b50613a7b6101609161ffff6101a08601519116906148cb565b920181838183511673eeeeeeeeeeeeeeeeeeeeeeeeeeeeeeeeeeeeeeee8114600014613b3f575050508380848015613b35575b8280929181923390f1156102d65781613acc915b511683338761471c565b60085416803b1561348f576040517f043ab622000000000000000000000000000000000000000000000000000000008152600481019490945233602485015260448401919091528290606490829084905af1801561084857613b2c575080f35b6112dd90613c7c565b6108fc9150613aae565b613acc9391613b4f913390614354565b613ac2565b610160919350613b70613a7b913d8088833e610afa8183613ca6565b939150613a62565b503461033757606036600319011261033757613b92613c07565b613b9a613c1d565b613ba2613c33565b613baa613ce0565b613bb2614675565b6001600160a01b038092816001600160a01b0319951685600654161760065516836004541617600455169060055416176005556001805580f35b905034611b8d5781600319360112611b8d5780606560209252f35b600435906001600160a01b038216820361089f57565b602435906001600160a01b038216820361089f57565b604435906001600160a01b038216820361089f57565b6024359061ffff8216820361089f57565b6084359061ffff8216820361089f57565b60a4359061ffff8216820361089f57565b67ffffffffffffffff8111613c9057604052565b634e487b7160e01b600052604160045260246000fd5b90601f8019910116810190811067ffffffffffffffff821117613c9057604052565b67ffffffffffffffff8111613c905760051b60200190565b6001600160a01b03600254163303613cf457565b606460405162461bcd60e51b815260206004820152602060248201527f4f776e61626c653a2063616c6c6572206973206e6f7420746865206f776e65726044820152fd5b60ff60035460a01c16613d4757565b606460405162461bcd60e51b815260206004820152601060248201527f5061757361626c653a20706175736564000000000000000000000000000000006044820152fd5b6040517f23b872dd0000000000000000000000000000000000000000000000000000000060208201526001600160a01b0392831660248201529290911660448301526064820192909252613df591613df082608481015b03601f198101845283613ca6565b613e0f565b565b9081602091031261089f5751801515810361089f5790565b6001600160a01b039092919216604051604081019367ffffffffffffffff9482811086821117613c90576040526020928383527f5361666545524332303a206c6f772d6c6576656c2063616c6c206661696c6564848401526000808386829551910182855af1903d15613f52573d968711613f3e57613eaf94959660405190613ea188601f19601f8401160183613ca6565b81528093873d92013e613f5f565b80519081613ebc57505050565b8280613ecc938301019101613df7565b15613ed45750565b6084906040519062461bcd60e51b82526004820152602a60248201527f5361666545524332303a204552433230206f7065726174696f6e20646964206e60448201527f6f742073756363656564000000000000000000000000000000000000000000006064820152fd5b602483634e487b7160e01b81526041600452fd5b9150613eaf939495506060915b91929015613fc05750815115613f73575090565b3b15613f7c5790565b606460405162461bcd60e51b815260206004820152601d60248201527f416464726573733a2063616c6c20746f206e6f6e2d636f6e74726163740000006044820152fd5b825190915015613fd35750805190602001fd5b6040519062461bcd60e51b82528160208060048301528251908160248401526000935b828510614019575050604492506000838284010152601f80199101168101030190fd5b8481018201518686016044015293810193859350613ff6565b51906001600160a01b038216820361089f57565b519060ff8216820361089f57565b906001600160a01b0380911691821561406c57160490565b634e487b7160e01b600052601260045260246000fd5b519061ffff8216820361089f57565b602091828282031261089f57815167ffffffffffffffff9283821161089f5701916101e093848484031261089f5760405194850185811083821117613c90576040528351855280840151600281101561089f57818601526140f460408501614032565b6040860152606084015160608601526080840151608086015260a084015160a086015261412360c08501614082565b60c086015260e084015160e0860152610100808501519086015261012061414b818601614032565b90860152610140918285015190811161089f5784019280601f8501121561089f57835161417781613cc8565b946141856040519687613ca6565b818652838087019260051b82010192831161089f578301905b8282106141eb57505050508301526101606141ba818301614032565b9083015261018080820151908301526101a080820151908301526101c08091015190600282101561089f5782015290565b8380916141f784614032565b81520191019061419e565b1561420957565b606460405162461bcd60e51b815260206004820152601c60248201527f4552525f434f4c4c41544552414c5f4e4f545f535550504f52544544000000006044820152fd5b6002111561425757565b634e487b7160e01b600052602160045260246000fd5b9a96928b98949a96929d9c9995919d6101808a019e8a5261428d8161424d565b60208a01526001600160a01b039a8b998a80931690604001521660608c015260808b015260a08a015260c089015260e088015261ffff166101008701526101208601521661014084015216906101600152565b9995919b9a97939894909b9692966101808b019c8b526142ff8161424d565b60208b01526001600160a01b0380998180991660408d01521660608b015260808a015260a089015260c088015260e087015261ffff166101008601526101208501600090521661014084015216906101600152565b6040517fa9059cbb0000000000000000000000000000000000000000000000000000000060208201526001600160a01b0390921660248301526044820192909252613df591613df08260648101613de2565b80916101c0928391031261089f5760405191820182811067ffffffffffffffff821117613c9057604052805182526020810151600481101561089f5760208301526143f360408201614082565b604083015261440460608201614082565b60608301526080810151608083015260a081015160a083015260c081015160c083015261443360e08201614032565b60e08301526101008082015190830152610120614451818301614032565b9083015261014080820151908301526101608082015190830152610180614479818301614032565b908301526101a08091015190600282101561089f5782015290565b1561449b57565b606460405162461bcd60e51b815260206004820152601060248201527f4552525f524551554553545f54595045000000000000000000000000000000006044820152fd5b80916102c0928391031261089f5760405191820182811067ffffffffffffffff821117613c9057604052805182526020810151600481101561089f57602083015261452c60408201614032565b604083015261453d60608201614032565b60608301526080810151608083015260a081015160a083015260c081015160c083015260e081015160e083015261010080820151908301526101208082015190830152610140808201519083015261016080820151908301526101806145a4818301614082565b908301526101a06145b6818301614046565b908301526101c080820151908301526101e08082015190830152610200808201519083015261022080820151908301526102408082015190830152610260808201519083015261028061460a818301614032565b9083015261461c6102a0809201614032565b9082015290565b9190820391821161463057565b634e487b7160e01b600052601160045260246000fd5b9190820180921161463057565b9081606091031261089f57805191614672604060208401519301614032565b90565b600260015414614686576002600155565b606460405162461bcd60e51b815260206004820152601f60248201527f5265656e7472616e637947756172643a207265656e7472616e742063616c6c006044820152fd5b907f8a8cb0fe37d0c19cc9895f868058c082887e682f711d8492ab309eb12e9f29df9260a09260405192606484524260208501526001600160a01b0380921660408501521660608301526080820152a1565b907f1b89f92faead76d76eeb15b01f4ca1cff0fcbad53196805a290812426389ea7e9360e093600160005401938460005560405194855260208501526001600160a01b0380931660408501526060840152166080820152600360a08201524260c0820152a1565b907f1b89f92faead76d76eeb15b01f4ca1cff0fcbad53196805a290812426389ea7e9360e093600160005401938460005560405194855260208501526001600160a01b0380931660408501526060840152166080820152600160a08201524260c0820152a1565b907f1b89f92faead76d76eeb15b01f4ca1cff0fcbad53196805a290812426389ea7e9360e093600160005401938460005560405194855260208501526001600160a01b0380931660408501526060840152166080820152600260a08201524260c0820152a1565b907f1b89f92faead76d76eeb15b01f4ca1cff0fcbad53196805a290812426389ea7e9360e093600160005401938460005560405194855260208501526001600160a01b0380931660408501526060840152166080820152600060a08201524260c0820152a1565b8181029291811591840414171561463057565b906001600160a01b031680156148eb576148e7906064926148b8565b0490565b5090565b61ffff8091166064811161494c57601990061661490857565b606460405162461bcd60e51b815260206004820152600e60248201527f4552525f50455243454e544147450000000000000000000000000000000000006044820152fd5b606460405162461bcd60e51b815260206004820152600f60248201527f4f5645525f50455243454e5441474500000000000000000000000000000000006044820152fdfea2646970667358221220a31756efd6d24243023de686db36fdd6363c37d8c6e00549392e2e8478be4e5a64736f6c63430008110033",
  "immutableReferences": {},
  "source": "// SPDX-License-Identifier: MIT\npragma solidity ^0.8.17;\n\nimport \"./LendingPoolProvider.sol\";\n\nimport \"./libraries/Errors.sol\";\n\nimport \"./math/SimpleInterest.sol\";\n\nimport \"./interfaces/IPriceFeed.sol\";\nimport \"./interfaces/IFeeManager.sol\";\nimport \"./interfaces/IOfferManager.sol\";\nimport \"./interfaces/ILoanManager.sol\";\nimport \"./interfaces/ILoanToValueRatio.sol\";\nimport \"./interfaces/IActivity.sol\";\n\nimport \"@openzeppelin/contracts/utils/Context.sol\";\nimport \"@openzeppelin/contracts/token/ERC20/ERC20.sol\";\nimport \"@openzeppelin/contracts/token/ERC20/utils/SafeERC20.sol\";\nimport \"@openzeppelin/contracts/security/ReentrancyGuard.sol\";\nimport \"@openzeppelin/contracts/access/Ownable2Step.sol\";\nimport \"@openzeppelin/contracts/security/Pausable.sol\";\nimport \"@openzeppelin/contracts/utils/math/SafeMath.sol\";\n\n/**\n * @title LendingPool contract\n * @dev Main point of interaction with the Zapster protocol's market\n * - Users can:\n *   # Create Lending/Borrowing offers\n *   # Request for new terms on offers\n *   # Repay (Fully/Installment)\n *   # Claim principal and earnings\n *   # Claim back collateral\n *   # Cancel/Reject/Accept requests\n * - All admin functions are callable by the deployer address\n * @author Lima\n **/\ncontract LendingPool is\n    LendingPoolProvider,\n    Context,\n    ReentrancyGuard,\n    SimpleInterest,\n    Ownable2Step,\n    Pausable\n{\n    using SafeMath for uint256;\n    using SafeERC20 for ERC20;\n\n    /// @dev contract version\n    uint256 public constant LENDINGPOOL_VERSION = 0x2;\n\n    IActivity private _activity;\n    IPriceFeed private _priceFeed;\n    ILoanToValueRatio private _ltvRatio;\n    ILoanManager private _loanManager;\n    IOfferManager private _offerManager;\n    IFeeManager private _feeManager;\n\n    /// @dev for convienency this address is used to represent BNB just like ERC20\n    address public constant nativeAddress =\n        0xEeeeeEeeeEeEeeEeEeEeeEEEeeeeEeeeeeeeEEeE;\n\n    constructor() ReentrancyGuard() Ownable2Step() {}\n\n    // ============= Create Lending / Borrowing Offer ============ //\n\n    /// @notice This function creates a new lending offer\n    /// @dev the principalAmount_ parameter is use for ERC20 tokens only\n    function createLendingOffer(\n        uint256 principalAmount_,\n        address principalToken,\n        address[] memory collateralTokens,\n        uint16 daysToMaturity,\n        uint256 interestRate,\n        uint16 daysToExpire\n    ) public payable whenNotPaused {\n        uint256 principalAmount;\n\n        /* extract tokens from lender */\n        if (principalToken == nativeAddress) {\n            principalAmount = msg.value;\n        } else {\n            principalAmount = principalAmount_;\n            ERC20(principalToken).safeTransferFrom(\n                _msgSender(),\n                address(this),\n                principalAmount\n            );\n        }\n\n        /* create the lending offer */\n        uint256 offerId = _offerManager.createLendingOffer(\n            principalToken,\n            principalAmount,\n            interestRate,\n            daysToMaturity,\n            daysToExpire,\n            collateralTokens,\n            _msgSender()\n        );\n\n        transfer(\n            offerId,\n            _msgSender(),\n            principalAmount,\n            principalToken,\n            Type.ADDED\n        );\n    }\n\n    /// @notice This function creates a new borrowing offer\n    function createBorrowingOffer(\n        address principalToken,\n        uint256 principalAmount,\n        address collateralToken,\n        uint256 interestRate,\n        uint16 daysToMaturity,\n        uint16 hoursToExpire\n    ) public payable whenNotPaused {\n        uint256 principalAmountInUSD = _priceFeed.amountInUSD(\n            principalToken,\n            principalAmount\n        );\n\n        uint160 ltvRatio = _ltvRatio.getRelativeLTV(\n            _msgSender(),\n            principalAmountInUSD\n        );\n\n        uint256 collateralNormalAmount = _priceFeed.exchangeRate(\n            principalToken,\n            collateralToken,\n            principalAmount\n        );\n\n        uint256 collateralAmount = percentageOf(\n            collateralNormalAmount,\n            ltvRatio / _ltvRatio.getBase()\n        );\n\n        if (collateralToken == nativeAddress) {\n            require(msg.value >= collateralAmount);\n        } else {\n            ERC20(collateralToken).safeTransferFrom(\n                _msgSender(),\n                address(this),\n                collateralAmount\n            );\n        }\n\n        _offerManager.createBorrowingOffer(\n            principalToken,\n            collateralToken,\n            collateralAmount,\n            principalAmount,\n            interestRate,\n            daysToMaturity,\n            hoursToExpire,\n            _msgSender()\n        );\n\n        uint256 amountInUSD = _priceFeed.amountInUSD(\n            collateralToken,\n            collateralAmount\n        );\n\n        _activity.dropCollateral(_msgSender(), amountInUSD);\n    }\n\n    // ============ Create Lending / Borrowing Request ============= //\n\n    /// @notice This function creates a new lending request on a borrowing offer\n    function createLendingRequest(\n        uint256 offerId,\n        uint16 percentage,\n        uint16 daysToMaturity,\n        uint256 interestRate,\n        uint16 hoursToExpire\n    ) public payable whenNotPaused {\n        checkPercentage(percentage);\n\n        OfferLibrary.Offer memory offer = _offerManager.getOffer(offerId);\n\n        uint256 principalAmount = percentageOf(\n            offer.initialPrincipal,\n            percentage\n        );\n\n        if (offer.principalToken == nativeAddress) {\n            require(msg.value >= principalAmount);\n        } else {\n            ERC20(offer.principalToken).safeTransferFrom(\n                _msgSender(),\n                address(this),\n                principalAmount\n            );\n        }\n\n        /* create the lending request */\n        _offerManager.createLendingRequest(\n            percentage,\n            interestRate,\n            daysToMaturity,\n            hoursToExpire,\n            _msgSender(),\n            offerId\n        );\n    }\n\n    /// @notice This function creates a new borrowing request on a lending offer\n    function createBorrowingRequest(\n        uint256 offerId,\n        uint16 percentage,\n        address collateralToken,\n        uint256 interestRate,\n        uint16 daysToMaturity,\n        uint16 hoursToExpire\n    ) public payable whenNotPaused {\n        checkPercentage(percentage);\n\n        OfferLibrary.Offer memory offer = _offerManager.getOffer(offerId);\n\n        require(\n            _offerManager.isCollateralSupported(offerId, collateralToken),\n            \"ERR_COLLATERAL_NOT_SUPPORTED\"\n        );\n\n        uint256 principalAmount = percentageOf(\n            offer.initialPrincipal,\n            percentage\n        );\n\n        uint256 principalPriceInUSD = _priceFeed.amountInUSD(\n            offer.principalToken,\n            principalAmount\n        );\n\n        uint160 ltvRatio = _ltvRatio.getRelativeLTV(\n            _msgSender(),\n            principalPriceInUSD\n        );\n\n        uint256 collateralNormalAmount = _priceFeed.exchangeRate(\n            offer.principalToken,\n            collateralToken,\n            principalAmount\n        );\n\n        uint256 collateralAmount = percentageOf(\n            collateralNormalAmount,\n            ltvRatio / _ltvRatio.getBase()\n        );\n\n        if (collateralToken == nativeAddress) {\n            require(collateralAmount >= msg.value);\n        } else {\n            ERC20(collateralToken).safeTransferFrom(\n                _msgSender(),\n                address(this),\n                collateralAmount\n            );\n        }\n\n        uint256 collateralPriceInUSD = _priceFeed.amountInUSD(\n            collateralToken,\n            collateralAmount\n        );\n\n        _offerManager.createBorrowingRequest(\n            percentage,\n            collateralToken,\n            collateralAmount,\n            collateralPriceInUSD,\n            ltvRatio,\n            interestRate,\n            daysToMaturity,\n            hoursToExpire,\n            _msgSender(),\n            offerId\n        );\n\n        _activity.dropCollateral(_msgSender(), collateralPriceInUSD);\n    }\n\n    // ============ Accept Lending / Borrowing Offer =============== //\n\n    /// @notice This function accepts a borrowing offer | LEND\n    /// @dev The percentage params specifies the portion of the offer to accept\n    function acceptBorrowingOffer(uint256 offerId, uint16 percentage)\n        public\n        payable\n        whenNotPaused\n    {\n        checkPercentage(percentage);\n\n        OfferLibrary.Offer memory offer = _offerManager.getOffer(offerId);\n\n        uint256 collateralAmount = percentageOf(\n            offer.initialCollateral,\n            percentage\n        );\n\n        uint256 principalAmount = percentageOf(\n            offer.initialPrincipal,\n            percentage\n        );\n\n        if (offer.principalToken == nativeAddress) {\n            require(msg.value >= principalAmount);\n        } else {\n            ERC20(offer.principalToken).safeTransferFrom(\n                _msgSender(),\n                address(this),\n                principalAmount\n            );\n        }\n\n        transfer(\n            offerId,\n            _msgSender(),\n            principalAmount,\n            offer.principalToken,\n            Type.ADDED\n        );\n\n        transfer(\n            offerId,\n            offer.creator,\n            collateralAmount,\n            offer.collateralToken,\n            Type.LOCKED\n        );\n\n        uint256 collateralPriceInUSD = _priceFeed.amountInUSD(\n            offer.collateralToken,\n            collateralAmount\n        );\n\n        _loanManager.createLoan(\n            offer.offerId,\n            offer.offerType,\n            offer.principalToken,\n            offer.collateralToken,\n            principalAmount,\n            collateralAmount,\n            collateralPriceInUSD,\n            offer.interestRate,\n            offer.daysToMaturity,\n            principalAmount,\n            offer.creator,\n            _msgSender()\n        );\n\n        _offerManager.afterBorrowingLoan(\n            offerId,\n            principalAmount,\n            collateralAmount\n        );\n\n        uint256 borrowedAmountInUSD = _priceFeed.amountInUSD(\n            offer.principalToken,\n            principalAmount\n        );\n\n        _activity.borrowLoan(_msgSender(), offer.creator, borrowedAmountInUSD);\n    }\n\n    /// @notice This function accepts a lending offer | BORROW\n    /// @dev The percentage params specifies the portion of the offer to accept\n    function acceptLendingOffer(\n        uint256 offerId,\n        uint16 percentage,\n        address collateralToken\n    ) public payable whenNotPaused {\n        checkPercentage(percentage);\n\n        OfferLibrary.Offer memory offer = _offerManager.getOffer(offerId);\n\n        require(\n            _offerManager.isCollateralSupported(offerId, collateralToken),\n            \"ERR_COLLATERAL_NOT_SUPPORTED\"\n        );\n\n        uint256 principalAmount = percentageOf(\n            offer.initialPrincipal,\n            percentage\n        );\n\n        uint256 principalPriceInUSD = _priceFeed.amountInUSD(\n            offer.principalToken,\n            principalAmount\n        );\n\n        uint160 ltvRatio = _ltvRatio.getRelativeLTV(\n            _msgSender(),\n            principalPriceInUSD\n        );\n\n        /* calculate the collateral amount */\n        uint256 collateralNormalAmount = _priceFeed.exchangeRate(\n            offer.principalToken,\n            collateralToken,\n            principalAmount\n        );\n\n        uint256 collateralAmount = percentageOf(\n            collateralNormalAmount,\n            ltvRatio / _ltvRatio.getBase()\n        );\n\n        if (collateralToken == nativeAddress) {\n            require(collateralAmount >= msg.value, \"ERR_COLLATERAL_AMOUNT\");\n        } else {\n            ERC20(collateralToken).safeTransferFrom(\n                _msgSender(),\n                address(this),\n                collateralAmount\n            );\n        }\n\n        transfer(\n            offerId,\n            _msgSender(),\n            collateralAmount,\n            collateralToken,\n            Type.LOCKED\n        );\n\n        if (offer.principalToken == nativeAddress) {\n            payable(_msgSender()).transfer(principalAmount);\n        } else {\n            ERC20(offer.principalToken).safeTransfer(\n                _msgSender(),\n                principalAmount\n            );\n        }\n\n        transfer(\n            offerId,\n            _msgSender(),\n            principalAmount,\n            offer.principalToken,\n            Type.CLAIMED\n        );\n\n        uint256 collateralPriceInUSD = _priceFeed.amountInUSD(\n            collateralToken,\n            collateralAmount\n        );\n\n        _loanManager.createLoan(\n            offerId,\n            offer.offerType,\n            offer.principalToken,\n            collateralToken,\n            principalAmount,\n            collateralAmount,\n            collateralPriceInUSD,\n            offer.interestRate,\n            offer.daysToMaturity,\n            0,\n            _msgSender(),\n            offer.creator\n        );\n\n        _offerManager.afterLendingLoan(offerId, principalAmount);\n\n        uint256 amountBorrowedInUSD = _priceFeed.amountInUSD(\n            offer.principalToken,\n            principalAmount\n        );\n\n        _activity.borrowLoan(offer.creator, _msgSender(), amountBorrowedInUSD);\n\n        _activity.dropCollateral(_msgSender(), collateralPriceInUSD);\n    }\n\n    // =========== Withdraw From Offer ============== //\n    function removePrincipal(uint256 offerId, uint16 percentage)\n        public\n        whenNotPaused\n    {\n        checkPercentage(percentage);\n        OfferLibrary.Offer memory offer = _offerManager.getOffer(offerId);\n\n        uint256 principalAmount = percentageOf(\n            offer.initialPrincipal,\n            percentage\n        );\n\n        if (offer.principalToken == nativeAddress) {\n            payable(_msgSender()).transfer(principalAmount);\n        } else {\n            ERC20(offer.principalToken).safeTransfer(\n                _msgSender(),\n                principalAmount\n            );\n        }\n\n        transfer(\n            offerId,\n            _msgSender(),\n            principalAmount,\n            offer.principalToken,\n            Type.REMOVED\n        );\n\n        _offerManager.removePrincipal(offerId, _msgSender(), principalAmount);\n    }\n\n    function removeCollateral(uint256 offerId, uint16 percentage)\n        public\n        whenNotPaused\n    {\n        checkPercentage(percentage);\n        OfferLibrary.Offer memory offer = _offerManager.getOffer(offerId);\n\n        uint256 collateralAmount = percentageOf(\n            offer.initialCollateral,\n            percentage\n        );\n\n        if (offer.collateralToken == nativeAddress) {\n            payable(_msgSender()).transfer(collateralAmount);\n        } else {\n            ERC20(offer.collateralToken).safeTransfer(\n                _msgSender(),\n                collateralAmount\n            );\n        }\n\n        transfer(\n            offerId,\n            _msgSender(),\n            collateralAmount,\n            offer.collateralToken,\n            Type.REMOVED\n        );\n\n        _offerManager.removeCollateral(offerId, _msgSender(), collateralAmount);\n    }\n\n    // ============ Accept Lending / Borrowing Request =============== //\n\n    /// @notice This funcion accepts a borrowing request placed on a lender's offer\n    function acceptBorrowingRequest(uint256 requestId) public whenNotPaused {\n        RequestLibrary.Request memory request = _offerManager.getRequest(\n            requestId\n        );\n\n        require(\n            request.requestType == RequestLibrary.Type.BORROWING_REQUEST,\n            \"ERR_REQUEST_TYPE\"\n        );\n\n        OfferLibrary.Offer memory offer = _offerManager.getOffer(\n            request.offerId\n        );\n\n        uint256 principalAmount = percentageOf(\n            offer.initialPrincipal,\n            request.percentage\n        );\n\n        transfer(\n            request.offerId,\n            request.creator,\n            request.collateralAmount,\n            request.collateralToken,\n            Type.LOCKED\n        );\n\n        _loanManager.createLoan(\n            request.offerId,\n            offer.offerType,\n            offer.principalToken,\n            request.collateralToken,\n            principalAmount,\n            request.collateralAmount,\n            request.collateralPriceInUSD,\n            request.interestRate,\n            request.daysToMaturity,\n            principalAmount,\n            request.creator,\n            _msgSender()\n        );\n\n        notify(_msgSender(), request.creator, ACCEPT_REQUEST, request.offerId);\n\n        _offerManager.afterLendingLoan(request.offerId, principalAmount);\n        _offerManager.acceptRequest(requestId, _msgSender());\n\n        uint256 amountBorrowedInUSD = _priceFeed.amountInUSD(\n            offer.principalToken,\n            principalAmount\n        );\n\n        _activity.borrowLoan(\n            _msgSender(),\n            request.creator,\n            amountBorrowedInUSD\n        );\n    }\n\n    /// @notice This funcion accepts a lending request placed on a borrower's offer\n    function acceptLendingRequest(uint256 requestId)\n        public\n        payable\n        whenNotPaused\n    {\n        RequestLibrary.Request memory request = _offerManager.getRequest(\n            requestId\n        );\n\n        require(\n            request.requestType == RequestLibrary.Type.LENDING_REQUEST,\n            \"ERR_REQUEST_TYPE\"\n        );\n\n        OfferLibrary.Offer memory offer = _offerManager.getOffer(\n            request.offerId\n        );\n\n        uint256 collateralAmount = percentageOf(\n            offer.initialCollateral,\n            request.percentage\n        );\n\n        uint256 principalAmount = percentageOf(\n            offer.initialPrincipal,\n            request.percentage\n        );\n\n        transfer(\n            request.offerId,\n            _msgSender(),\n            collateralAmount,\n            offer.collateralToken,\n            Type.LOCKED\n        );\n\n        if (offer.principalToken == nativeAddress) {\n            payable(_msgSender()).transfer(principalAmount);\n        } else {\n            ERC20(offer.principalToken).safeTransfer(\n                _msgSender(),\n                principalAmount\n            );\n        }\n\n        transfer(\n            request.offerId,\n            _msgSender(),\n            principalAmount,\n            offer.principalToken,\n            Type.CLAIMED\n        );\n\n        notify(_msgSender(), request.creator, ACCEPT_REQUEST, request.offerId);\n\n        uint256 collateralPriceInUSD = _priceFeed.amountInUSD(\n            offer.collateralToken,\n            collateralAmount\n        );\n\n        _loanManager.createLoan(\n            request.offerId,\n            offer.offerType,\n            offer.principalToken,\n            offer.collateralToken,\n            principalAmount,\n            collateralAmount,\n            collateralPriceInUSD,\n            request.interestRate,\n            request.daysToMaturity,\n            0,\n            _msgSender(),\n            request.creator\n        );\n\n        _offerManager.afterBorrowingLoan(\n            offer.offerId,\n            principalAmount,\n            collateralAmount\n        );\n\n        _offerManager.acceptRequest(requestId, _msgSender());\n\n        uint256 amountBorrowedInUSD = _priceFeed.amountInUSD(\n            offer.principalToken,\n            principalAmount\n        );\n\n        _activity.borrowLoan(\n            request.creator,\n            _msgSender(),\n            amountBorrowedInUSD\n        );\n    }\n\n    // ============= ReActivating Lending / Borrowing Offer ============= //\n\n    /// @notice This function will reactivate a offer when they expires\n    function reActivateOffer(uint256 offerId, uint16 toExpire)\n        public\n        whenNotPaused\n    {\n        _offerManager.reActivateOffer(offerId, toExpire, _msgSender());\n    }\n\n    // =============== Loan Repayment ============= //\n\n    /// @notice This function is use to repay a loan\n    /// @dev The percentage params specifies the portion to be repaid\n    function repayLoan(uint256 loanId, uint16 percentage)\n        public\n        payable\n        whenNotPaused\n    {\n        checkPercentage(percentage);\n\n        LoanLibrary.Loan memory loan = _loanManager.getLoan(loanId);\n\n        require(loan.borrower == _msgSender(), \"ERR_NOT_BORROWER\");\n\n        uint256 time = block.timestamp;\n        uint256 ellapsedSecs = (time - loan.startDate);\n\n        uint256 principalAmount = percentageOf(\n            loan.initialPrincipal,\n            percentage\n        );\n\n        uint256 collateralAmount = percentageOf(\n            loan.initialCollateral,\n            percentage\n        );\n\n        uint256 repaymentPrincipal = getFullInterestAmount(\n            principalAmount,\n            ellapsedSecs,\n            loan.interestRate\n        );\n\n        uint256 interestPaid = (repaymentPrincipal - principalAmount);\n        uint256 fee = percentageOf(interestPaid, _feeManager.feePercentage());\n\n        uint256 unClaimedInterest = (interestPaid - fee);\n\n        _feeManager.credit(loan.principalToken, fee);\n\n        bool completed = _loanManager.repayLoan(\n            loanId,\n            unClaimedInterest,\n            principalAmount,\n            collateralAmount\n        );\n\n        if (loan.principalToken == nativeAddress) {\n            require(msg.value >= repaymentPrincipal);\n        } else {\n            ERC20(loan.principalToken).safeTransferFrom(\n                _msgSender(),\n                address(this),\n                repaymentPrincipal\n            );\n        }\n\n        transfer(\n            loan.offerId,\n            _msgSender(),\n            principalAmount.add(unClaimedInterest),\n            loan.principalToken,\n            Type.ADDED\n        );\n\n        uint256 interestPaidInUSD = _priceFeed.amountInUSD(\n            loan.principalToken,\n            (repaymentPrincipal - principalAmount)\n        );\n\n        notify(_msgSender(), loan.lender, REPAID_LOAN, loan.offerId);\n\n        _activity.repayLoan(\n            loan.lender,\n            _msgSender(),\n            interestPaidInUSD,\n            completed\n        );\n    }\n\n    /// @notice This function is use to repay a liquidated loan\n    /// @dev Liquidated loans cannot be repaid by percentage\n    function repayLiquidatedLoan(uint256 loanId) public payable whenNotPaused {}\n\n    // =========== Cancel / Reject Request Functions =========== //\n\n    /// @notice This function will reject a request\n    /// @dev Request can only be rejected by the offer creator\n    function rejectRequest(uint256 requestId) public whenNotPaused {\n        _offerManager.rejectRequest(requestId, _msgSender());\n        RequestLibrary.Request memory request = _offerManager.getRequest(\n            requestId\n        );\n        notify(_msgSender(), request.creator, REJECT_REQUEST, request.offerId);\n    }\n\n    /// @notice This function will cancel a request\n    /// @dev Request can only be calncelled by the request creator\n    function cancelRequest(uint256 requestId) public whenNotPaused {\n        RequestLibrary.Request memory request = _offerManager.getRequest(\n            requestId\n        );\n\n        OfferLibrary.Offer memory offer = _offerManager.getOffer(\n            request.offerId\n        );\n\n        if (request.requestType == RequestLibrary.Type.LENDING_REQUEST) {\n            uint256 principalAmount = percentageOf(\n                offer.initialPrincipal,\n                request.percentage\n            );\n\n            if (offer.principalToken == nativeAddress) {\n                payable(_msgSender()).transfer(principalAmount);\n            } else {\n                ERC20(offer.principalToken).safeTransfer(\n                    _msgSender(),\n                    principalAmount\n                );\n            }\n        } else {\n            if (request.collateralToken == nativeAddress) {\n                payable(_msgSender()).transfer(request.collateralAmount);\n            } else {\n                ERC20(request.collateralToken).safeTransfer(\n                    _msgSender(),\n                    request.collateralAmount\n                );\n            }\n        }\n\n        _offerManager.cancelRequest(requestId, _msgSender());\n    }\n\n    // =========== Claim Functions =========== //\n\n    /// @notice This function is use to claim back unlocked collateral from a loan\n    /// @dev Can only be called by the borrower\n    function claimCollateral(uint256 loanId) public nonReentrant whenNotPaused {\n        (uint256 amount, uint256 offerId, address token) = _loanManager\n            .claimCollateral(loanId, _msgSender());\n\n        if (token == nativeAddress) {\n            payable(_msgSender()).transfer(amount);\n        } else {\n            ERC20(token).safeTransfer(_msgSender(), amount);\n        }\n\n        transfer(offerId, _msgSender(), amount, token, Type.CLAIMED);\n    }\n\n    /// @notice This function is use to claim borrowed loan principal\n    /// @dev Can only be called by the borrower\n    function claimBorrowedPrincipal(uint256 loanId)\n        public\n        nonReentrant\n        whenNotPaused\n    {\n        (uint256 amount, uint256 offerId, address token) = _loanManager\n            .claimBorrowedPrincipal(loanId, _msgSender());\n\n        if (token == nativeAddress) {\n            payable(_msgSender()).transfer(amount);\n        } else {\n            ERC20(token).safeTransfer(_msgSender(), amount);\n        }\n\n        transfer(offerId, _msgSender(), amount, token, Type.CLAIMED);\n    }\n\n    /// @notice This function is use to claim back repaid principal + interests from a loan\n    /// @dev Can only be called by the lender\n    function claimPrincipal(uint256 loanId) public nonReentrant whenNotPaused {\n        (uint256 amount, uint256 offerId, address token) = _loanManager\n            .claimPrincipal(loanId, _msgSender());\n\n        if (token == nativeAddress) {\n            payable(_msgSender()).transfer(amount);\n        } else {\n            ERC20(token).safeTransfer(_msgSender(), amount);\n        }\n\n        transfer(offerId, _msgSender(), amount, token, Type.CLAIMED);\n    }\n\n    /// @notice This function is use to claim defaulted loan collateral\n    /// @dev Can only be called by the lender\n    function claimDefaultCollateral(uint256 loanId)\n        public\n        nonReentrant\n        whenNotPaused\n    {\n        (uint256 amount, uint256 offerId, address token) = _loanManager\n            .claimDefaultCollateral(loanId, _msgSender());\n\n        if (token == nativeAddress) {\n            payable(_msgSender()).transfer(amount);\n        } else {\n            ERC20(token).safeTransfer(_msgSender(), amount);\n        }\n\n        transfer(offerId, _msgSender(), amount, token, Type.CLAIMED);\n    }\n\n    // =========== Loan Liquidation ============= //\n\n    /// @dev this function will liquidate a loan when it has pass\n    /// maturity date + grace days.\n    /// It can be call by anyone\n    function liquidateLoan(uint256 loanId) public nonReentrant {\n        LoanLibrary.Loan memory loan = _loanManager.getLoan(loanId);\n\n        // calculate the duration of the loan\n        uint256 time = block.timestamp;\n        uint256 ellapsedSecs = (time - loan.startDate);\n\n        uint256 repaymentPrincipal = getFullInterestAmount(\n            loan.currentPrincipal,\n            ellapsedSecs,\n            loan.interestRate\n        );\n\n        uint256 repaymentCollateral = _priceFeed.exchangeRate(\n            loan.principalToken,\n            loan.collateralToken,\n            repaymentPrincipal\n        );\n\n        uint256 interestInCollateral = _priceFeed.exchangeRate(\n            loan.principalToken,\n            loan.collateralToken,\n            (repaymentPrincipal - loan.currentPrincipal)\n        );\n\n        uint256 principalPaid;\n        uint256 collateralRetrieved;\n        uint256 collateralFee;\n\n        uint256 fee = percentageOf(\n            interestInCollateral,\n            _feeManager.feePercentage()\n        );\n\n        if (loan.currentCollateral >= (repaymentCollateral - fee)) {\n            collateralRetrieved = (repaymentCollateral - fee);\n            principalPaid = loan.currentPrincipal;\n\n            if (loan.currentCollateral >= repaymentCollateral) {\n                collateralFee = fee;\n            } else {\n                collateralRetrieved = loan.currentCollateral;\n                collateralFee = (loan.currentCollateral -\n                    (repaymentCollateral - fee));\n            }\n        } else {\n            collateralRetrieved = loan.currentCollateral;\n\n            uint256 collateralInPrincipal = _priceFeed.exchangeRate(\n                loan.collateralToken,\n                loan.principalToken,\n                collateralRetrieved\n            );\n\n            principalPaid = collateralInPrincipal;\n            collateralFee = 0;\n        }\n\n        notify(_msgSender(), loan.borrower, LIQUIDATION, loan.offerId);\n\n        _feeManager.credit(loan.collateralToken, collateralFee);\n\n        _loanManager.liquidateLoan(\n            loanId,\n            principalPaid,\n            collateralRetrieved,\n            (collateralRetrieved - collateralFee)\n        );\n    }\n\n    // ============= ABOUT ============ //\n\n    function getVersion() public pure returns (uint256) {\n        return LENDINGPOOL_VERSION;\n    }\n\n    // ============= ADMIN FUNCTIONS =============== //\n\n    function setFeeds(\n        address ltv_,\n        address activity_,\n        address priceFeed_\n    ) public onlyOwner nonReentrant {\n        _ltvRatio = ILoanToValueRatio(ltv_);\n        _activity = IActivity(activity_);\n        _priceFeed = IPriceFeed(priceFeed_);\n    }\n\n    function setManagers(\n        address loanManager_,\n        address offerManager_,\n        address feeManager_\n    ) public onlyOwner nonReentrant {\n        _loanManager = ILoanManager(loanManager_);\n        _offerManager = IOfferManager(offerManager_);\n        _feeManager = IFeeManager(feeManager_);\n    }\n\n    /// @dev to claim developer revenue\n    function claim(\n        address token,\n        address payable receiver,\n        uint256 amount\n    ) public onlyOwner nonReentrant {\n        require(amount > 0, \"ERR_ZERO_AMOUNT\");\n        _feeManager.debit(token, amount);\n        if (token == nativeAddress) {\n            receiver.transfer(amount);\n        } else {\n            ERC20(token).safeTransfer(receiver, amount);\n        }\n    }\n}\n",
  "sourcePath": "/home/runner/smart-contracts/contracts/LendingPool.sol",
  "compiler": {
    "name": "solc",
    "version": "0.8.17+commit.8df45f5f.Emscripten.clang"
  },
  "schemaVersion": "3.4.13",
  "updatedAt": "2024-07-31T05:02:16.612Z",
  "networkType": "ethereum",
  "devdoc": {
    "author": "Lima*",
    "details": "Main point of interaction with the Zapster protocol's market - Users can:   # Create Lending/Borrowing offers   # Request for new terms on offers   # Repay (Fully/Installment)   # Claim principal and earnings   # Claim back collateral   # Cancel/Reject/Accept requests - All admin functions are callable by the deployer address",
    "kind": "dev",
    "methods": {
      "acceptBorrowingOffer(uint256,uint16)": {
        "details": "The percentage params specifies the portion of the offer to accept"
      },
      "acceptLendingOffer(uint256,uint16,address)": {
        "details": "The percentage params specifies the portion of the offer to accept"
      },
      "acceptOwnership()": {
        "details": "The new owner accepts the ownership transfer."
      },
      "cancelRequest(uint256)": {
        "details": "Request can only be calncelled by the request creator"
      },
      "claim(address,address,uint256)": {
        "details": "to claim developer revenue"
      },
      "claimBorrowedPrincipal(uint256)": {
        "details": "Can only be called by the borrower"
      },
      "claimCollateral(uint256)": {
        "details": "Can only be called by the borrower"
      },
      "claimDefaultCollateral(uint256)": {
        "details": "Can only be called by the lender"
      },
      "claimPrincipal(uint256)": {
        "details": "Can only be called by the lender"
      },
      "createLendingOffer(uint256,address,address[],uint16,uint256,uint16)": {
        "details": "the principalAmount_ parameter is use for ERC20 tokens only"
      },
      "liquidateLoan(uint256)": {
        "details": "this function will liquidate a loan when it has pass maturity date + grace days. It can be call by anyone"
      },
      "owner()": {
        "details": "Returns the address of the current owner."
      },
      "paused()": {
        "details": "Returns true if the contract is paused, and false otherwise."
      },
      "pendingOwner()": {
        "details": "Returns the address of the pending owner."
      },
      "rejectRequest(uint256)": {
        "details": "Request can only be rejected by the offer creator"
      },
      "renounceOwnership()": {
        "details": "Leaves the contract without owner. It will not be possible to call `onlyOwner` functions anymore. Can only be called by the current owner. NOTE: Renouncing ownership will leave the contract without an owner, thereby removing any functionality that is only available to the owner."
      },
      "repayLiquidatedLoan(uint256)": {
        "details": "Liquidated loans cannot be repaid by percentage"
      },
      "repayLoan(uint256,uint16)": {
        "details": "The percentage params specifies the portion to be repaid"
      },
      "transferOwnership(address)": {
        "details": "Starts the ownership transfer of the contract to a new account. Replaces the pending transfer if there is one. Can only be called by the current owner."
      }
    },
    "stateVariables": {
      "LENDINGPOOL_VERSION": {
        "details": "contract version"
      },
      "nativeAddress": {
        "details": "for convienency this address is used to represent BNB just like ERC20"
      }
    },
    "title": "LendingPool contract",
    "version": 1
  },
  "userdoc": {
    "kind": "user",
    "methods": {
      "acceptBorrowingOffer(uint256,uint16)": {
        "notice": "This function accepts a borrowing offer | LEND"
      },
      "acceptBorrowingRequest(uint256)": {
        "notice": "This funcion accepts a borrowing request placed on a lender's offer"
      },
      "acceptLendingOffer(uint256,uint16,address)": {
        "notice": "This function accepts a lending offer | BORROW"
      },
      "acceptLendingRequest(uint256)": {
        "notice": "This funcion accepts a lending request placed on a borrower's offer"
      },
      "cancelRequest(uint256)": {
        "notice": "This function will cancel a request"
      },
      "claimBorrowedPrincipal(uint256)": {
        "notice": "This function is use to claim borrowed loan principal"
      },
      "claimCollateral(uint256)": {
        "notice": "This function is use to claim back unlocked collateral from a loan"
      },
      "claimDefaultCollateral(uint256)": {
        "notice": "This function is use to claim defaulted loan collateral"
      },
      "claimPrincipal(uint256)": {
        "notice": "This function is use to claim back repaid principal + interests from a loan"
      },
      "createBorrowingOffer(address,uint256,address,uint256,uint16,uint16)": {
        "notice": "This function creates a new borrowing offer"
      },
      "createBorrowingRequest(uint256,uint16,address,uint256,uint16,uint16)": {
        "notice": "This function creates a new borrowing request on a lending offer"
      },
      "createLendingOffer(uint256,address,address[],uint16,uint256,uint16)": {
        "notice": "This function creates a new lending offer"
      },
      "createLendingRequest(uint256,uint16,uint16,uint256,uint16)": {
        "notice": "This function creates a new lending request on a borrowing offer"
      },
      "reActivateOffer(uint256,uint16)": {
        "notice": "This function will reactivate a offer when they expires"
      },
      "rejectRequest(uint256)": {
        "notice": "This function will reject a request"
      },
      "repayLiquidatedLoan(uint256)": {
        "notice": "This function is use to repay a liquidated loan"
      },
      "repayLoan(uint256,uint16)": {
        "notice": "This function is use to repay a loan"
      }
    },
    "version": 1
  }
}