{
  "contractName": "LoanToValueRatio",
  "abi": [
    {
      "inputs": [],
      "stateMutability": "nonpayable",
      "type": "constructor"
    },
    {
      "anonymous": false,
      "inputs": [
        {
          "indexed": true,
          "internalType": "address",
          "name": "previousOwner",
          "type": "address"
        },
        {
          "indexed": true,
          "internalType": "address",
          "name": "newOwner",
          "type": "address"
        }
      ],
      "name": "OwnershipTransferStarted",
      "type": "event"
    },
    {
      "anonymous": false,
      "inputs": [
        {
          "indexed": true,
          "internalType": "address",
          "name": "previousOwner",
          "type": "address"
        },
        {
          "indexed": true,
          "internalType": "address",
          "name": "newOwner",
          "type": "address"
        }
      ],
      "name": "OwnershipTransferred",
      "type": "event"
    },
    {
      "inputs": [],
      "name": "acceptOwnership",
      "outputs": [],
      "stateMutability": "nonpayable",
      "type": "function"
    },
    {
      "inputs": [],
      "name": "base",
      "outputs": [
        {
          "internalType": "uint8",
          "name": "",
          "type": "uint8"
        }
      ],
      "stateMutability": "view",
      "type": "function",
      "constant": true
    },
    {
      "inputs": [],
      "name": "owner",
      "outputs": [
        {
          "internalType": "address",
          "name": "",
          "type": "address"
        }
      ],
      "stateMutability": "view",
      "type": "function",
      "constant": true
    },
    {
      "inputs": [],
      "name": "pendingOwner",
      "outputs": [
        {
          "internalType": "address",
          "name": "",
          "type": "address"
        }
      ],
      "stateMutability": "view",
      "type": "function",
      "constant": true
    },
    {
      "inputs": [],
      "name": "renounceOwnership",
      "outputs": [],
      "stateMutability": "nonpayable",
      "type": "function"
    },
    {
      "inputs": [
        {
          "internalType": "address",
          "name": "newOwner",
          "type": "address"
        }
      ],
      "name": "transferOwnership",
      "outputs": [],
      "stateMutability": "nonpayable",
      "type": "function"
    },
    {
      "inputs": [],
      "name": "zapsterScorePrice0",
      "outputs": [
        {
          "internalType": "uint256",
          "name": "",
          "type": "uint256"
        }
      ],
      "stateMutability": "view",
      "type": "function",
      "constant": true
    },
    {
      "inputs": [],
      "name": "zapsterScorePrice1",
      "outputs": [
        {
          "internalType": "uint256",
          "name": "",
          "type": "uint256"
        }
      ],
      "stateMutability": "view",
      "type": "function",
      "constant": true
    },
    {
      "inputs": [],
      "name": "getBase",
      "outputs": [
        {
          "internalType": "uint8",
          "name": "",
          "type": "uint8"
        }
      ],
      "stateMutability": "pure",
      "type": "function",
      "constant": true
    },
    {
      "inputs": [
        {
          "internalType": "address",
          "name": "user",
          "type": "address"
        },
        {
          "internalType": "uint256",
          "name": "amount",
          "type": "uint256"
        }
      ],
      "name": "getRelativeLTV",
      "outputs": [
        {
          "internalType": "uint160",
          "name": "",
          "type": "uint160"
        }
      ],
      "stateMutability": "view",
      "type": "function",
      "constant": true
    },
    {
      "inputs": [
        {
          "internalType": "address",
          "name": "user",
          "type": "address"
        }
      ],
      "name": "getLTV",
      "outputs": [
        {
          "internalType": "uint160",
          "name": "",
          "type": "uint160"
        }
      ],
      "stateMutability": "view",
      "type": "function",
      "constant": true
    },
    {
      "inputs": [
        {
          "internalType": "address",
          "name": "trustScore_",
          "type": "address"
        },
        {
          "internalType": "uint160",
          "name": "minLTV_",
          "type": "uint160"
        },
        {
          "internalType": "uint160",
          "name": "maxLTV_",
          "type": "uint160"
        }
      ],
      "name": "setZapsterScore",
      "outputs": [],
      "stateMutability": "nonpayable",
      "type": "function"
    }
  ],
  "bytecode": "0x60808060405234610091576104b060018060a01b031980600154166001556000543382821617600055339060018060a01b03167f8be0079c531659141344cd1fd0a4f28419497f9722a3daafe3b4186f6b6457e0600080a36103e88160035416176003556004541617600455683635c9adc5dea0000060055568a2a15d09519be000006006556106e790816100978239f35b600080fdfe6080604090808252600436101561001557600080fd5b600091823560e01c9182633bdbac241461044e575081635001f3b51461014d5781636f8c077514610366578163715018a6146102f757816379ba5097146102155781638a83f8cc146101e45781638da5cb5b146101be578163aca25f9a14610188578163c6910a2b14610169578163d104a1361461014d578163e30c397814610121575063f2fde38b146100a857600080fd5b3461011e57602036600319011261011e576100c161046a565b6100c9610485565b6001600160a01b03809116908173ffffffffffffffffffffffffffffffffffffffff1960015416176001558254167f38d16b8cac22d99fc7c124b9cd0de2d3fa1faef420bfe791d8c362d765e227008380a380f35b80fd5b9050346101495781600319360112610149576020906001600160a01b03600154169051908152f35b5080fd5b90503461014957816003193601126101495760209051600a8152f35b9050346101495781600319360112610149576020906005549051908152f35b905034610149576020366003190112610149576020906001600160a01b036101b66101b161046a565b6105a7565b915191168152f35b9050346101495781600319360112610149576001600160a01b0360209254169051908152f35b9050346101495780600319360112610149576020906001600160a01b036101b661020c61046a565b6024359061050e565b905034610149578160031936011261014957600154906001600160a01b0390338284160361028e575073ffffffffffffffffffffffffffffffffffffffff19809216600155825491339083161783553391167f8be0079c531659141344cd1fd0a4f28419497f9722a3daafe3b4186f6b6457e08380a380f35b6084905162461bcd60e51b815260206004820152602960248201527f4f776e61626c6532537465703a2063616c6c6572206973206e6f74207468652060448201527f6e6577206f776e657200000000000000000000000000000000000000000000006064820152fd5b823461011e578060031936011261011e57610310610485565b806001600160a01b0373ffffffffffffffffffffffffffffffffffffffff19806001541660015582549081168355167f8be0079c531659141344cd1fd0a4f28419497f9722a3daafe3b4186f6b6457e08280a380f35b9050346101495760603660031901126101495761038161046a565b602435906001600160a01b03918281169384820361044a576044359484861690818703610446576103b0610485565b101561040357506103ec836103c58193610584565b169473ffffffffffffffffffffffffffffffffffffffff1995866003541617600355610584565b168360045416176004551690600254161760025580f35b6064905162461bcd60e51b815260206004820152600760248201527f4552525f4c5456000000000000000000000000000000000000000000000000006044820152fd5b8780fd5b8580fd5b8390346101495781600319360112610149576020906006548152f35b600435906001600160a01b038216820361048057565b600080fd5b6001600160a01b0360005416330361049957565b606460405162461bcd60e51b815260206004820152602060248201527f4f776e61626c653a2063616c6c6572206973206e6f7420746865206f776e65726044820152fd5b9190916001600160a01b03808094169116019182116104f857565b634e487b7160e01b600052601160045260246000fd5b610517906105a7565b906006548111610573576005541061052c5790565b6001600160a01b03737fffffffffffffffffffffffffffffffffffffff61055c82600454168360035416906104dd565b60011c1680918316111561056e575090565b905090565b50506001600160a01b036004541690565b906001600160a01b0380921691600a83021691808304600a14901517156104f857565b6001600160a01b0390602082602481600254169360405194859384927fd47875d00000000000000000000000000000000000000000000000000000000084521660048301525afa9081156106a55760009161063f575b50908060045416908060035416809203928184116104f85761ffff829116931690838202169281840414901517156104f857606461063c9204906104dd565b90565b60203d811161069e575b601f8101601f1916820167ffffffffffffffff81118382101761068a5760209183916040528101031261014957519061ffff8216820361011e5750386105fd565b602484634e487b7160e01b81526041600452fd5b503d610649565b6040513d6000823e3d90fdfea26469706673582212200b1e4be23893173cd3286bdce13723433fed39ea057605d6b662714210bfd6a864736f6c63430008110033",
  "immutableReferences": {},
  "source": "// SPDX-License-Identifier: MIT\npragma solidity ^0.8.17;\n\nimport \"./interfaces/IZapsterScore.sol\";\nimport \"./interfaces/ILoanToValueRatio.sol\";\n\nimport \"@openzeppelin/contracts/access/Ownable2Step.sol\";\n\ncontract LoanToValueRatio is Ownable2Step, ILoanToValueRatio {\n    IZapsterScore private _zapsterScore;\n    uint8 public constant base = 10;\n\n    uint160 minLTV = 1000;\n    uint160 maxLTV = 1200;\n\n    uint256 public zapsterScorePrice0 = 1000 * 1e18;\n    uint256 public zapsterScorePrice1 = 3000 * 1e18;\n\n    constructor() Ownable2Step() {}\n\n    function getBase() public pure override returns (uint8) {\n        return base;\n    }\n\n    function getRelativeLTV(address user, uint256 amount)\n        public\n        view\n        override\n        returns (uint160)\n    {\n        uint160 ltvRatio = getLTV(user);\n\n        if (amount > zapsterScorePrice1) return maxLTV;\n\n        if (amount > zapsterScorePrice0) {\n            uint160 average = ((maxLTV + minLTV) / 2);\n            if (ltvRatio <= average) return average;\n        }\n\n        return ltvRatio;\n    }\n\n    function getLTV(address user) public view override returns (uint160) {\n        uint16 score = _zapsterScore.getScore(user);\n        uint160 range = maxLTV - minLTV;\n        uint160 scale = ((range * score) / 100);\n        return minLTV + scale;\n    }\n\n    function setZapsterScore(\n        address trustScore_,\n        uint160 minLTV_,\n        uint160 maxLTV_\n    ) public onlyOwner {\n        require(minLTV_ < maxLTV_, \"ERR_LTV\");\n        minLTV = minLTV_ * base;\n        maxLTV = maxLTV_ * base;\n\n        _zapsterScore = IZapsterScore(trustScore_);\n    }\n}\n",
  "sourcePath": "/home/runner/smart-contracts/contracts/LoanToValueRatio.sol",
  "compiler": {
    "name": "solc",
    "version": "0.8.17+commit.8df45f5f.Emscripten.clang"
  },
  "schemaVersion": "3.4.13",
  "updatedAt": "2024-07-31T05:01:52.439Z",
  "networkType": "ethereum",
  "devdoc": {
    "kind": "dev",
    "methods": {
      "acceptOwnership()": {
        "details": "The new owner accepts the ownership transfer."
      },
      "owner()": {
        "details": "Returns the address of the current owner."
      },
      "pendingOwner()": {
        "details": "Returns the address of the pending owner."
      },
      "renounceOwnership()": {
        "details": "Leaves the contract without owner. It will not be possible to call `onlyOwner` functions anymore. Can only be called by the current owner. NOTE: Renouncing ownership will leave the contract without an owner, thereby removing any functionality that is only available to the owner."
      },
      "transferOwnership(address)": {
        "details": "Starts the ownership transfer of the contract to a new account. Replaces the pending transfer if there is one. Can only be called by the current owner."
      }
    },
    "version": 1
  },
  "userdoc": {
    "kind": "user",
    "methods": {},
    "version": 1
  }
}