{
  "contractName": "LoanManager",
  "abi": [
    {
      "inputs": [],
      "stateMutability": "nonpayable",
      "type": "constructor"
    },
    {
      "anonymous": false,
      "inputs": [
        {
          "indexed": true,
          "internalType": "address",
          "name": "previousOwner",
          "type": "address"
        },
        {
          "indexed": true,
          "internalType": "address",
          "name": "newOwner",
          "type": "address"
        }
      ],
      "name": "OwnershipTransferStarted",
      "type": "event"
    },
    {
      "anonymous": false,
      "inputs": [
        {
          "indexed": true,
          "internalType": "address",
          "name": "previousOwner",
          "type": "address"
        },
        {
          "indexed": true,
          "internalType": "address",
          "name": "newOwner",
          "type": "address"
        }
      ],
      "name": "OwnershipTransferred",
      "type": "event"
    },
    {
      "inputs": [],
      "name": "DUST_AMOUNT",
      "outputs": [
        {
          "internalType": "uint256",
          "name": "",
          "type": "uint256"
        }
      ],
      "stateMutability": "view",
      "type": "function",
      "constant": true
    },
    {
      "inputs": [],
      "name": "ONE_DAY",
      "outputs": [
        {
          "internalType": "uint256",
          "name": "",
          "type": "uint256"
        }
      ],
      "stateMutability": "view",
      "type": "function",
      "constant": true
    },
    {
      "inputs": [],
      "name": "ONE_HOUR",
      "outputs": [
        {
          "internalType": "uint256",
          "name": "",
          "type": "uint256"
        }
      ],
      "stateMutability": "view",
      "type": "function",
      "constant": true
    },
    {
      "inputs": [],
      "name": "acceptOwnership",
      "outputs": [],
      "stateMutability": "nonpayable",
      "type": "function"
    },
    {
      "inputs": [
        {
          "internalType": "uint256",
          "name": "",
          "type": "uint256"
        }
      ],
      "name": "loans",
      "outputs": [
        {
          "internalType": "uint256",
          "name": "offerId",
          "type": "uint256"
        },
        {
          "internalType": "enum LoanLibrary.State",
          "name": "state",
          "type": "uint8"
        },
        {
          "internalType": "address",
          "name": "principalToken",
          "type": "address"
        },
        {
          "internalType": "address",
          "name": "collateralToken",
          "type": "address"
        },
        {
          "internalType": "uint256",
          "name": "initialPrincipal",
          "type": "uint256"
        },
        {
          "internalType": "uint256",
          "name": "currentPrincipal",
          "type": "uint256"
        },
        {
          "internalType": "uint256",
          "name": "initialCollateral",
          "type": "uint256"
        },
        {
          "internalType": "uint256",
          "name": "currentCollateral",
          "type": "uint256"
        },
        {
          "internalType": "uint256",
          "name": "collateralPriceInUSD",
          "type": "uint256"
        },
        {
          "internalType": "uint256",
          "name": "interestRate",
          "type": "uint256"
        },
        {
          "internalType": "uint256",
          "name": "startDate",
          "type": "uint256"
        },
        {
          "internalType": "uint256",
          "name": "maturityDate",
          "type": "uint256"
        },
        {
          "internalType": "uint16",
          "name": "graceDays",
          "type": "uint16"
        },
        {
          "internalType": "uint8",
          "name": "numInstallmentsPaid",
          "type": "uint8"
        },
        {
          "internalType": "uint256",
          "name": "unClaimedPrincipal",
          "type": "uint256"
        },
        {
          "internalType": "uint256",
          "name": "unClaimedCollateral",
          "type": "uint256"
        },
        {
          "internalType": "uint256",
          "name": "unClaimedDefaultCollateral",
          "type": "uint256"
        },
        {
          "internalType": "uint256",
          "name": "unClaimedBorrowedPrincipal",
          "type": "uint256"
        },
        {
          "internalType": "uint256",
          "name": "totalInterestPaid",
          "type": "uint256"
        },
        {
          "internalType": "uint256",
          "name": "repaidOn",
          "type": "uint256"
        },
        {
          "internalType": "address",
          "name": "borrower",
          "type": "address"
        },
        {
          "internalType": "address",
          "name": "lender",
          "type": "address"
        }
      ],
      "stateMutability": "view",
      "type": "function",
      "constant": true
    },
    {
      "inputs": [],
      "name": "owner",
      "outputs": [
        {
          "internalType": "address",
          "name": "",
          "type": "address"
        }
      ],
      "stateMutability": "view",
      "type": "function",
      "constant": true
    },
    {
      "inputs": [],
      "name": "pendingOwner",
      "outputs": [
        {
          "internalType": "address",
          "name": "",
          "type": "address"
        }
      ],
      "stateMutability": "view",
      "type": "function",
      "constant": true
    },
    {
      "inputs": [],
      "name": "renounceOwnership",
      "outputs": [],
      "stateMutability": "nonpayable",
      "type": "function"
    },
    {
      "inputs": [
        {
          "internalType": "address",
          "name": "newOwner",
          "type": "address"
        }
      ],
      "name": "transferOwnership",
      "outputs": [],
      "stateMutability": "nonpayable",
      "type": "function"
    },
    {
      "inputs": [
        {
          "internalType": "uint256",
          "name": "offerId",
          "type": "uint256"
        },
        {
          "internalType": "enum OfferLibrary.Type",
          "name": "offerType",
          "type": "uint8"
        },
        {
          "internalType": "address",
          "name": "principalToken",
          "type": "address"
        },
        {
          "internalType": "address",
          "name": "collateralToken",
          "type": "address"
        },
        {
          "internalType": "uint256",
          "name": "principalAmount",
          "type": "uint256"
        },
        {
          "internalType": "uint256",
          "name": "collateralAmount",
          "type": "uint256"
        },
        {
          "internalType": "uint256",
          "name": "collateralPriceInUSD",
          "type": "uint256"
        },
        {
          "internalType": "uint256",
          "name": "interestRate",
          "type": "uint256"
        },
        {
          "internalType": "uint16",
          "name": "daysToMaturity",
          "type": "uint16"
        },
        {
          "internalType": "uint256",
          "name": "unClaimedBorrowedPrincipal",
          "type": "uint256"
        },
        {
          "internalType": "address",
          "name": "borrower",
          "type": "address"
        },
        {
          "internalType": "address",
          "name": "lender",
          "type": "address"
        }
      ],
      "name": "createLoan",
      "outputs": [
        {
          "internalType": "uint256",
          "name": "",
          "type": "uint256"
        }
      ],
      "stateMutability": "nonpayable",
      "type": "function"
    },
    {
      "inputs": [
        {
          "internalType": "uint256",
          "name": "loanId",
          "type": "uint256"
        }
      ],
      "name": "getLoan",
      "outputs": [
        {
          "components": [
            {
              "internalType": "uint256",
              "name": "offerId",
              "type": "uint256"
            },
            {
              "internalType": "enum LoanLibrary.State",
              "name": "state",
              "type": "uint8"
            },
            {
              "internalType": "address",
              "name": "principalToken",
              "type": "address"
            },
            {
              "internalType": "address",
              "name": "collateralToken",
              "type": "address"
            },
            {
              "internalType": "uint256",
              "name": "initialPrincipal",
              "type": "uint256"
            },
            {
              "internalType": "uint256",
              "name": "currentPrincipal",
              "type": "uint256"
            },
            {
              "internalType": "uint256",
              "name": "initialCollateral",
              "type": "uint256"
            },
            {
              "internalType": "uint256",
              "name": "currentCollateral",
              "type": "uint256"
            },
            {
              "internalType": "uint256",
              "name": "collateralPriceInUSD",
              "type": "uint256"
            },
            {
              "internalType": "uint256",
              "name": "interestRate",
              "type": "uint256"
            },
            {
              "internalType": "uint256",
              "name": "startDate",
              "type": "uint256"
            },
            {
              "internalType": "uint256",
              "name": "maturityDate",
              "type": "uint256"
            },
            {
              "internalType": "uint16",
              "name": "graceDays",
              "type": "uint16"
            },
            {
              "internalType": "uint8",
              "name": "numInstallmentsPaid",
              "type": "uint8"
            },
            {
              "internalType": "uint256",
              "name": "unClaimedPrincipal",
              "type": "uint256"
            },
            {
              "internalType": "uint256",
              "name": "unClaimedCollateral",
              "type": "uint256"
            },
            {
              "internalType": "uint256",
              "name": "unClaimedDefaultCollateral",
              "type": "uint256"
            },
            {
              "internalType": "uint256",
              "name": "unClaimedBorrowedPrincipal",
              "type": "uint256"
            },
            {
              "internalType": "uint256",
              "name": "totalInterestPaid",
              "type": "uint256"
            },
            {
              "internalType": "uint256",
              "name": "repaidOn",
              "type": "uint256"
            },
            {
              "internalType": "address",
              "name": "borrower",
              "type": "address"
            },
            {
              "internalType": "address",
              "name": "lender",
              "type": "address"
            }
          ],
          "internalType": "struct LoanLibrary.Loan",
          "name": "",
          "type": "tuple"
        }
      ],
      "stateMutability": "view",
      "type": "function",
      "constant": true
    },
    {
      "inputs": [
        {
          "internalType": "uint256",
          "name": "loanId",
          "type": "uint256"
        },
        {
          "internalType": "uint256",
          "name": "interestPaid",
          "type": "uint256"
        },
        {
          "internalType": "uint256",
          "name": "principalPaid",
          "type": "uint256"
        },
        {
          "internalType": "uint256",
          "name": "collateralRetrieved",
          "type": "uint256"
        }
      ],
      "name": "repayLoan",
      "outputs": [
        {
          "internalType": "bool",
          "name": "",
          "type": "bool"
        }
      ],
      "stateMutability": "nonpayable",
      "type": "function"
    },
    {
      "inputs": [
        {
          "internalType": "uint256",
          "name": "loanId",
          "type": "uint256"
        },
        {
          "internalType": "address",
          "name": "user",
          "type": "address"
        }
      ],
      "name": "claimPrincipal",
      "outputs": [
        {
          "internalType": "uint256",
          "name": "",
          "type": "uint256"
        },
        {
          "internalType": "uint256",
          "name": "",
          "type": "uint256"
        },
        {
          "internalType": "address",
          "name": "",
          "type": "address"
        }
      ],
      "stateMutability": "nonpayable",
      "type": "function"
    },
    {
      "inputs": [
        {
          "internalType": "uint256",
          "name": "loanId",
          "type": "uint256"
        },
        {
          "internalType": "address",
          "name": "user",
          "type": "address"
        }
      ],
      "name": "claimDefaultCollateral",
      "outputs": [
        {
          "internalType": "uint256",
          "name": "",
          "type": "uint256"
        },
        {
          "internalType": "uint256",
          "name": "",
          "type": "uint256"
        },
        {
          "internalType": "address",
          "name": "",
          "type": "address"
        }
      ],
      "stateMutability": "nonpayable",
      "type": "function"
    },
    {
      "inputs": [
        {
          "internalType": "uint256",
          "name": "loanId",
          "type": "uint256"
        },
        {
          "internalType": "address",
          "name": "user",
          "type": "address"
        }
      ],
      "name": "claimCollateral",
      "outputs": [
        {
          "internalType": "uint256",
          "name": "",
          "type": "uint256"
        },
        {
          "internalType": "uint256",
          "name": "",
          "type": "uint256"
        },
        {
          "internalType": "address",
          "name": "",
          "type": "address"
        }
      ],
      "stateMutability": "nonpayable",
      "type": "function"
    },
    {
      "inputs": [
        {
          "internalType": "uint256",
          "name": "loanId",
          "type": "uint256"
        },
        {
          "internalType": "address",
          "name": "user",
          "type": "address"
        }
      ],
      "name": "claimBorrowedPrincipal",
      "outputs": [
        {
          "internalType": "uint256",
          "name": "",
          "type": "uint256"
        },
        {
          "internalType": "uint256",
          "name": "",
          "type": "uint256"
        },
        {
          "internalType": "address",
          "name": "",
          "type": "address"
        }
      ],
      "stateMutability": "nonpayable",
      "type": "function"
    },
    {
      "inputs": [
        {
          "internalType": "uint256",
          "name": "loanId",
          "type": "uint256"
        },
        {
          "internalType": "uint256",
          "name": "principalPaid",
          "type": "uint256"
        },
        {
          "internalType": "uint256",
          "name": "collateralRetrieved",
          "type": "uint256"
        },
        {
          "internalType": "uint256",
          "name": "collateralPaid",
          "type": "uint256"
        }
      ],
      "name": "liquidateLoan",
      "outputs": [],
      "stateMutability": "nonpayable",
      "type": "function"
    },
    {
      "inputs": [
        {
          "internalType": "uint16",
          "name": "days_",
          "type": "uint16"
        }
      ],
      "name": "setGraceDays",
      "outputs": [],
      "stateMutability": "nonpayable",
      "type": "function"
    },
    {
      "inputs": [
        {
          "internalType": "address",
          "name": "address_",
          "type": "address"
        }
      ],
      "name": "setLendingPool",
      "outputs": [],
      "stateMutability": "nonpayable",
      "type": "function"
    }
  ],
  "bytecode": "0x6080806040523461007c57600180546001600160a01b03199081169091556000805433928116831782556001600160a01b0316907f8be0079c531659141344cd1fd0a4f28419497f9722a3daafe3b4186f6b6457e09080a360646002556006805461ffff60a01b1916600560a01b17905561166290816100828239f35b600080fdfe610180604052600436101561001357600080fd5b60003560e01c8063113aa8b114611005578063129773e214610edb578063165035e214610ebe578063189a4b7614610e5057806319467e2714610a565780633799ba3f146108e8578063504006ca14610710578063715018a6146106ae57806378fe76ec1461063c57806379ba509714610568578063863e76db1461054a5780638da5cb5b1461052357806397f641ab14610505578063a5aca38014610497578063e1ec3c68146102d7578063e30c3978146102b0578063e41936d714610212578063f2fde38b146101a85763f400c743146100ee57600080fd5b346101a35760403660031901126101a35760043561010a61105b565b906001600160a01b03806006541633036101a35761019f908260005260046020526101446040600020948280601388015416911614611362565b61016c600c850193600085549561015c8715156113ad565b55610166866111ea565b90611443565b6001845494015460081c16604051938493849160409194936001600160a01b039160608501968552602085015216910152565b0390f35b600080fd5b346101a35760203660031901126101a3576101c1611045565b6101c961109c565b6001600160a01b0380911690816001600160a01b03196001541617600155600054167f38d16b8cac22d99fc7c124b9cd0de2d3fa1faef420bfe791d8c362d765e22700600080a3005b346101a35760403660031901126101a35760043561022e61105b565b906001600160a01b03806006541633036101a35761019f908260005260046020526102686040600020948280601388015416911614611362565b610280600e850193600085549561015c8715156113ad565b6002845494015416604051938493849160409194936001600160a01b039160608501968552602085015216910152565b346101a35760003660031901126101a35760206001600160a01b0360015416604051908152f35b346101a35760203660031901126101a357600435600052600460205260406000208061012052808054600182015460a05260028201546001600160a01b03166101005260038201546004830154600584015460068501546007860154600887015490600988015492600a89015494600b8a015496600c8b015498600d8c01549a600e8d01549c600f01549d601081015460e052601181015460805260128101546001600160a01b031660c052601301546001600160a01b0316610160526040518061014052526101405160200160a05160ff16906103b49161108f565b60a05160081c6001600160a01b0316610140516040015261010051610140516060015261014051608001526101405160a001526101405160c001526101405160e0015261014051610100015261014051610120015261014051610140015261014051610160015261ffff811661014051610180015260101c60ff16610140516101a00152610140516101c00152610140516101e0015261014051610200015261014051610220015260e05161014051610240015260805161014051610260015260c05161014051610280015261016051610140516102a00152610140516102c090f35b346101a35760403660031901126101a3576004356104b361105b565b906001600160a01b03806006541633036101a35761019f908260005260046020526104ed60406000209482806012880154169116146113f8565b610280600d850193600085549561015c8715156113ad565b346101a35760003660031901126101a3576020600254604051908152f35b346101a35760003660031901126101a35760206001600160a01b0360005416604051908152f35b346101a35760003660031901126101a3576020604051620151808152f35b346101a35760003660031901126101a3576001546001600160a01b0333818316036105d2576001600160a01b03198092166001556000549133908316176000553391167f8be0079c531659141344cd1fd0a4f28419497f9722a3daafe3b4186f6b6457e0600080a3005b608460405162461bcd60e51b815260206004820152602960248201527f4f776e61626c6532537465703a2063616c6c6572206973206e6f74207468652060448201527f6e6577206f776e657200000000000000000000000000000000000000000000006064820152fd5b346101a35760203660031901126101a35760043561ffff811681036101a35761066361109c565b7fffffffffffffffffffff0000ffffffffffffffffffffffffffffffffffffffff75ffff00000000000000000000000000000000000000006006549260a01b16911617600655600080f35b346101a35760003660031901126101a3576106c761109c565b60006001600160a01b036001600160a01b0319806001541660015582549081168355167f8be0079c531659141344cd1fd0a4f28419497f9722a3daafe3b4186f6b6457e08280a3005b346101a35760203660031901126101a35760006102a061072e6111c9565b8281528260208201528260408201528260608201528260808201528260a08201528260c08201528260e08201528261010082015282610120820152826101408201528261016082015282610180820152826101a0820152826101c0820152826101e08201528261020082015282610220820152826102408201528261026082015282610280820152015260043560005260046020526102c06107d360406000206111ea565b6001600160a01b036102a060405192805184526107f86020820151602086019061108f565b8260408201511660408501528260608201511660608501526080810151608085015260a081015160a085015260c081015160c085015260e081015160e085015261010081015161010085015261012081015161012085015261014081015161014085015261016081015161016085015261ffff6101808201511661018085015260ff6101a0820151166101a08501526101c08101516101c08501526101e08101516101e085015261020081015161020085015261022081015161022085015261024081015161024085015261026081015161026085015282610280820151166102808501520151166102a0820152f35b346101a3576108f636611071565b906001600160a01b036006949394541633036101a357826000526004602052604060002090600182019081549060ff82166004811015610a405761093a901561130a565b61ffff600b85015416620151809080820291820403610a2a5761096190600a8601546112fd565b42116109e6576109c69661016695600a9261098160048801938454611355565b80935561099360068801918254611355565b918282556109a6600e89019182546112fd565b9055816109d6575b5050116109c85750805460ff191660031790556111ea565b005b60ff191660021790556111ea565b600091600d8801555588806109ae565b606460405162461bcd60e51b815260206004820152601460248201527f4552525f4c4f414e5f4e4f545f4d4154555245440000000000000000000000006044820152fd5b634e487b7160e01b600052601160045260246000fd5b634e487b7160e01b600052602160045260246000fd5b346101a3576101803660031901126101a35760243560028110156101a357604435906001600160a01b03821682036101a357606435916001600160a01b03831683036101a357610104359261ffff84168094036101a35761014435906001600160a01b03821682036101a35761016435916001600160a01b03831683036101a3576001600160a01b036006541633036101a35760016003540194856003556001600160a01b0382166001600160a01b03851614610e0c57610de157600435610b27610b2183836115c0565b156110f4565b6000526005602052610b3d81604060002061116d565b620151809580870296870403610a2a5761ffff6001600160a01b0394859384610b6860209a426112fd565b9181600654946000610b786111c9565b9d8e600435815201521660408c01521660608a015260843560808a015260843560a08a015260a4358060c08b015260e08a015260c4356101008a015260e4356101208a0152426101408a015261016089015260a01c1661018087015260006101a087015260006101c087015260006101e08701526000610200870152610124356102208701526000610240870152600061026087015216610280850152166102a08301528060005260046020526040600020918051835560208101516004811015610a40576102a06013856001600160a01b03936001602098019081547fffffffffffffffffffffff00000000000000000000000000000000000000000060ff74ffffffffffffffffffffffffffffffffffffffff0060408b015160081b169316911617179055836060860151166001600160a01b03196002830154161760028201556080850151600382015560a0850151600482015560c0850151600582015560e08501516006820155610100850151600782015561012085015160088201556101408501516009820155610160850151600a820155610d4a600b820161ffff6101808801511661ffff1982541617815560ff6101a08801511662ff000082549160101b169062ff00001916179055565b6101c0850151600c8201556101e0850151600d820155610200850151600e820155610220850151600f820155610240850151601082015561026085015160118201556012810184610280870151166001600160a01b031982541617905501920151166001600160a01b03198254161790558060005260048252610dd9610dd360406000206111ea565b82611443565b604051908152f35b600435610df1610b2185836115c0565b6000526005602052610e0783604060002061116d565b610b3d565b606460405162461bcd60e51b815260206004820152601360248201527f4552525f43414e545f424f52524f575f4f574e000000000000000000000000006044820152fd5b346101a35760403660031901126101a357600435610e6c61105b565b906001600160a01b03806006541633036101a35761019f90826000526004602052610ea660406000209482806012880154169116146113f8565b61016c600f850193600085549561015c8715156113ad565b346101a35760003660031901126101a3576020604051610e108152f35b346101a357610ee936611071565b926001600160a01b036006939293541633036101a357806000526004602052604060002092600184019360ff8554166004811015610a4057610f2b901561130a565b600b810191600160ff845460101c16019660ff8811610a2a57610f84610fdd96610f6d60ff9a610166979062ff000082549160101b169062ff00001916179055565b60108501610f7c8282546112fd565b9055836112fd565b610f93600c85019182546112fd565b9055600d8301610fa48282546112fd565b9055610fb560048401928354611355565b809255610fc760068401918254611355565b90554260118301556002541015610ff6576111ea565b54166004811015610a4057602090600160405191148152f35b600186198654161785556111ea565b346101a35760203660031901126101a3576001600160a01b03611026611045565b61102e61109c565b166001600160a01b03196006541617600655600080f35b600435906001600160a01b03821682036101a357565b602435906001600160a01b03821682036101a357565b60809060031901126101a35760043590602435906044359060643590565b906004821015610a405752565b6001600160a01b036000541633036110b057565b606460405162461bcd60e51b815260206004820152602060248201527f4f776e61626c653a2063616c6c6572206973206e6f7420746865206f776e65726044820152fd5b156110fb57565b606460405162461bcd60e51b815260206004820152601460248201527f4552525f414c52454144595f424f52524f5745440000000000000000000000006044820152fd5b80548210156111575760005260206000200190600090565b634e487b7160e01b600052603260045260246000fd5b8054680100000000000000008110156111b35761118f9160018201815561113f565b819291549060031b916001600160a01b039283811b93849216901b16911916179055565b634e487b7160e01b600052604160045260246000fd5b604051906102c0820182811067ffffffffffffffff8211176111b357604052565b906111f36111c9565b918054835260018101549060ff8216906004821015610a405760139160208601526001600160a01b03809360081c16604086015282600282015416606086015260038101546080860152600481015460a0860152600581015460c0860152600681015460e0860152600781015461010086015260088101546101208601526009810154610140860152600a81015461016086015260ff600b82015461ffff811661018088015260101c166101a0860152600c8101546101c0860152600d8101546101e0860152600e810154610200860152600f81015461022086015260108101546102408601526011810154610260860152826012820154166102808601520154166102a0830152565b91908201809211610a2a57565b1561131157565b606460405162461bcd60e51b815260206004820152601360248201527f4552525f4c4f414e5f4e4f545f414354495645000000000000000000000000006044820152fd5b91908203918211610a2a57565b1561136957565b606460405162461bcd60e51b815260206004820152600e60248201527f4552525f4e4f545f4c454e4445520000000000000000000000000000000000006044820152fd5b156113b457565b606460405162461bcd60e51b815260206004820152601060248201527f4552525f5a45524f5f42414c414e4345000000000000000000000000000000006044820152fd5b156113ff57565b606460405162461bcd60e51b815260206004820152601060248201527f4552525f4e4f545f424f52524f574552000000000000000000000000000000006044820152fd5b908051906020810151916004831015610a4057816001600160a01b039185828460408201511694806060830151169760808301519660a084015160c08501519060e0860151996101209c8d88015194610140890151966101608a015198806101808c015161ffff169b6102800151169f6102a00151169b6040519b8c5260208c015260408b016114d29161108f565b60608a0152608089015260a088015260c087015260e08601526101009788860152898501526101408401526101608301526101808201526101a094858201526101c091828201526101e090817f1b94239d4d6b6892c4b24e380f7225897bf6df2f2c7398b28e57b275e8cd103f91a1838301519483015160ff1691830151908301516102008401519161022085015193610240860151956102600151976040519a8b5260208b015260408a01526060890152608088015260a087015260c086015260e08501528301527faf2b20ce1bba15f4786bb5e0af37efddd250236bdb204fa4a170338d090c5c8291a1565b919060005b8360005260056020526040806000205461ffff8316101561162357816115ed9160002061113f565b90546001600160a01b03908185169260031b1c161461161b5761ffff809116908114610a2a576001016115c5565b506001925050565b5060009350505056fea2646970667358221220a390a8a7cb6e8d8cd49b3516b13e354377939fea20928a1f48ea8beae8c72d6c64736f6c63430008110033",
  "immutableReferences": {},
  "source": "// SPDX-License-Identifier: MIT\npragma solidity ^0.8.17;\n\nimport \"../libraries/LoanLibrary.sol\";\nimport \"../libraries/OfferLibrary.sol\";\n\nimport \"../interfaces/ILoanManager.sol\";\n\nimport \"@openzeppelin/contracts/utils/math/SafeMath.sol\";\nimport \"@openzeppelin/contracts/access/Ownable2Step.sol\";\nimport \"@openzeppelin/contracts/utils/Counters.sol\";\n\ncontract LoanManager is ILoanManager, Ownable2Step {\n    uint256 public constant ONE_DAY = 60 * 60 * 24;\n    uint256 public constant ONE_HOUR = 60 * 60;\n    uint256 public DUST_AMOUNT = 100;\n\n    using Counters for Counters.Counter;\n    using SafeMath for uint256;\n\n    Counters.Counter private loanIdTracker;\n    mapping(uint256 => LoanLibrary.Loan) public loans;\n\n    // offerId => wallet addresses\n    mapping(uint256 => address[]) private borrowers;\n\n    address lendingPool;\n    uint16 graceDays = 5;\n\n    constructor() Ownable2Step() {}\n\n    function createLoan(\n        uint256 offerId,\n        OfferLibrary.Type offerType,\n        address principalToken,\n        address collateralToken,\n        uint256 principalAmount,\n        uint256 collateralAmount,\n        uint256 collateralPriceInUSD,\n        uint256 interestRate,\n        uint16 daysToMaturity,\n        uint256 unClaimedBorrowedPrincipal,\n        address borrower,\n        address lender\n    ) public override onlyLendingPool returns (uint256) {\n        // avoid 0 id\n        loanIdTracker.increment();\n        uint256 loanId = loanIdTracker.current();\n\n        require(lender != borrower, \"ERR_CANT_BORROW_OWN\");\n\n        if (offerType == OfferLibrary.Type.LENDING_OFFER) {\n            require(\n                !_hasBorrowedFrom(offerId, borrower),\n                \"ERR_ALREADY_BORROWED\"\n            );\n            borrowers[offerId].push(borrower);\n        } else {\n            require(!_hasBorrowedFrom(offerId, lender), \"ERR_ALREADY_BORROWED\");\n            borrowers[offerId].push(lender);\n        }\n\n        uint256 startDate = block.timestamp;\n        uint256 duration = ONE_DAY.mul(daysToMaturity);\n        uint256 maturityDate = startDate.add(duration);\n\n        loans[loanId] = LoanLibrary.Loan(\n            offerId,\n            LoanLibrary.State.ACTIVE,\n            principalToken,\n            collateralToken,\n            principalAmount,\n            principalAmount,\n            collateralAmount,\n            collateralAmount,\n            collateralPriceInUSD,\n            interestRate,\n            startDate,\n            maturityDate,\n            graceDays,\n            0, // numInstallmentsPaid\n            0, // unclaimed principal\n            0, // unclaimed collateral\n            0, // unclaimed default collateral\n            unClaimedBorrowedPrincipal,\n            0, // total interestRate paid\n            0, // repaidOn\n            borrower,\n            lender\n        );\n\n        _emit(loanId, loans[loanId]);\n        return loanId;\n    }\n\n    function getLoan(uint256 loanId)\n        public\n        view\n        override\n        returns (LoanLibrary.Loan memory)\n    {\n        return loans[loanId];\n    }\n\n    function repayLoan(\n        uint256 loanId,\n        uint256 interestPaid,\n        uint256 principalPaid,\n        uint256 collateralRetrieved\n    ) public override onlyLendingPool returns (bool) {\n        LoanLibrary.Loan storage loan = loans[loanId];\n        require(loan.state == LoanLibrary.State.ACTIVE, \"ERR_LOAN_NOT_ACTIVE\");\n\n        loan.numInstallmentsPaid += 1;\n        loan.totalInterestPaid += interestPaid;\n        loan.unClaimedPrincipal += principalPaid.add(interestPaid);\n        loan.unClaimedCollateral += collateralRetrieved;\n        loan.currentPrincipal -= principalPaid;\n        loan.currentCollateral -= collateralRetrieved;\n        loan.repaidOn = block.timestamp;\n\n        if (loan.currentPrincipal <= DUST_AMOUNT) {\n            loan.state = LoanLibrary.State.REPAID;\n        }\n\n        _emit(loanId, loan);\n        return loan.state == LoanLibrary.State.REPAID;\n    }\n\n    function claimPrincipal(uint256 loanId, address user)\n        public\n        override\n        onlyLendingPool\n        returns (\n            uint256,\n            uint256,\n            address\n        )\n    {\n        LoanLibrary.Loan storage loan = loans[loanId];\n        require(loan.lender == user, \"ERR_NOT_LENDER\");\n        require(loan.unClaimedPrincipal > 0, \"ERR_ZERO_BALANCE\");\n        uint256 amount = loan.unClaimedPrincipal;\n        loan.unClaimedPrincipal = 0;\n\n        _emit(loanId, loan);\n        return (amount, loan.offerId, loan.principalToken);\n    }\n\n    function claimDefaultCollateral(uint256 loanId, address user)\n        public\n        override\n        onlyLendingPool\n        returns (\n            uint256,\n            uint256,\n            address\n        )\n    {\n        LoanLibrary.Loan storage loan = loans[loanId];\n        require(loan.lender == user, \"ERR_NOT_LENDER\");\n        require(loan.unClaimedDefaultCollateral > 0, \"ERR_ZERO_BALANCE\");\n        uint256 amount = loan.unClaimedDefaultCollateral;\n        loan.unClaimedDefaultCollateral = 0;\n\n        _emit(loanId, loan);\n        return (amount, loan.offerId, loan.collateralToken);\n    }\n\n    function claimCollateral(uint256 loanId, address user)\n        public\n        override\n        onlyLendingPool\n        returns (\n            uint256,\n            uint256,\n            address\n        )\n    {\n        LoanLibrary.Loan storage loan = loans[loanId];\n        require(loan.borrower == user, \"ERR_NOT_BORROWER\");\n        require(loan.unClaimedCollateral > 0, \"ERR_ZERO_BALANCE\");\n        uint256 amount = loan.unClaimedCollateral;\n        loan.unClaimedCollateral = 0;\n\n        _emit(loanId, loan);\n        return (amount, loan.offerId, loan.collateralToken);\n    }\n\n    function claimBorrowedPrincipal(uint256 loanId, address user)\n        public\n        override\n        onlyLendingPool\n        returns (\n            uint256,\n            uint256,\n            address\n        )\n    {\n        LoanLibrary.Loan storage loan = loans[loanId];\n        require(loan.borrower == user, \"ERR_NOT_BORROWER\");\n        require(loan.unClaimedBorrowedPrincipal > 0, \"ERR_ZERO_BALANCE\");\n        uint256 amount = loan.unClaimedBorrowedPrincipal;\n        loan.unClaimedBorrowedPrincipal = 0;\n\n        _emit(loanId, loan);\n        return (amount, loan.offerId, loan.principalToken);\n    }\n\n    function liquidateLoan(\n        uint256 loanId,\n        uint256 principalPaid,\n        uint256 collateralRetrieved,\n        uint256 collateralPaid\n    ) public override onlyLendingPool {\n        LoanLibrary.Loan storage loan = loans[loanId];\n        require(loan.state == LoanLibrary.State.ACTIVE, \"ERR_LOAN_NOT_ACTIVE\");\n\n        uint256 graceDate = ONE_DAY.mul(loan.graceDays);\n        uint256 defaultDate = loan.maturityDate.add(graceDate);\n        uint256 currentDate = block.timestamp;\n\n        require(defaultDate >= currentDate, \"ERR_LOAN_NOT_MATURED\");\n\n        loan.currentPrincipal -= principalPaid;\n        loan.currentCollateral -= collateralRetrieved;\n        loan.unClaimedDefaultCollateral += collateralPaid;\n\n        if (loan.currentCollateral > 0) {\n            loan.unClaimedCollateral = loan.currentCollateral;\n            loan.currentCollateral = 0;\n        }\n\n        if (loan.currentPrincipal <= 10) {\n            loan.state = LoanLibrary.State.REPAID_DEFAULTED;\n        } else {\n            loan.state = LoanLibrary.State.ACTIVE_DEFAULTED;\n        }\n\n        _emit(loanId, loan);\n    }\n\n    function _emit(uint256 loanId, LoanLibrary.Loan memory loan) private {\n        emit LoanLibrary.LoanCreated(\n            loanId,\n            loan.offerId,\n            loan.state,\n            loan.principalToken,\n            loan.collateralToken,\n            loan.initialPrincipal,\n            loan.currentPrincipal,\n            loan.initialCollateral,\n            loan.currentCollateral,\n            loan.interestRate,\n            loan.startDate,\n            loan.maturityDate,\n            loan.graceDays,\n            loan.borrower,\n            loan.lender\n        );\n        emit LoanLibrary.LoanCreatedProperty(\n            loanId,\n            loan.collateralPriceInUSD,\n            loan.numInstallmentsPaid,\n            loan.unClaimedPrincipal,\n            loan.unClaimedCollateral,\n            loan.unClaimedDefaultCollateral,\n            loan.unClaimedBorrowedPrincipal,\n            loan.totalInterestPaid,\n            loan.repaidOn\n        );\n    }\n\n    function _hasBorrowedFrom(uint256 offerId, address user)\n        private\n        view\n        returns (bool)\n    {\n        for (uint16 index = 0; index < borrowers[offerId].length; index++) {\n            if (borrowers[offerId][index] == user) {\n                return true;\n            }\n        }\n        return false;\n    }\n\n    function setGraceDays(uint16 days_) public onlyOwner {\n        graceDays = days_;\n    }\n\n    function setLendingPool(address address_) public onlyOwner {\n        lendingPool = address_;\n    }\n\n    modifier onlyLendingPool() {\n        require(msg.sender == lendingPool);\n        _;\n    }\n}\n",
  "sourcePath": "/home/runner/smart-contracts/contracts/managers/LoanManager.sol",
  "compiler": {
    "name": "solc",
    "version": "0.8.17+commit.8df45f5f.Emscripten.clang"
  },
  "schemaVersion": "3.4.13",
  "updatedAt": "2024-07-31T05:00:16.997Z",
  "networkType": "ethereum",
  "devdoc": {
    "kind": "dev",
    "methods": {
      "acceptOwnership()": {
        "details": "The new owner accepts the ownership transfer."
      },
      "owner()": {
        "details": "Returns the address of the current owner."
      },
      "pendingOwner()": {
        "details": "Returns the address of the pending owner."
      },
      "renounceOwnership()": {
        "details": "Leaves the contract without owner. It will not be possible to call `onlyOwner` functions anymore. Can only be called by the current owner. NOTE: Renouncing ownership will leave the contract without an owner, thereby removing any functionality that is only available to the owner."
      },
      "transferOwnership(address)": {
        "details": "Starts the ownership transfer of the contract to a new account. Replaces the pending transfer if there is one. Can only be called by the current owner."
      }
    },
    "version": 1
  },
  "userdoc": {
    "kind": "user",
    "methods": {},
    "version": 1
  }
}