{
  "contractName": "OfferManager",
  "abi": [
    {
      "inputs": [],
      "stateMutability": "nonpayable",
      "type": "constructor"
    },
    {
      "anonymous": false,
      "inputs": [
        {
          "indexed": true,
          "internalType": "address",
          "name": "previousOwner",
          "type": "address"
        },
        {
          "indexed": true,
          "internalType": "address",
          "name": "newOwner",
          "type": "address"
        }
      ],
      "name": "OwnershipTransferStarted",
      "type": "event"
    },
    {
      "anonymous": false,
      "inputs": [
        {
          "indexed": true,
          "internalType": "address",
          "name": "previousOwner",
          "type": "address"
        },
        {
          "indexed": true,
          "internalType": "address",
          "name": "newOwner",
          "type": "address"
        }
      ],
      "name": "OwnershipTransferred",
      "type": "event"
    },
    {
      "inputs": [],
      "name": "ONE_DAY",
      "outputs": [
        {
          "internalType": "uint256",
          "name": "",
          "type": "uint256"
        }
      ],
      "stateMutability": "view",
      "type": "function",
      "constant": true
    },
    {
      "inputs": [],
      "name": "ONE_HOUR",
      "outputs": [
        {
          "internalType": "uint256",
          "name": "",
          "type": "uint256"
        }
      ],
      "stateMutability": "view",
      "type": "function",
      "constant": true
    },
    {
      "inputs": [],
      "name": "acceptOwnership",
      "outputs": [],
      "stateMutability": "nonpayable",
      "type": "function"
    },
    {
      "inputs": [
        {
          "internalType": "uint256",
          "name": "",
          "type": "uint256"
        }
      ],
      "name": "offers",
      "outputs": [
        {
          "internalType": "uint256",
          "name": "offerId",
          "type": "uint256"
        },
        {
          "internalType": "enum OfferLibrary.State",
          "name": "state",
          "type": "uint8"
        },
        {
          "internalType": "address",
          "name": "principalToken",
          "type": "address"
        },
        {
          "internalType": "uint256",
          "name": "currentPrincipal",
          "type": "uint256"
        },
        {
          "internalType": "uint256",
          "name": "initialPrincipal",
          "type": "uint256"
        },
        {
          "internalType": "uint256",
          "name": "interestRate",
          "type": "uint256"
        },
        {
          "internalType": "uint16",
          "name": "daysToMaturity",
          "type": "uint16"
        },
        {
          "internalType": "uint256",
          "name": "expiresAt",
          "type": "uint256"
        },
        {
          "internalType": "uint256",
          "name": "createdAt",
          "type": "uint256"
        },
        {
          "internalType": "address",
          "name": "creator",
          "type": "address"
        },
        {
          "internalType": "address",
          "name": "collateralToken",
          "type": "address"
        },
        {
          "internalType": "uint256",
          "name": "currentCollateral",
          "type": "uint256"
        },
        {
          "internalType": "uint256",
          "name": "initialCollateral",
          "type": "uint256"
        },
        {
          "internalType": "enum OfferLibrary.Type",
          "name": "offerType",
          "type": "uint8"
        }
      ],
      "stateMutability": "view",
      "type": "function",
      "constant": true
    },
    {
      "inputs": [],
      "name": "owner",
      "outputs": [
        {
          "internalType": "address",
          "name": "",
          "type": "address"
        }
      ],
      "stateMutability": "view",
      "type": "function",
      "constant": true
    },
    {
      "inputs": [],
      "name": "pendingOwner",
      "outputs": [
        {
          "internalType": "address",
          "name": "",
          "type": "address"
        }
      ],
      "stateMutability": "view",
      "type": "function",
      "constant": true
    },
    {
      "inputs": [],
      "name": "renounceOwnership",
      "outputs": [],
      "stateMutability": "nonpayable",
      "type": "function"
    },
    {
      "inputs": [
        {
          "internalType": "uint256",
          "name": "",
          "type": "uint256"
        }
      ],
      "name": "requests",
      "outputs": [
        {
          "internalType": "uint256",
          "name": "requestId",
          "type": "uint256"
        },
        {
          "internalType": "enum RequestLibrary.State",
          "name": "state",
          "type": "uint8"
        },
        {
          "internalType": "uint16",
          "name": "percentage",
          "type": "uint16"
        },
        {
          "internalType": "uint16",
          "name": "daysToMaturity",
          "type": "uint16"
        },
        {
          "internalType": "uint256",
          "name": "interestRate",
          "type": "uint256"
        },
        {
          "internalType": "uint256",
          "name": "expiresAt",
          "type": "uint256"
        },
        {
          "internalType": "uint256",
          "name": "createdAt",
          "type": "uint256"
        },
        {
          "internalType": "address",
          "name": "creator",
          "type": "address"
        },
        {
          "internalType": "uint256",
          "name": "offerId",
          "type": "uint256"
        },
        {
          "internalType": "address",
          "name": "collateralToken",
          "type": "address"
        },
        {
          "internalType": "uint256",
          "name": "collateralAmount",
          "type": "uint256"
        },
        {
          "internalType": "uint256",
          "name": "collateralPriceInUSD",
          "type": "uint256"
        },
        {
          "internalType": "uint160",
          "name": "ltvUsed",
          "type": "uint160"
        },
        {
          "internalType": "enum RequestLibrary.Type",
          "name": "requestType",
          "type": "uint8"
        }
      ],
      "stateMutability": "view",
      "type": "function",
      "constant": true
    },
    {
      "inputs": [
        {
          "internalType": "address",
          "name": "newOwner",
          "type": "address"
        }
      ],
      "name": "transferOwnership",
      "outputs": [],
      "stateMutability": "nonpayable",
      "type": "function"
    },
    {
      "inputs": [
        {
          "internalType": "address",
          "name": "principalToken",
          "type": "address"
        },
        {
          "internalType": "uint256",
          "name": "principalAmount",
          "type": "uint256"
        },
        {
          "internalType": "uint256",
          "name": "interestRate",
          "type": "uint256"
        },
        {
          "internalType": "uint16",
          "name": "daysToMaturity",
          "type": "uint16"
        },
        {
          "internalType": "uint16",
          "name": "daysToExpire",
          "type": "uint16"
        },
        {
          "internalType": "address[]",
          "name": "collateralTokens",
          "type": "address[]"
        },
        {
          "internalType": "address",
          "name": "lender",
          "type": "address"
        }
      ],
      "name": "createLendingOffer",
      "outputs": [
        {
          "internalType": "uint256",
          "name": "",
          "type": "uint256"
        }
      ],
      "stateMutability": "nonpayable",
      "type": "function"
    },
    {
      "inputs": [
        {
          "internalType": "uint256",
          "name": "offerId",
          "type": "uint256"
        },
        {
          "internalType": "uint16",
          "name": "toExpire",
          "type": "uint16"
        },
        {
          "internalType": "address",
          "name": "user",
          "type": "address"
        }
      ],
      "name": "reActivateOffer",
      "outputs": [],
      "stateMutability": "nonpayable",
      "type": "function"
    },
    {
      "inputs": [
        {
          "internalType": "uint16",
          "name": "percentage",
          "type": "uint16"
        },
        {
          "internalType": "uint256",
          "name": "interestRate",
          "type": "uint256"
        },
        {
          "internalType": "uint16",
          "name": "daysToMaturity",
          "type": "uint16"
        },
        {
          "internalType": "uint16",
          "name": "hoursToExpire",
          "type": "uint16"
        },
        {
          "internalType": "address",
          "name": "lender",
          "type": "address"
        },
        {
          "internalType": "uint256",
          "name": "offerId",
          "type": "uint256"
        }
      ],
      "name": "createLendingRequest",
      "outputs": [
        {
          "internalType": "uint256",
          "name": "",
          "type": "uint256"
        }
      ],
      "stateMutability": "nonpayable",
      "type": "function"
    },
    {
      "inputs": [
        {
          "internalType": "address",
          "name": "principalToken",
          "type": "address"
        },
        {
          "internalType": "address",
          "name": "collateralToken",
          "type": "address"
        },
        {
          "internalType": "uint256",
          "name": "collateralAmount",
          "type": "uint256"
        },
        {
          "internalType": "uint256",
          "name": "principalAmount",
          "type": "uint256"
        },
        {
          "internalType": "uint256",
          "name": "interestRate",
          "type": "uint256"
        },
        {
          "internalType": "uint16",
          "name": "daysToMaturity",
          "type": "uint16"
        },
        {
          "internalType": "uint16",
          "name": "hoursToExpire",
          "type": "uint16"
        },
        {
          "internalType": "address",
          "name": "borrower",
          "type": "address"
        }
      ],
      "name": "createBorrowingOffer",
      "outputs": [
        {
          "internalType": "uint256",
          "name": "",
          "type": "uint256"
        }
      ],
      "stateMutability": "nonpayable",
      "type": "function"
    },
    {
      "inputs": [
        {
          "internalType": "uint16",
          "name": "percentage",
          "type": "uint16"
        },
        {
          "internalType": "address",
          "name": "collateralToken",
          "type": "address"
        },
        {
          "internalType": "uint256",
          "name": "collateralAmount",
          "type": "uint256"
        },
        {
          "internalType": "uint256",
          "name": "collateralPriceInUSD",
          "type": "uint256"
        },
        {
          "internalType": "uint160",
          "name": "ltvUsed",
          "type": "uint160"
        },
        {
          "internalType": "uint256",
          "name": "interestRate",
          "type": "uint256"
        },
        {
          "internalType": "uint16",
          "name": "daysToMaturity",
          "type": "uint16"
        },
        {
          "internalType": "uint16",
          "name": "hoursToExpire",
          "type": "uint16"
        },
        {
          "internalType": "address",
          "name": "borrower",
          "type": "address"
        },
        {
          "internalType": "uint256",
          "name": "offerId",
          "type": "uint256"
        }
      ],
      "name": "createBorrowingRequest",
      "outputs": [
        {
          "internalType": "uint256",
          "name": "",
          "type": "uint256"
        }
      ],
      "stateMutability": "nonpayable",
      "type": "function"
    },
    {
      "inputs": [
        {
          "internalType": "uint256",
          "name": "requestId",
          "type": "uint256"
        },
        {
          "internalType": "address",
          "name": "user",
          "type": "address"
        }
      ],
      "name": "rejectRequest",
      "outputs": [],
      "stateMutability": "nonpayable",
      "type": "function"
    },
    {
      "inputs": [
        {
          "internalType": "uint256",
          "name": "requestId",
          "type": "uint256"
        },
        {
          "internalType": "address",
          "name": "user",
          "type": "address"
        }
      ],
      "name": "acceptRequest",
      "outputs": [],
      "stateMutability": "nonpayable",
      "type": "function"
    },
    {
      "inputs": [
        {
          "internalType": "uint256",
          "name": "requestId",
          "type": "uint256"
        },
        {
          "internalType": "address",
          "name": "user",
          "type": "address"
        }
      ],
      "name": "cancelRequest",
      "outputs": [],
      "stateMutability": "nonpayable",
      "type": "function"
    },
    {
      "inputs": [
        {
          "internalType": "uint256",
          "name": "offerId",
          "type": "uint256"
        },
        {
          "internalType": "address",
          "name": "user",
          "type": "address"
        },
        {
          "internalType": "uint256",
          "name": "amount",
          "type": "uint256"
        }
      ],
      "name": "removePrincipal",
      "outputs": [],
      "stateMutability": "nonpayable",
      "type": "function"
    },
    {
      "inputs": [
        {
          "internalType": "uint256",
          "name": "offerId",
          "type": "uint256"
        },
        {
          "internalType": "address",
          "name": "user",
          "type": "address"
        },
        {
          "internalType": "uint256",
          "name": "amount",
          "type": "uint256"
        }
      ],
      "name": "removeCollateral",
      "outputs": [],
      "stateMutability": "nonpayable",
      "type": "function"
    },
    {
      "inputs": [
        {
          "internalType": "uint256",
          "name": "offerId",
          "type": "uint256"
        },
        {
          "internalType": "uint256",
          "name": "principalAmount",
          "type": "uint256"
        }
      ],
      "name": "afterLendingLoan",
      "outputs": [],
      "stateMutability": "nonpayable",
      "type": "function"
    },
    {
      "inputs": [
        {
          "internalType": "uint256",
          "name": "offerId",
          "type": "uint256"
        },
        {
          "internalType": "uint256",
          "name": "principalAmount",
          "type": "uint256"
        },
        {
          "internalType": "uint256",
          "name": "collateralAmount",
          "type": "uint256"
        }
      ],
      "name": "afterBorrowingLoan",
      "outputs": [],
      "stateMutability": "nonpayable",
      "type": "function"
    },
    {
      "inputs": [
        {
          "internalType": "uint256",
          "name": "offerId",
          "type": "uint256"
        },
        {
          "internalType": "address",
          "name": "token",
          "type": "address"
        }
      ],
      "name": "isCollateralSupported",
      "outputs": [
        {
          "internalType": "bool",
          "name": "",
          "type": "bool"
        }
      ],
      "stateMutability": "view",
      "type": "function",
      "constant": true
    },
    {
      "inputs": [
        {
          "internalType": "uint256",
          "name": "offerId",
          "type": "uint256"
        }
      ],
      "name": "getOffer",
      "outputs": [
        {
          "components": [
            {
              "internalType": "uint256",
              "name": "offerId",
              "type": "uint256"
            },
            {
              "internalType": "enum OfferLibrary.State",
              "name": "state",
              "type": "uint8"
            },
            {
              "internalType": "address",
              "name": "principalToken",
              "type": "address"
            },
            {
              "internalType": "uint256",
              "name": "currentPrincipal",
              "type": "uint256"
            },
            {
              "internalType": "uint256",
              "name": "initialPrincipal",
              "type": "uint256"
            },
            {
              "internalType": "uint256",
              "name": "interestRate",
              "type": "uint256"
            },
            {
              "internalType": "uint16",
              "name": "daysToMaturity",
              "type": "uint16"
            },
            {
              "internalType": "uint256",
              "name": "expiresAt",
              "type": "uint256"
            },
            {
              "internalType": "uint256",
              "name": "createdAt",
              "type": "uint256"
            },
            {
              "internalType": "address",
              "name": "creator",
              "type": "address"
            },
            {
              "internalType": "address[]",
              "name": "collateralTokens",
              "type": "address[]"
            },
            {
              "internalType": "address",
              "name": "collateralToken",
              "type": "address"
            },
            {
              "internalType": "uint256",
              "name": "currentCollateral",
              "type": "uint256"
            },
            {
              "internalType": "uint256",
              "name": "initialCollateral",
              "type": "uint256"
            },
            {
              "internalType": "enum OfferLibrary.Type",
              "name": "offerType",
              "type": "uint8"
            }
          ],
          "internalType": "struct OfferLibrary.Offer",
          "name": "",
          "type": "tuple"
        }
      ],
      "stateMutability": "view",
      "type": "function",
      "constant": true
    },
    {
      "inputs": [
        {
          "internalType": "uint256",
          "name": "requestId",
          "type": "uint256"
        }
      ],
      "name": "getRequest",
      "outputs": [
        {
          "components": [
            {
              "internalType": "uint256",
              "name": "requestId",
              "type": "uint256"
            },
            {
              "internalType": "enum RequestLibrary.State",
              "name": "state",
              "type": "uint8"
            },
            {
              "internalType": "uint16",
              "name": "percentage",
              "type": "uint16"
            },
            {
              "internalType": "uint16",
              "name": "daysToMaturity",
              "type": "uint16"
            },
            {
              "internalType": "uint256",
              "name": "interestRate",
              "type": "uint256"
            },
            {
              "internalType": "uint256",
              "name": "expiresAt",
              "type": "uint256"
            },
            {
              "internalType": "uint256",
              "name": "createdAt",
              "type": "uint256"
            },
            {
              "internalType": "address",
              "name": "creator",
              "type": "address"
            },
            {
              "internalType": "uint256",
              "name": "offerId",
              "type": "uint256"
            },
            {
              "internalType": "address",
              "name": "collateralToken",
              "type": "address"
            },
            {
              "internalType": "uint256",
              "name": "collateralAmount",
              "type": "uint256"
            },
            {
              "internalType": "uint256",
              "name": "collateralPriceInUSD",
              "type": "uint256"
            },
            {
              "internalType": "uint160",
              "name": "ltvUsed",
              "type": "uint160"
            },
            {
              "internalType": "enum RequestLibrary.Type",
              "name": "requestType",
              "type": "uint8"
            }
          ],
          "internalType": "struct RequestLibrary.Request",
          "name": "",
          "type": "tuple"
        }
      ],
      "stateMutability": "view",
      "type": "function",
      "constant": true
    },
    {
      "inputs": [
        {
          "internalType": "address",
          "name": "address_",
          "type": "address"
        }
      ],
      "name": "setLendingPool",
      "outputs": [],
      "stateMutability": "nonpayable",
      "type": "function"
    }
  ],
  "bytecode": "0x6080806040523461006357600180546001600160a01b03199081169091556000805433928116831782556001600160a01b0316907f8be0079c531659141344cd1fd0a4f28419497f9722a3daafe3b4186f6b6457e09080a361228890816100698239f35b600080fdfe6080604052600436101561001257600080fd5b60003560e01c8063043ab622146119fd578063099bfe6b146118c4578063113aa8b114611884578063165035e214611867578063346dab991461179057806339700629146116fd5780633bb1374b146115435780634579268a146113ab578063715018a614611349578063774d3df51461127457806379ba5097146111a05780637f4a10b6146110fc57806381d12c581461105f578063863e76db146110415780638a72ea6a14610f4d5780638da5cb5b14610f2657806390d870d214610c355780639498506514610b20578063a5ff109014610a83578063b438b8901461079c578063c44df3401461039e578063c58343ef14610255578063daba858a146101c5578063e30c39781461019e5763f2fde38b1461012f57600080fd5b3461019957602036600319011261019957610148611a79565b610150611bfc565b6001600160a01b0380911690816001600160a01b03196001541617600155600054167f38d16b8cac22d99fc7c124b9cd0de2d3fa1faef420bfe791d8c362d765e22700600080a3005b600080fd5b346101995760003660031901126101995760206001600160a01b0360015416604051908152f35b34610199576040366003190112610199576004356101e1611a8f565b906001600160a01b039182600654163303610199576102539261023961024d92846000526005602052604060002092600684015460005260036020528061012061022e6040600020611c6c565b015116911614611d99565b60018101600160ff19825416179055611e92565b90612158565b005b34610199576020366003190112610199576101c060405161027581611ba0565b6000815260006020820152600060408201526000606082015260006080820152600060a0820152600060c0820152600060e082015260006101009181838201526101209282848301526101409083828401526101609084828501526101809185838601526101a095868096015260043560005260056020526102fa6040600020611e92565b936040519785518952610315602087015160208b0190611b0c565b61ffff8060408801511660408b015260608701511660608a0152608086015160808a015260a086015160a08a015260c086015160c08a01526001600160a01b03938460e08801511660e08b015280870151908a0152838187015116908901528085015190880152808401519087015281830151169085015201519061039982611b02565b820152f35b346101995760e0366003190112610199576103b7611a79565b6103bf611af1565b6084359061ffff82168092036101995760a4359067ffffffffffffffff8211610199573660238301121561019957816004013567ffffffffffffffff811161070c57604051928160051b916104176020840186611bda565b8452602460208501928201019036821161019957602401915b81831061077c5750505060c435906001600160a01b038216809203610199576001600160a01b03600654163303610199576001600254019384600255620151809080820291820403610766576104869042611d8c565b908351156107225761ffff906001600160a01b03604051976104a789611bbd565b878952600060208a0152166040880152602435806060890152608088015260443560a08801521660c086015260e0850152426101008501526101208401526101408301526000610160830152600061018083015260006101a083015260006101c08301528060005260036020526040600020918051835560018301610539602083015161053381611b02565b82611c54565b604082015174ffffffffffffffffffffffffffffffffffffffff001974ffffffffffffffffffffffffffffffffffffffff0083549260081b169116179055606081015160028401556080810151600384015560a081015160048401556005830161ffff60c08301511661ffff1982541617905560e081015160068401556101008101516007840155600883016001600160a01b03610120830151166001600160a01b031982541617905561014081015180519067ffffffffffffffff821161070c5768010000000000000000821161070c5760098501548260098701558083106106df575b5060200160098501600052602060002060005b8381106106c257602086866101c0600d8b600a81016001600160a01b03610160860151166001600160a01b0319825416179055610180840151600b8201556101a0840151600c8201550191015161068781611b02565b61069081611b02565b60ff8019835416911617905580600052600382526106ba6106b46040600020611c6c565b82611ffc565b604051908152f35b60019060206001600160a01b038551169401938184015501610631565b600986016000526020600020908382015b818301811061070057505061061e565b600081556001016106f0565b634e487b7160e01b600052604160045260246000fd5b606460405162461bcd60e51b815260206004820152601760248201527f4552525f4e4f5f434f4c4c41544552414c5f54595045530000000000000000006044820152fd5b634e487b7160e01b600052601160045260246000fd5b82356001600160a01b038116810361019957815260209283019201610430565b346101995760c0366003190112610199576107b5611acf565b60443561ffff81168103610199576107cb611af1565b906084356001600160a01b0381168103610199576001600160a01b036006541633036101995761ffff60016004540193846004551691610e1092808402938404036107665761ffff6108256001600160a01b039442611d8c565b9160a435600052600360205261083e6040600020611c6c565b61086160016101c083015161085281611b02565b61085b81611b02565b14611de4565b6101806101a082015191015114610a60575b816040519761088189611ba0565b878952600060208a0152166040880152166060860152602435608086015260a08501524260c08501521660e083015260a435610100830152600061012083015260006101408301526000610160830152600061018083015260006101a08301528060005260056020526040600020918051835560208101516004811015610a4a5783600a916109166001602097019182611e7a565b6040840151815462ffff0064ffff000000606088015160181b169260081b169064ffffffff001916171790556080830151600282015560a0830151600382015560c08301516004820155600581016001600160a01b0360e085015116906001600160a01b03199182825416179055610100840151600683015560078201906001600160a01b0361012086015116908254161790556101408301516008820155610160830151600982015501906001600160a01b03610180820151167fffffffffffffffffffffff00000000000000000000000000000000000000000074ff00000000000000000000000000000000000000006101a08554940151610a1981611b02565b610a2281611b02565b60a01b1692161717905580600052600582526106ba610a446040600020611e92565b82612158565b634e487b7160e01b600052602160045260246000fd5b60a4356000526003602052610a7e6006604060002001544210611e2f565b610873565b3461019957604036600319011261019957600435602435906001600160a01b0360065416330361019957610b0661025392826000526003602052604060002090610ad38160028401541015612207565b600c820154600b83015414610b0c575b836000526003602052610aff6002604060002001918254611fef565b9055611c6c565b90611ffc565b610b1b60068301544210611e2f565b610ae3565b3461019957604036600319011261019957600435610b3c611a8f565b906001600160a01b03918260065416330361019957610b739082600052600560205260406000209380600586015416911614611d99565b600182019182549060ff82166004811015610a4a5760018114610bf157600314610bad5761025393600361024d9360ff1916179055611e92565b606460405162461bcd60e51b815260206004820152601560248201527f4552525f414c52454144595f43414e43454c4c454400000000000000000000006044820152fd5b606460405162461bcd60e51b815260206004820152601060248201527f4552525f414c52454144595f55534544000000000000000000000000000000006044820152fd5b346101995761010036600319011261019957610c4f611a79565b610c57611a8f565b60a43561ffff8116810361019957610c6d611ae0565b9160e4356001600160a01b0381168103610199576001600160a01b036006541633036101995761ffff600160025401948560025516610e10908082029182040361076657610cbb9042611d8c565b926040519182602081011067ffffffffffffffff60208501111761070c576001600160a01b039461ffff86936020860160405260008652846040519a610d008c611bbd565b8a8c52600060208d01521660408b01526064358060608c015260808b015260843560a08b01521660c089015260e08801524261010088015216610120860152610140850152166101608301526044356101808301526044356101a083015260016101c08301528060005260036020526040600020918051835560018301610d8e602083015161053381611b02565b604082015174ffffffffffffffffffffffffffffffffffffffff001974ffffffffffffffffffffffffffffffffffffffff0083549260081b169116179055606081015160028401556080810151600384015560a081015160048401556005830161ffff60c08301511661ffff1982541617905560e081015160068401556101008101516007840155600883016001600160a01b03610120830151166001600160a01b031982541617905561014081015180519067ffffffffffffffff821161070c5768010000000000000000821161070c576009850154826009870155808310610ef9575b5060200160098501600052602060002060005b838110610edc57602086866101c0600d8b600a81016001600160a01b03610160860151166001600160a01b0319825416179055610180840151600b8201556101a0840151600c8201550191015161068781611b02565b60019060206001600160a01b038551169401938184015501610e86565b600986016000526020600020908382015b8183018110610f1a575050610e73565b60008155600101610f0a565b346101995760003660031901126101995760206001600160a01b0360005416604051908152f35b346101995760203660031901126101995760043560005260036020526101c0604060002080549060018101549060028101546003820154600483015461ffff60058501541660068501546007860154916001600160a01b03600888015416936001600160a01b03600a8901541695600b890154976001600160a01b0360ff600d600c8d01549c0154169b6040519d8e528d602060ff831691610fee83611b02565b015260081c1660408d015260608c015260808b015260a08a015260c089015260e088015261010087015261012086015261014085015261016084015261018083015261103981611b02565b6101a0820152f35b34610199576000366003190112610199576020604051620151808152f35b3461019957602036600319011261019957600435600052600560205260406000208054906110f86001820154926002830154906003840154936004810154946001600160a01b0395866005840154166006840154908860078601541692600886015494600a600988015497015498896040519d8e809e60ff61ffff9460a01c169d169b60ff848460181c16948460081c16931691611b19565b0390f35b346101995761110a36611aa5565b91906001600160a01b03806006541633036101995761025393610b069284600052600360205261117f8260406000209461115460ff600d8801541661114e81611b02565b15611de4565b61117a600287019485549261116b85851015611f59565b8060088a015416911614611fa4565b611fef565b9055600382015403611c6c575b60018101600160ff19825416179055611c6c565b34610199576000366003190112610199576001546001600160a01b03338183160361120a576001600160a01b03198092166001556000549133908316176000553391167f8be0079c531659141344cd1fd0a4f28419497f9722a3daafe3b4186f6b6457e0600080a3005b608460405162461bcd60e51b815260206004820152602960248201527f4f776e61626c6532537465703a2063616c6c6572206973206e6f74207468652060448201527f6e6577206f776e657200000000000000000000000000000000000000000000006064820152fd5b3461019957604036600319011261019957600435611290611a8f565b906001600160a01b039182600654163303610199576112d690826000526005602052604060002093600685015460005260036020528061012061022e6040600020611c6c565b600182019182549060ff82166004811015610a4a576113055761025393600261024d9360ff1916179055611e92565b606460405162461bcd60e51b815260206004820152600f60248201527f4552525f4f464645525f535441544500000000000000000000000000000000006044820152fd5b3461019957600036600319011261019957611362611bfc565b60006001600160a01b036001600160a01b0319806001541660015582549081168355167f8be0079c531659141344cd1fd0a4f28419497f9722a3daafe3b4186f6b6457e08280a3005b3461019957602080600319360112610199576040516113c981611bbd565b60008152600082820152600060408201526000606082015260006080820152600060a0820152600060c0820152600060e0820152610100906000828201526101209260008483015261014091606083820152610160926000848301526101806000818401526101a09060008285015260006101c080950152600435600052600385526114586040600020611c6c565b92604051978689528451878a01528685015161147381611b02565b60408a01526001600160a01b03998a918260408801511660608c0152606087015160808c0152608087015160a08c015260a087015160c08c015261ffff60c08801511660e08c015260e0870151818c0152860151818b01528501511681890152830151956101e09586828a015261020089018851809152816102208b0199019160005b82811061152d57505050509787988401511681880152820151818701528101518286015201519061152682611b02565b8301520390f35b83518d168b5299810199928101926001016114f6565b34610199576101403660031901126101995761155d611acf565b611565611a8f565b608435916001600160a01b038316830361019957611581611ae0565b9260e43561ffff81168091036101995761010435936001600160a01b0385168503610199576001600160a01b03600654163303610199576001600454019586600455610e1092808402938404036107665786956001600160a01b039561ffff879593816115ef889642611d8c565b936101243560005260036020526116096040600020611c6c565b6116246101c082015161161b81611b02565b61114e81611b02565b6101806101a0820151910151146116d9575b600060206040519e8f9061164982611ba0565b815201521660408c01521660608a015260a43560808a015260a08901524260c08901521660e087015261012435610100870152166101208501526044356101408501526064356101608501521661018083015260016101a08301528060005260056020526040600020918051835560208101516004811015610a4a5783600a916109166001602097019182611e7a565b6101243560005260036020526116f86006604060002001544210611e2f565b611636565b3461019957604036600319011261019957611716611a8f565b60043560005260206003815261172f6040600020611c6c565b61014001916001600160a01b03908116906000805b8551805182101561178457838686928460051b010151161461177157600019811461076657600101611744565b50505050905060015b6040519015158152f35b5050929350505061177a565b346101995760603660031901126101995760043560243590604435916001600160a01b0360065416330361019957816000526003602052604060002060028101938454926117e081851015612207565b600b8301918254818110611823576102539761180d610aff94610b069884600c8a01541461181457611fef565b9055611fef565b61117a60068a01544210611e2f565b606460405162461bcd60e51b815260206004820152601b60248201527f4552525f494e53554646494349454e545f434f4c4c41544552414c00000000006044820152fd5b34610199576000366003190112610199576020604051610e108152f35b34610199576020366003190112610199576001600160a01b036118a5611a79565b6118ad611bfc565b166001600160a01b03196006541617600655600080f35b34610199576060366003190112610199576004356024359061ffff821680920361019957604435906001600160a01b0391828116809103610199578260065416330361019957611932908260005260036020526119246040600020611c6c565b936101208501511614611d99565b6101a0820151610180830151036101995760e0820180514211156119b95760016002540190816002556101c084015161196a81611b02565b61197381611b02565b61199e5762015180948086029586040361076657611995610253955b42611d8c565b90528252611ffc565b610e109480860295860403610766576119956102539561198f565b606460405162461bcd60e51b815260206004820152600f60248201527f4552525f4e4f545f4558504952454400000000000000000000000000000000006044820152fd5b3461019957611a0b36611aa5565b91906001600160a01b03806006541633036101995761025393610b0692846000526003602052611a6882604060002094611a51600160ff600d8901541661085b81611b02565b61117a600b87019485549261116b85851015611f59565b9055600c8201541461118c57611c6c565b600435906001600160a01b038216820361019957565b602435906001600160a01b038216820361019957565b606090600319011261019957600435906024356001600160a01b0381168103610199579060443590565b6004359061ffff8216820361019957565b60c4359061ffff8216820361019957565b6064359061ffff8216820361019957565b60021115610a4a57565b906004821015610a4a5752565b9b989a97969492919e9d9c999593909e6101c08d019f8d5260208d01611b3e91611b0c565b61ffff80921660408d01521660608b015260808a015260a089015260c08801526001600160a01b03958680931660e08901526101008801521661012086015261014085015261016084015216610180820152611b9982611b02565b6101a00152565b6101c0810190811067ffffffffffffffff82111761070c57604052565b6101e0810190811067ffffffffffffffff82111761070c57604052565b90601f8019910116810190811067ffffffffffffffff82111761070c57604052565b6001600160a01b03600054163303611c1057565b606460405162461bcd60e51b815260206004820152602060248201527f4f776e61626c653a2063616c6c6572206973206e6f7420746865206f776e65726044820152fd5b90611c5e81611b02565b60ff80198354169116179055565b90604051611c7981611bbd565b8092805482526001808201549060ff8216611c9381611b02565b602090818601526001600160a01b03809360081c1660408601526002840154606086015260038401546080860152600484015460a086015261ffff60058501541660c0860152600684015460e08601526007840154610100860152826008850154166101208601526009840190604051928382845491828152019360005282600020926000905b828210611d755750505050509260ff9282611d3c600d946101c0970382611bda565b610140870152600a82015416610160860152600b810154610180860152600c8101546101a086015201541691611d7183611b02565b0152565b845488168652948501949383019390830190611d1a565b9190820180921161076657565b15611da057565b606460405162461bcd60e51b815260206004820152601060248201527f4552525f4f4e4c595f43524541544f52000000000000000000000000000000006044820152fd5b15611deb57565b606460405162461bcd60e51b815260206004820152600e60248201527f4552525f4f464645525f545950450000000000000000000000000000000000006044820152fd5b15611e3657565b606460405162461bcd60e51b815260206004820152601160248201527f4552525f4f464645525f455850495245440000000000000000000000000000006044820152fd5b906004811015610a4a5760ff80198354169116179055565b90604051611e9f81611ba0565b80928054825260018101549060ff8216906004821015610a4a576101a09260ff92602086015261ffff90818160081c16604087015260181c16606085015260028101546080850152600381015460a0850152600481015460c0850152600a6001600160a01b03918260058201541660e087015260068101546101008701528260078201541661012087015260088101546101408701526009810154610160870152015490811661018085015260a01c1691611d7183611b02565b15611f6057565b606460405162461bcd60e51b815260206004820152601260248201527f494e535546494349454e545f414d4f554e5400000000000000000000000000006044820152fd5b15611fab57565b606460405162461bcd60e51b815260206004820152600f60248201527f4552525f4f4e4c595f4c454e44455200000000000000000000000000000000006044820152fd5b9190820391821161076657565b919091602083015161200d81611b02565b6001600160a01b036040850151169360608101519460808201519560a083015161ffff60c08501511660e0850151610100860151916001600160a01b0361012088015116936101408801519b6001600160a01b036101608a015116966101808a0151986101c06101a08c01519b01519b6120868d611b02565b6040519d8e5260208e61209883611b02565b015260408d015260608c015260808b015260a08a015260c089015260e08801526101008701526101208601526101e080610140870152850187518091526020610200870198019060005b818110612139575050506101608501526101808401526101a083015291927f32a670798a1ad8df43e8adea253d7a3a694f00bd8a48236ac364cce18971f4bf9282919061212e81611b02565b6101c08301520390a1565b82516001600160a01b03168a526020998a0199909201916001016120e2565b6020820151906004821015610a4a576122027f34425327f0b2d0828521660e46e990c421f3654b8d649db7cc2a59fa9d1f05f49361ffff90816040820151169160608201511660808201519060a08301519160c0840151926001600160a01b03938460e0870151169061010087015192866101208901511694610140890151966101a06101608b0151996101808c0151169a01519a6121f68c611b02565b6040519e8f9e8f611b19565b0390a1565b1561220e57565b606460405162461bcd60e51b815260206004820152601a60248201527f4552525f494e53554646494349454e545f5052494e434950414c0000000000006044820152fdfea2646970667358221220ba06d20334fad8855f88f6e0ccaad0364c1e268b5fcdef2cb87c27e46efb4dfb64736f6c63430008110033",
  "immutableReferences": {},
  "source": "// SPDX-License-Identifier: MIT\npragma solidity ^0.8.17;\n\nimport \"../libraries/OfferLibrary.sol\";\nimport \"../libraries/RequestLibrary.sol\";\n\nimport \"../interfaces/IOfferManager.sol\";\n\nimport \"@openzeppelin/contracts/utils/math/SafeMath.sol\";\nimport \"@openzeppelin/contracts/access/Ownable2Step.sol\";\nimport \"@openzeppelin/contracts/utils/Counters.sol\";\n\n/*\n    The OfferManager contract is responsible for bookeeping\n    the offers and requests made.\n\n    It can be only modified by the LendingPool contract,\n    but can be read from external sources.\n\n    Any OfferManager contract must inherite the IOfferManager interface.\n*/\n\ncontract OfferManager is IOfferManager, Ownable2Step {\n    uint256 public constant ONE_DAY = 60 * 60 * 24;\n    uint256 public constant ONE_HOUR = 60 * 60;\n\n    using Counters for Counters.Counter;\n    using SafeMath for uint256;\n\n    // offers\n    Counters.Counter private offerIdTracker;\n    mapping(uint256 => OfferLibrary.Offer) public offers;\n\n    // request\n    Counters.Counter private requestIdTracker;\n    mapping(uint256 => RequestLibrary.Request) public requests;\n\n    address lendingPool;\n\n    constructor() Ownable2Step() {}\n\n    // creates a new lending offer\n    function createLendingOffer(\n        address principalToken,\n        uint256 principalAmount,\n        uint256 interestRate,\n        uint16 daysToMaturity,\n        uint16 daysToExpire,\n        address[] memory collateralTokens,\n        address lender\n    ) public override onlyLendingPool returns (uint256) {\n        offerIdTracker.increment();\n        uint256 offerId = offerIdTracker.current();\n\n        uint256 createdAt = block.timestamp;\n        uint256 duration = ONE_DAY.mul(daysToExpire);\n        uint256 expiresAt = createdAt.add(duration);\n\n        require(collateralTokens.length > 0, \"ERR_NO_COLLATERAL_TYPES\");\n\n        offers[offerId] = OfferLibrary.Offer(\n            // shared\n            offerId,\n            OfferLibrary.State.DEFAULT,\n            principalToken,\n            principalAmount, // currentPrincipal\n            principalAmount, // initialPrincipal\n            interestRate,\n            daysToMaturity,\n            expiresAt,\n            createdAt,\n            lender,\n            // related to lending offers only\n            collateralTokens,\n            // related to borrowing offers only\n            address(0),\n            0,\n            0,\n            // type\n            OfferLibrary.Type.LENDING_OFFER\n        );\n\n        _emitOffer(offerId, offers[offerId]);\n        return offerId;\n    }\n\n    function reActivateOffer(\n        uint256 offerId,\n        uint16 toExpire,\n        address user\n    ) public override onlyLendingPool {\n        OfferLibrary.Offer memory offer = offers[offerId];\n\n        require(offer.creator == user, \"ERR_ONLY_CREATOR\");\n        require(offer.initialCollateral == offer.currentCollateral);\n\n        uint256 createdAt = block.timestamp;\n        require(createdAt > offer.expiresAt, \"ERR_NOT_EXPIRED\");\n\n        offerIdTracker.increment();\n\n        uint256 duration;\n        if (offer.offerType == OfferLibrary.Type.LENDING_OFFER) {\n            duration = ONE_DAY.mul(toExpire);\n        } else {\n            duration = ONE_HOUR.mul(toExpire);\n        }\n\n        offer.expiresAt = createdAt + duration;\n        offer.offerId = offerIdTracker.current();\n\n        _emitOffer(offerId, offer);\n    }\n\n    // creates a new lending request\n    function createLendingRequest(\n        uint16 percentage,\n        uint256 interestRate,\n        uint16 daysToMaturity,\n        uint16 hoursToExpire,\n        address lender,\n        uint256 offerId\n    ) public override onlyLendingPool returns (uint256) {\n        requestIdTracker.increment();\n        uint256 requestId = requestIdTracker.current();\n\n        uint256 createdAt = block.timestamp;\n        uint256 duration = ONE_HOUR.mul(hoursToExpire);\n        uint256 expiresAt = createdAt.add(duration);\n\n        OfferLibrary.Offer memory offer = offers[offerId];\n\n        require(\n            offer.offerType == OfferLibrary.Type.BORROWING_OFFER,\n            \"ERR_OFFER_TYPE\"\n        );\n\n        if (offer.initialCollateral == offer.currentCollateral) {\n            require(createdAt < offers[offerId].expiresAt, \"ERR_OFFER_EXPIRED\");\n        }\n\n        requests[requestId] = RequestLibrary.Request(\n            // shared\n            requestId,\n            RequestLibrary.State.PENDING,\n            percentage,\n            daysToMaturity,\n            interestRate,\n            expiresAt,\n            createdAt,\n            lender,\n            offerId,\n            // related to borrowing request only\n            address(0),\n            0,\n            0,\n            0,\n            // type\n            RequestLibrary.Type.LENDING_REQUEST\n        );\n\n        _emitRequest(requestId, requests[requestId]);\n        return requestId;\n    }\n\n    // creates a new borrowing offer\n    function createBorrowingOffer(\n        address principalToken,\n        address collateralToken,\n        uint256 collateralAmount,\n        uint256 principalAmount,\n        uint256 interestRate,\n        uint16 daysToMaturity,\n        uint16 hoursToExpire,\n        address borrower\n    ) public override onlyLendingPool returns (uint256) {\n        offerIdTracker.increment();\n        uint256 offerId = offerIdTracker.current();\n\n        uint256 createdAt = block.timestamp;\n        uint256 duration = ONE_HOUR.mul(hoursToExpire);\n        uint256 expiresAt = createdAt.add(duration);\n\n        offers[offerId] = OfferLibrary.Offer(\n            offerId,\n            OfferLibrary.State.DEFAULT,\n            principalToken,\n            principalAmount, // currentPrincipal\n            principalAmount, // initialPrincipal\n            interestRate,\n            daysToMaturity,\n            expiresAt,\n            createdAt,\n            borrower,\n            // related to lending offers only\n            new address[](0),\n            // related to borrowing offers only\n            collateralToken,\n            collateralAmount, // currentCollateral\n            collateralAmount, //  initialCollateral\n            // type\n            OfferLibrary.Type.BORROWING_OFFER\n        );\n\n        _emitOffer(offerId, offers[offerId]);\n        return offerId;\n    }\n\n    // creates a new borrowing request\n    function createBorrowingRequest(\n        uint16 percentage,\n        address collateralToken,\n        uint256 collateralAmount,\n        uint256 collateralPriceInUSD,\n        uint160 ltvUsed,\n        uint256 interestRate,\n        uint16 daysToMaturity,\n        uint16 hoursToExpire,\n        address borrower,\n        uint256 offerId\n    ) public override onlyLendingPool returns (uint256) {\n        requestIdTracker.increment();\n        uint256 requestId = requestIdTracker.current();\n\n        uint256 createdAt = block.timestamp;\n        uint256 duration = ONE_HOUR.mul(hoursToExpire);\n        uint256 expiresAt = createdAt.add(duration);\n\n        OfferLibrary.Offer memory offer = offers[offerId];\n\n        require(\n            offer.offerType == OfferLibrary.Type.LENDING_OFFER,\n            \"ERR_OFFER_TYPE\"\n        );\n\n        if (offer.initialCollateral == offer.currentCollateral) {\n            require(createdAt < offers[offerId].expiresAt, \"ERR_OFFER_EXPIRED\");\n        }\n\n        requests[requestId] = RequestLibrary.Request(\n            // shared\n            requestId,\n            RequestLibrary.State.PENDING,\n            percentage,\n            daysToMaturity,\n            interestRate,\n            expiresAt,\n            createdAt,\n            borrower,\n            offerId,\n            // related to borrowing request only\n            collateralToken,\n            collateralAmount,\n            collateralPriceInUSD,\n            ltvUsed,\n            RequestLibrary.Type.BORROWING_REQUEST\n        );\n\n        _emitRequest(requestId, requests[requestId]);\n        return requestId;\n    }\n\n    function rejectRequest(uint256 requestId, address user)\n        public\n        override\n        onlyLendingPool\n    {\n        RequestLibrary.Request storage request = requests[requestId];\n        OfferLibrary.Offer memory offer = offers[request.offerId];\n        require(offer.creator == user, \"ERR_ONLY_CREATOR\");\n        require(\n            request.state == RequestLibrary.State.PENDING,\n            \"ERR_OFFER_STATE\"\n        );\n        request.state = RequestLibrary.State.REJECTED;\n        _emitRequest(requestId, request);\n    }\n\n    function acceptRequest(uint256 requestId, address user)\n        public\n        override\n        onlyLendingPool\n    {\n        RequestLibrary.Request storage request = requests[requestId];\n        OfferLibrary.Offer memory offer = offers[request.offerId];\n        require(offer.creator == user, \"ERR_ONLY_CREATOR\");\n        request.state = RequestLibrary.State.ACCEPTED;\n        _emitRequest(requestId, request);\n    }\n\n    function cancelRequest(uint256 requestId, address user)\n        public\n        override\n        onlyLendingPool\n    {\n        RequestLibrary.Request storage request = requests[requestId];\n        require(request.creator == user, \"ERR_ONLY_CREATOR\");\n        require(\n            request.state != RequestLibrary.State.ACCEPTED,\n            \"ERR_ALREADY_USED\"\n        );\n        require(\n            request.state != RequestLibrary.State.CANCELLED,\n            \"ERR_ALREADY_CANCELLED\"\n        );\n        request.state = RequestLibrary.State.CANCELLED;\n        _emitRequest(requestId, request);\n    }\n\n    function removePrincipal(\n        uint256 offerId,\n        address user,\n        uint256 amount\n    ) public override onlyLendingPool {\n        OfferLibrary.Offer storage offer = offers[offerId];\n        require(\n            offer.offerType == OfferLibrary.Type.LENDING_OFFER,\n            \"ERR_OFFER_TYPE\"\n        );\n        require(offer.currentPrincipal >= amount, \"INSUFICIENT_AMOUNT\");\n        require(offer.creator == user, \"ERR_ONLY_LENDER\");\n\n        offer.currentPrincipal -= amount;\n\n        if (amount == offer.initialPrincipal) {\n            offer.state = OfferLibrary.State.CANCELLED;\n        }\n\n        _emitOffer(offerId, offer);\n    }\n\n    function removeCollateral(\n        uint256 offerId,\n        address user,\n        uint256 amount\n    ) public override onlyLendingPool {\n        OfferLibrary.Offer storage offer = offers[offerId];\n        require(\n            offer.offerType == OfferLibrary.Type.BORROWING_OFFER,\n            \"ERR_OFFER_TYPE\"\n        );\n        require(offer.currentCollateral >= amount, \"INSUFICIENT_AMOUNT\");\n        require(offer.creator == user, \"ERR_ONLY_LENDER\");\n\n        offer.currentCollateral -= amount;\n\n        if (amount == offer.initialCollateral) {\n            offer.state = OfferLibrary.State.CANCELLED;\n        }\n\n        _emitOffer(offerId, offer);\n    }\n\n    // events\n    function _emitOffer(uint256 offerId, OfferLibrary.Offer memory offer)\n        private\n    {\n        emit OfferLibrary.OfferCreated(\n            offerId,\n            offer.state,\n            offer.principalToken,\n            offer.currentPrincipal,\n            offer.initialPrincipal,\n            offer.interestRate,\n            offer.daysToMaturity,\n            offer.expiresAt,\n            offer.createdAt,\n            offer.creator,\n            offer.collateralTokens,\n            offer.collateralToken,\n            offer.currentCollateral,\n            offer.initialCollateral,\n            offer.offerType\n        );\n    }\n\n    function _emitRequest(\n        uint256 requestId,\n        RequestLibrary.Request memory request\n    ) private {\n        emit RequestLibrary.RequestCreated(\n            requestId,\n            request.state,\n            request.percentage,\n            request.daysToMaturity,\n            request.interestRate,\n            request.expiresAt,\n            request.createdAt,\n            request.creator,\n            request.offerId,\n            request.collateralToken,\n            request.collateralAmount,\n            request.collateralPriceInUSD,\n            request.ltvUsed,\n            request.requestType\n        );\n    }\n\n    // called after a lending offer loan is executed\n    function afterLendingLoan(uint256 offerId, uint256 principalAmount)\n        public\n        override\n        onlyLendingPool\n    {\n        OfferLibrary.Offer storage offer = offers[offerId];\n        require(\n            offer.currentPrincipal >= principalAmount,\n            \"ERR_INSUFFICIENT_PRINCIPAL\"\n        );\n\n        if (offer.initialCollateral == offer.currentCollateral) {\n            require(offer.expiresAt > block.timestamp, \"ERR_OFFER_EXPIRED\");\n        }\n\n        offers[offerId].currentPrincipal -= principalAmount;\n\n        _emitOffer(offerId, offer);\n    }\n\n    // called after a borrowing offer loan is executed\n    function afterBorrowingLoan(\n        uint256 offerId,\n        uint256 principalAmount,\n        uint256 collateralAmount\n    ) public override onlyLendingPool {\n        OfferLibrary.Offer storage offer = offers[offerId];\n        require(\n            offer.currentPrincipal >= principalAmount,\n            \"ERR_INSUFFICIENT_PRINCIPAL\"\n        );\n        require(\n            offer.currentCollateral >= collateralAmount,\n            \"ERR_INSUFFICIENT_COLLATERAL\"\n        );\n\n        if (offer.initialCollateral == offer.currentCollateral) {\n            require(offer.expiresAt > block.timestamp, \"ERR_OFFER_EXPIRED\");\n        }\n\n        offer.currentPrincipal -= principalAmount;\n        offer.currentCollateral -= collateralAmount;\n\n        _emitOffer(offerId, offer);\n    }\n\n    // checks if a offer support collateral token\n    function isCollateralSupported(uint256 offerId, address token)\n        public\n        view\n        override\n        returns (bool)\n    {\n        OfferLibrary.Offer memory offer = offers[offerId];\n        bool supported = false;\n        for (\n            uint256 index = 0;\n            index < offer.collateralTokens.length;\n            index++\n        ) {\n            if (offer.collateralTokens[index] == token) {\n                supported = true;\n                break;\n            }\n        }\n        return supported;\n    }\n\n    // getters\n    function getOffer(uint256 offerId)\n        public\n        view\n        override\n        returns (OfferLibrary.Offer memory)\n    {\n        return offers[offerId];\n    }\n\n    function getRequest(uint256 requestId)\n        public\n        view\n        override\n        returns (RequestLibrary.Request memory)\n    {\n        return requests[requestId];\n    }\n\n    function setLendingPool(address address_) public onlyOwner {\n        lendingPool = address_;\n    }\n\n    modifier onlyLendingPool() {\n        require(msg.sender == lendingPool);\n        _;\n    }\n}\n",
  "sourcePath": "/home/runner/smart-contracts/contracts/managers/OfferManager.sol",
  "compiler": {
    "name": "solc",
    "version": "0.8.17+commit.8df45f5f.Emscripten.clang"
  },
  "schemaVersion": "3.4.13",
  "updatedAt": "2024-07-31T05:00:17.007Z",
  "networkType": "ethereum",
  "devdoc": {
    "kind": "dev",
    "methods": {
      "acceptOwnership()": {
        "details": "The new owner accepts the ownership transfer."
      },
      "owner()": {
        "details": "Returns the address of the current owner."
      },
      "pendingOwner()": {
        "details": "Returns the address of the pending owner."
      },
      "renounceOwnership()": {
        "details": "Leaves the contract without owner. It will not be possible to call `onlyOwner` functions anymore. Can only be called by the current owner. NOTE: Renouncing ownership will leave the contract without an owner, thereby removing any functionality that is only available to the owner."
      },
      "transferOwnership(address)": {
        "details": "Starts the ownership transfer of the contract to a new account. Replaces the pending transfer if there is one. Can only be called by the current owner."
      }
    },
    "version": 1
  },
  "userdoc": {
    "kind": "user",
    "methods": {},
    "version": 1
  }
}