{
  "contractName": "PriceFeed",
  "abi": [
    {
      "inputs": [],
      "stateMutability": "nonpayable",
      "type": "constructor"
    },
    {
      "anonymous": false,
      "inputs": [
        {
          "indexed": true,
          "internalType": "address",
          "name": "previousOwner",
          "type": "address"
        },
        {
          "indexed": true,
          "internalType": "address",
          "name": "newOwner",
          "type": "address"
        }
      ],
      "name": "OwnershipTransferStarted",
      "type": "event"
    },
    {
      "anonymous": false,
      "inputs": [
        {
          "indexed": true,
          "internalType": "address",
          "name": "previousOwner",
          "type": "address"
        },
        {
          "indexed": true,
          "internalType": "address",
          "name": "newOwner",
          "type": "address"
        }
      ],
      "name": "OwnershipTransferred",
      "type": "event"
    },
    {
      "anonymous": false,
      "inputs": [
        {
          "indexed": false,
          "internalType": "uint256",
          "name": "timestamp",
          "type": "uint256"
        },
        {
          "indexed": true,
          "internalType": "address",
          "name": "token",
          "type": "address"
        },
        {
          "indexed": true,
          "internalType": "address",
          "name": "priceFeed",
          "type": "address"
        }
      ],
      "name": "PriceFeedAdded",
      "type": "event"
    },
    {
      "inputs": [],
      "name": "acceptOwnership",
      "outputs": [],
      "stateMutability": "nonpayable",
      "type": "function"
    },
    {
      "inputs": [],
      "name": "owner",
      "outputs": [
        {
          "internalType": "address",
          "name": "",
          "type": "address"
        }
      ],
      "stateMutability": "view",
      "type": "function",
      "constant": true
    },
    {
      "inputs": [],
      "name": "pendingOwner",
      "outputs": [
        {
          "internalType": "address",
          "name": "",
          "type": "address"
        }
      ],
      "stateMutability": "view",
      "type": "function",
      "constant": true
    },
    {
      "inputs": [],
      "name": "renounceOwnership",
      "outputs": [],
      "stateMutability": "nonpayable",
      "type": "function"
    },
    {
      "inputs": [
        {
          "internalType": "address",
          "name": "newOwner",
          "type": "address"
        }
      ],
      "name": "transferOwnership",
      "outputs": [],
      "stateMutability": "nonpayable",
      "type": "function"
    },
    {
      "inputs": [
        {
          "internalType": "address",
          "name": "usd_",
          "type": "address"
        }
      ],
      "name": "addUSDFeed",
      "outputs": [],
      "stateMutability": "nonpayable",
      "type": "function"
    },
    {
      "inputs": [
        {
          "internalType": "address",
          "name": "_tokenAddress",
          "type": "address"
        },
        {
          "internalType": "address",
          "name": "_chainlinkPriceFeed",
          "type": "address"
        }
      ],
      "name": "addPriceFeed",
      "outputs": [],
      "stateMutability": "nonpayable",
      "type": "function"
    },
    {
      "inputs": [
        {
          "internalType": "address",
          "name": "_tokenAddress",
          "type": "address"
        }
      ],
      "name": "getLatestPriceUSD",
      "outputs": [
        {
          "internalType": "uint256",
          "name": "",
          "type": "uint256"
        },
        {
          "internalType": "uint8",
          "name": "",
          "type": "uint8"
        }
      ],
      "stateMutability": "view",
      "type": "function",
      "constant": true
    },
    {
      "inputs": [
        {
          "internalType": "address",
          "name": "_tokenAddress",
          "type": "address"
        },
        {
          "internalType": "uint256",
          "name": "_amount",
          "type": "uint256"
        }
      ],
      "name": "amountInUSD",
      "outputs": [
        {
          "internalType": "uint256",
          "name": "",
          "type": "uint256"
        }
      ],
      "stateMutability": "view",
      "type": "function",
      "constant": true
    },
    {
      "inputs": [
        {
          "internalType": "address",
          "name": "_base",
          "type": "address"
        },
        {
          "internalType": "address",
          "name": "_quote",
          "type": "address"
        },
        {
          "internalType": "uint256",
          "name": "_amount",
          "type": "uint256"
        }
      ],
      "name": "exchangeRate",
      "outputs": [
        {
          "internalType": "uint256",
          "name": "",
          "type": "uint256"
        }
      ],
      "stateMutability": "view",
      "type": "function",
      "constant": true
    }
  ],
  "bytecode": "0x6080806040523461006357600180546001600160a01b03199081169091556000805433928116831782556001600160a01b0316907f8be0079c531659141344cd1fd0a4f28419497f9722a3daafe3b4186f6b6457e09080a36106bd90816100698239f35b600080fdfe604060808152600436101561001357600080fd5b600090813560e01c90816343a7b0c1146103a6578163701f660414610374578163715018a61461031257816379ba50971461023d5781638da5cb5b14610217578163912d228f146101da57816398d423a1146101a6578163e30c39781461017e578163e8a97a3e146100fb575063f2fde38b1461008f57600080fd5b346100f85760203660031901126100f8576100a86103fa565b6100b061042b565b6001600160a01b0380911690816001600160a01b031960015416176001558254167f38d16b8cac22d99fc7c124b9cd0de2d3fa1faef420bfe791d8c362d765e227008380a380f35b80fd5b90503461017a578060031936011261017a576101156103fa565b7f1d6faa3aebf3e2db1b9604d052181d2eb65633d2d8f8612f39beacc8e6a8882c6020610140610415565b9361014961042b565b6001600160a01b038094169384875260028352818720951694856001600160a01b031982541617905551428152a380f35b5080fd5b90503461017a578160031936011261017a576020906001600160a01b03600154169051908152f35b82346100f85760203660031901126100f8575060ff6101cb6101c66103fa565b61049a565b83519182529091166020820152f35b90503461017a578060031936011261017a576020906102106101fa6103fa565b602435906001600160a01b036003541690610629565b9051908152f35b90503461017a578160031936011261017a576001600160a01b0360209254169051908152f35b90503461017a578160031936011261017a57600154906001600160a01b039033828416036102a957506001600160a01b0319809216600155825491339083161783553391167f8be0079c531659141344cd1fd0a4f28419497f9722a3daafe3b4186f6b6457e08380a380f35b6084905162461bcd60e51b815260206004820152602960248201527f4f776e61626c6532537465703a2063616c6c6572206973206e6f74207468652060448201527f6e6577206f776e657200000000000000000000000000000000000000000000006064820152fd5b82346100f857806003193601126100f85761032b61042b565b806001600160a01b036001600160a01b0319806001541660015582549081168355167f8be0079c531659141344cd1fd0a4f28419497f9722a3daafe3b4186f6b6457e08280a380f35b90503461017a57606036600319011261017a576020906102106103956103fa565b61039d610415565b60443591610629565b90503461017a57602036600319011261017a576001600160a01b036103c96103fa565b6103d161042b565b166001600160a01b03199181836003541617600355818452600260205283209182541617905580f35b600435906001600160a01b038216820361041057565b600080fd5b602435906001600160a01b038216820361041057565b6001600160a01b0360005416330361043f57565b606460405162461bcd60e51b815260206004820152602060248201527f4f776e61626c653a2063616c6c6572206973206e6f7420746865206f776e65726044820152fd5b519069ffffffffffffffffffff8216820361041057565b906001600160a01b038092166000928184526002602052604091818386205416156105e6576004929160a0918652600260205282862054168251938480927ffeaf968c0000000000000000000000000000000000000000000000000000000082525afa9384156105db5780928195610560575b5082131561051d57509160ff1690565b6064905162461bcd60e51b815260206004820152600f60248201527f4552525f5a45524f5f414e5357455200000000000000000000000000000000006044820152fd5b9250935060a03d81116105d4575b601f8101601f1916830167ffffffffffffffff8111848210176105c05760a09184918452810103126105bc576105a382610483565b506105b5608060208401519301610483565b933861050d565b8380fd5b602486634e487b7160e01b81526041600452fd5b503d61056e565b9051903d90823e3d90fd5b6064835162461bcd60e51b815260206004820152601160248201527f4552525f544f4b454e5f414444524553530000000000000000000000000000006044820152fd5b61063861063f9193929361049a565b509261049a565b509181810291818304149015171561067157811561065b570490565b634e487b7160e01b600052601260045260246000fd5b634e487b7160e01b600052601160045260246000fdfea264697066735822122078dc62f673e82837fd48446aa3bc622fdd7ac146693ba9139d657ab58836a80764736f6c63430008110033",
  "immutableReferences": {},
  "source": "// SPDX-License-Identifier: MIT\npragma solidity ^0.8.17;\n\nimport \"./libraries/Errors.sol\";\n\nimport \"./interfaces/IPriceFeed.sol\";\n\nimport \"@openzeppelin/contracts/access/Ownable2Step.sol\";\nimport \"@chainlink/contracts/src/v0.8/interfaces/AggregatorV3Interface.sol\";\n\ncontract PriceFeed is Ownable2Step, IPriceFeed {\n    mapping(address => address) feedAddresses;\n\n    address private USD;\n\n    event PriceFeedAdded(\n        uint256 timestamp,\n        address indexed token,\n        address indexed priceFeed\n    );\n\n    constructor() Ownable2Step() {}\n\n    function addUSDFeed(address usd_) external onlyOwner {\n        USD = usd_;\n        feedAddresses[usd_] = usd_;\n    }\n\n    /// @dev function for owner to add more price feeds\n    function addPriceFeed(address _tokenAddress, address _chainlinkPriceFeed)\n        external\n        onlyOwner\n    {\n        feedAddresses[_tokenAddress] = _chainlinkPriceFeed;\n        emit PriceFeedAdded(\n            block.timestamp,\n            _tokenAddress,\n            _chainlinkPriceFeed\n        );\n    }\n\n    /* Returns the latest price */\n    function getLatestPriceUSD(address _tokenAddress)\n        public\n        view\n        override\n        returns (uint256, uint8)\n    {\n        require(\n            feedAddresses[_tokenAddress] != address(0),\n            \"ERR_TOKEN_ADDRESS\"\n        );\n\n        AggregatorV3Interface priceFeed = AggregatorV3Interface(\n            feedAddresses[_tokenAddress]\n        );\n\n        (, int256 answer, , , uint80 decimal) = priceFeed.latestRoundData();\n        require(answer > 0, \"ERR_ZERO_ANSWER\");\n\n        return (uint256(answer), uint8(decimal));\n    }\n\n    function amountInUSD(address _tokenAddress, uint256 _amount)\n        public\n        view\n        override\n        returns (uint256)\n    {\n        return exchangeRate(_tokenAddress, USD, _amount);\n    }\n\n    function exchangeRate(\n        address _base,\n        address _quote,\n        uint256 _amount\n    ) public view override returns (uint256) {\n        (uint256 basePrice, ) = getLatestPriceUSD(_base);\n        (uint256 quotePrice, ) = getLatestPriceUSD(_quote);\n\n        return (basePrice * _amount) / quotePrice;\n    }\n}\n",
  "sourcePath": "/home/runner/smart-contracts/contracts/PriceFeed.sol",
  "compiler": {
    "name": "solc",
    "version": "0.8.17+commit.8df45f5f.Emscripten.clang"
  },
  "schemaVersion": "3.4.13",
  "updatedAt": "2024-07-31T05:01:52.418Z",
  "networkType": "ethereum",
  "devdoc": {
    "kind": "dev",
    "methods": {
      "acceptOwnership()": {
        "details": "The new owner accepts the ownership transfer."
      },
      "addPriceFeed(address,address)": {
        "details": "function for owner to add more price feeds"
      },
      "owner()": {
        "details": "Returns the address of the current owner."
      },
      "pendingOwner()": {
        "details": "Returns the address of the pending owner."
      },
      "renounceOwnership()": {
        "details": "Leaves the contract without owner. It will not be possible to call `onlyOwner` functions anymore. Can only be called by the current owner. NOTE: Renouncing ownership will leave the contract without an owner, thereby removing any functionality that is only available to the owner."
      },
      "transferOwnership(address)": {
        "details": "Starts the ownership transfer of the contract to a new account. Replaces the pending transfer if there is one. Can only be called by the current owner."
      }
    },
    "version": 1
  },
  "userdoc": {
    "kind": "user",
    "methods": {},
    "version": 1
  }
}