{
  "contractName": "ZapsterNFT",
  "abi": [
    {
      "inputs": [],
      "stateMutability": "nonpayable",
      "type": "constructor"
    },
    {
      "anonymous": false,
      "inputs": [
        {
          "indexed": true,
          "internalType": "address",
          "name": "owner",
          "type": "address"
        },
        {
          "indexed": true,
          "internalType": "address",
          "name": "approved",
          "type": "address"
        },
        {
          "indexed": true,
          "internalType": "uint256",
          "name": "tokenId",
          "type": "uint256"
        }
      ],
      "name": "Approval",
      "type": "event"
    },
    {
      "anonymous": false,
      "inputs": [
        {
          "indexed": true,
          "internalType": "address",
          "name": "owner",
          "type": "address"
        },
        {
          "indexed": true,
          "internalType": "address",
          "name": "operator",
          "type": "address"
        },
        {
          "indexed": false,
          "internalType": "bool",
          "name": "approved",
          "type": "bool"
        }
      ],
      "name": "ApprovalForAll",
      "type": "event"
    },
    {
      "anonymous": false,
      "inputs": [
        {
          "indexed": true,
          "internalType": "address",
          "name": "previousOwner",
          "type": "address"
        },
        {
          "indexed": true,
          "internalType": "address",
          "name": "newOwner",
          "type": "address"
        }
      ],
      "name": "OwnershipTransferStarted",
      "type": "event"
    },
    {
      "anonymous": false,
      "inputs": [
        {
          "indexed": true,
          "internalType": "address",
          "name": "previousOwner",
          "type": "address"
        },
        {
          "indexed": true,
          "internalType": "address",
          "name": "newOwner",
          "type": "address"
        }
      ],
      "name": "OwnershipTransferred",
      "type": "event"
    },
    {
      "anonymous": false,
      "inputs": [
        {
          "indexed": true,
          "internalType": "address",
          "name": "from",
          "type": "address"
        },
        {
          "indexed": true,
          "internalType": "address",
          "name": "to",
          "type": "address"
        },
        {
          "indexed": true,
          "internalType": "uint256",
          "name": "tokenId",
          "type": "uint256"
        }
      ],
      "name": "Transfer",
      "type": "event"
    },
    {
      "inputs": [],
      "name": "acceptOwnership",
      "outputs": [],
      "stateMutability": "nonpayable",
      "type": "function"
    },
    {
      "inputs": [
        {
          "internalType": "address",
          "name": "to",
          "type": "address"
        },
        {
          "internalType": "uint256",
          "name": "tokenId",
          "type": "uint256"
        }
      ],
      "name": "approve",
      "outputs": [],
      "stateMutability": "nonpayable",
      "type": "function"
    },
    {
      "inputs": [
        {
          "internalType": "address",
          "name": "owner",
          "type": "address"
        }
      ],
      "name": "balanceOf",
      "outputs": [
        {
          "internalType": "uint256",
          "name": "",
          "type": "uint256"
        }
      ],
      "stateMutability": "view",
      "type": "function"
    },
    {
      "inputs": [
        {
          "internalType": "uint256",
          "name": "tokenId",
          "type": "uint256"
        }
      ],
      "name": "getApproved",
      "outputs": [
        {
          "internalType": "address",
          "name": "",
          "type": "address"
        }
      ],
      "stateMutability": "view",
      "type": "function"
    },
    {
      "inputs": [
        {
          "internalType": "address",
          "name": "owner",
          "type": "address"
        },
        {
          "internalType": "address",
          "name": "operator",
          "type": "address"
        }
      ],
      "name": "isApprovedForAll",
      "outputs": [
        {
          "internalType": "bool",
          "name": "",
          "type": "bool"
        }
      ],
      "stateMutability": "view",
      "type": "function"
    },
    {
      "inputs": [],
      "name": "name",
      "outputs": [
        {
          "internalType": "string",
          "name": "",
          "type": "string"
        }
      ],
      "stateMutability": "view",
      "type": "function"
    },
    {
      "inputs": [],
      "name": "owner",
      "outputs": [
        {
          "internalType": "address",
          "name": "",
          "type": "address"
        }
      ],
      "stateMutability": "view",
      "type": "function"
    },
    {
      "inputs": [
        {
          "internalType": "uint256",
          "name": "tokenId",
          "type": "uint256"
        }
      ],
      "name": "ownerOf",
      "outputs": [
        {
          "internalType": "address",
          "name": "",
          "type": "address"
        }
      ],
      "stateMutability": "view",
      "type": "function"
    },
    {
      "inputs": [],
      "name": "pendingOwner",
      "outputs": [
        {
          "internalType": "address",
          "name": "",
          "type": "address"
        }
      ],
      "stateMutability": "view",
      "type": "function"
    },
    {
      "inputs": [],
      "name": "renounceOwnership",
      "outputs": [],
      "stateMutability": "nonpayable",
      "type": "function"
    },
    {
      "inputs": [
        {
          "internalType": "address",
          "name": "from",
          "type": "address"
        },
        {
          "internalType": "address",
          "name": "to",
          "type": "address"
        },
        {
          "internalType": "uint256",
          "name": "tokenId",
          "type": "uint256"
        }
      ],
      "name": "safeTransferFrom",
      "outputs": [],
      "stateMutability": "nonpayable",
      "type": "function"
    },
    {
      "inputs": [
        {
          "internalType": "address",
          "name": "from",
          "type": "address"
        },
        {
          "internalType": "address",
          "name": "to",
          "type": "address"
        },
        {
          "internalType": "uint256",
          "name": "tokenId",
          "type": "uint256"
        },
        {
          "internalType": "bytes",
          "name": "data",
          "type": "bytes"
        }
      ],
      "name": "safeTransferFrom",
      "outputs": [],
      "stateMutability": "nonpayable",
      "type": "function"
    },
    {
      "inputs": [
        {
          "internalType": "address",
          "name": "operator",
          "type": "address"
        },
        {
          "internalType": "bool",
          "name": "approved",
          "type": "bool"
        }
      ],
      "name": "setApprovalForAll",
      "outputs": [],
      "stateMutability": "nonpayable",
      "type": "function"
    },
    {
      "inputs": [
        {
          "internalType": "bytes4",
          "name": "interfaceId",
          "type": "bytes4"
        }
      ],
      "name": "supportsInterface",
      "outputs": [
        {
          "internalType": "bool",
          "name": "",
          "type": "bool"
        }
      ],
      "stateMutability": "view",
      "type": "function"
    },
    {
      "inputs": [],
      "name": "symbol",
      "outputs": [
        {
          "internalType": "string",
          "name": "",
          "type": "string"
        }
      ],
      "stateMutability": "view",
      "type": "function"
    },
    {
      "inputs": [
        {
          "internalType": "uint256",
          "name": "tokenId",
          "type": "uint256"
        }
      ],
      "name": "tokenURI",
      "outputs": [
        {
          "internalType": "string",
          "name": "",
          "type": "string"
        }
      ],
      "stateMutability": "view",
      "type": "function"
    },
    {
      "inputs": [
        {
          "internalType": "address",
          "name": "from",
          "type": "address"
        },
        {
          "internalType": "address",
          "name": "to",
          "type": "address"
        },
        {
          "internalType": "uint256",
          "name": "tokenId",
          "type": "uint256"
        }
      ],
      "name": "transferFrom",
      "outputs": [],
      "stateMutability": "nonpayable",
      "type": "function"
    },
    {
      "inputs": [
        {
          "internalType": "address",
          "name": "newOwner",
          "type": "address"
        }
      ],
      "name": "transferOwnership",
      "outputs": [],
      "stateMutability": "nonpayable",
      "type": "function"
    }
  ],
  "bytecode": "0x60803462000371576040906001600160401b03818301818111838210176200035b578352600b82526020906a2d30b839ba32b934b733bd60a91b828401528351848101818110838211176200035b5785526003808252622d282d60e91b84830152600180546001600160a01b031990811682556000805491821633908117825593979294929390916001600160a01b03167f8be0079c531659141344cd1fd0a4f28419497f9722a3daafe3b4186f6b6457e08380a382518581116200034757600254938585811c951680156200033c575b8886101462000328578190601f95868111620002d4575b5088908683116001146200026f57849262000263575b5050600019828a1b1c191690851b176002555b81519485116200024f5786548481811c9116801562000244575b878210146200023057838111620001e8575b50859285116001146200018257939450849291908362000176575b50501b9160001990841b1c19161790555b516111ba9081620003778239f35b01519250388062000157565b86815285812093958591601f198316915b88838310620001cd5750505010620001b4575b505050811b01905562000168565b015160001983861b60f8161c19169055388080620001a6565b85870151885590960195948501948793509081019062000193565b8782528682208480880160051c82019289891062000226575b0160051c019085905b8281106200021a5750506200013c565b8381550185906200020a565b9250819262000201565b634e487b7160e01b82526022600452602482fd5b90607f16906200012a565b634e487b7160e01b81526041600452602490fd5b015190503880620000fd565b600285528985208894509190601f198416865b8c828210620002bd5750508411620002a4575b505050811b0160025562000110565b0151600019838c1b60f8161c1916905538808062000295565b8385015186558b9790950194938401930162000282565b909150600284528884208680850160051c8201928b86106200031e575b918991869594930160051c01915b8281106200030f575050620000e7565b868155859450899101620002ff565b92508192620002f1565b634e487b7160e01b83526022600452602483fd5b94607f1694620000d0565b634e487b7160e01b82526041600452602482fd5b634e487b7160e01b600052604160045260246000fd5b600080fdfe60806040908082526004918236101561001757600080fd5b600092833560e01c92836301ffc9a7146109c75750826306fdde03146108fa578263081812fc146108d2578263095ea7b31461074657826323b872dd1461071c57826342842e0e146106ce5782636352211e1461069e57826370a08231146105f5578263715018a61461059357826379ba5097146104bd5782638da5cb5b1461049757826395d89b4114610380578263a22cb465146102b1578263b88d4fde14610224578263c87b56dd146101d357508163e30c3978146101ab578163e985e9c514610159575063f2fde38b146100ed57600080fd5b3461015657602036600319011261015657610106610ad6565b61010e610bac565b6001600160a01b0380911690816001600160a01b031960015416176001558254167f38d16b8cac22d99fc7c124b9cd0de2d3fa1faef420bfe791d8c362d765e227008380a380f35b80fd5b9050346101a757806003193601126101a75760ff81602093610179610ad6565b610181610af1565b6001600160a01b0391821683526007875283832091168252855220549151911615158152f35b5080fd5b9050346101a757816003193601126101a7576020906001600160a01b03600154169051908152f35b8382346101a75760203660031901126101a7576101f36102209335610fa4565b8181516101ff81610b3c565b5280519161020c83610b3c565b825251918291602083526020830190610a96565b0390f35b9150346102ad5760803660031901126102ad5761023f610ad6565b610247610af1565b846064359467ffffffffffffffff86116101a757366023870112156101a7578501359461027f61027687610b90565b95519586610b6e565b85855236602487830101116101a757856102aa96602460209301838801378501015260443591610d08565b80f35b8280fd5b9150346102ad57806003193601126102ad576102cb610ad6565b906024359182151580930361037c576001600160a01b03169283331461033a5750338452600760205280842083855260205280842060ff1981541660ff8416179055519081527f17307eab39ab6107e8899845ad3d59bd9653f200f220920489ca2b5937696c3160203392a380f35b6020606492519162461bcd60e51b8352820152601960248201527f4552433732313a20617070726f766520746f2063616c6c6572000000000000006044820152fd5b8480fd5b9083346101565780600319360112610156578151918160035492600184811c9181861695861561048d575b602096878510811461047a578899509688969785829a5291826000146104535750506001146103f7575b50505061022092916103e8910385610b6e565b51928284938452830190610a96565b9190869350600383527fc2575a0e9e593c00f959f8c92f12db2869c3395a3b0502d05e2516446f71f85b5b82841061043b57505050820101816103e86102206103d5565b8054848a018601528895508794909301928101610422565b60ff19168782015293151560051b860190930193508492506103e8915061022090506103d5565b60248360228c634e487b7160e01b835252fd5b92607f16926103ab565b8382346101a757816003193601126101a7576001600160a01b0360209254169051908152f35b9150346102ad57826003193601126102ad57600154916001600160a01b0391338385160361052a5750506001600160a01b0319809216600155825491339083161783553391167f8be0079c531659141344cd1fd0a4f28419497f9722a3daafe3b4186f6b6457e08380a380f35b906020608492519162461bcd60e51b8352820152602960248201527f4f776e61626c6532537465703a2063616c6c6572206973206e6f74207468652060448201527f6e6577206f776e657200000000000000000000000000000000000000000000006064820152fd5b83346101565780600319360112610156576105ac610bac565b806001600160a01b036001600160a01b0319806001541660015582549081168355167f8be0079c531659141344cd1fd0a4f28419497f9722a3daafe3b4186f6b6457e08280a380f35b8390346101a75760203660031901126101a7576001600160a01b03610618610ad6565b169081156106355760208480858581526005845220549051908152f35b608490602085519162461bcd60e51b8352820152602960248201527f4552433732313a2061646472657373207a65726f206973206e6f74206120766160448201527f6c6964206f776e657200000000000000000000000000000000000000000000006064820152fd5b90833461015657602036600319011261015657506001600160a01b036106c660209335610c4f565b915191168152f35b8382346101a7576106de36610b07565b91835193602085019085821067ffffffffffffffff831117610709576102aa96975052858452610d08565b60248760418a634e487b7160e01b835252fd5b8334610156576102aa61072e36610b07565b9161074161073c8433610d9e565b610c97565b610e7d565b909150346102ad57816003193601126102ad57610761610ad6565b90602435926001600160a01b0391828061077a87610c4f565b169416938085146108695780331490811561084a575b50156107e2575083855260066020528420826001600160a01b03198254161790556107ba83610c4f565b167f8c5be1e5ebec7d5bd14f71427d1e84f3dd0314c0f7b2291e5b200ac8c7c3b9258480a480f35b6020608492519162461bcd60e51b8352820152603d60248201527f4552433732313a20617070726f76652063616c6c6572206973206e6f7420746f60448201527f6b656e206f776e6572206f7220617070726f76656420666f7220616c6c0000006064820152fd5b90508652600760205281862033875260205260ff828720541638610790565b506020608492519162461bcd60e51b8352820152602160248201527f4552433732313a20617070726f76616c20746f2063757272656e74206f776e6560448201527f72000000000000000000000000000000000000000000000000000000000000006064820152fd5b90833461015657602036600319011261015657506001600160a01b036106c660209335610c74565b9083346101565780600319360112610156578151918160025492600184811c918186169586156109bd575b602096878510811461047a578899509688969785829a5291826000146104535750506001146109615750505061022092916103e8910385610b6e565b9190869350600283527f405787fa12a823e0f2b7631cc41b3ba8828b3321ca811111fa75cd3aa3bb5ace5b8284106109a557505050820101816103e86102206103d5565b8054848a01860152889550879490930192810161098c565b92607f1692610925565b8491346102ad5760203660031901126102ad57357fffffffff0000000000000000000000000000000000000000000000000000000081168091036102ad57602092507f80ac58cd000000000000000000000000000000000000000000000000000000008114908115610a6c575b8115610a42575b5015158152f35b7f01ffc9a70000000000000000000000000000000000000000000000000000000091501483610a3b565b7f5b5e139f0000000000000000000000000000000000000000000000000000000081149150610a34565b919082519283825260005b848110610ac2575050826000602080949584010152601f8019910116010190565b602081830181015184830182015201610aa1565b600435906001600160a01b0382168203610aec57565b600080fd5b602435906001600160a01b0382168203610aec57565b6060906003190112610aec576001600160a01b03906004358281168103610aec57916024359081168103610aec579060443590565b6020810190811067ffffffffffffffff821117610b5857604052565b634e487b7160e01b600052604160045260246000fd5b90601f8019910116810190811067ffffffffffffffff821117610b5857604052565b67ffffffffffffffff8111610b5857601f01601f191660200190565b6001600160a01b03600054163303610bc057565b606460405162461bcd60e51b815260206004820152602060248201527f4f776e61626c653a2063616c6c6572206973206e6f7420746865206f776e65726044820152fd5b15610c0b57565b606460405162461bcd60e51b815260206004820152601860248201527f4552433732313a20696e76616c696420746f6b656e20494400000000000000006044820152fd5b60005260046020526001600160a01b0360406000205416610c71811515610c04565b90565b610c7d81610fa4565b60005260066020526001600160a01b036040600020541690565b15610c9e57565b608460405162461bcd60e51b815260206004820152602d60248201527f4552433732313a2063616c6c6572206973206e6f7420746f6b656e206f776e6560448201527f72206f7220617070726f766564000000000000000000000000000000000000006064820152fd5b90610d2c939291610d1c61073c8433610d9e565b610d27838383610e7d565b610fc7565b15610d3357565b60405162461bcd60e51b815260206004820152603260248201527f4552433732313a207472616e7366657220746f206e6f6e20455243373231526560448201527f63656976657220696d706c656d656e74657200000000000000000000000000006064820152608490fd5b906001600160a01b038080610db284610c4f565b16931691838314938415610de5575b508315610dcf575b50505090565b610ddb91929350610c74565b1614388080610dc9565b909350600052600760205260406000208260005260205260ff604060002054169238610dc1565b15610e1357565b608460405162461bcd60e51b815260206004820152602560248201527f4552433732313a207472616e736665722066726f6d20696e636f72726563742060448201527f6f776e65720000000000000000000000000000000000000000000000000000006064820152fd5b90610ea591610e8b84610c4f565b916001600160a01b03938493848094169485911614610e0c565b16918215610f3b5781610ec291610ebb86610c4f565b1614610e0c565b7fddf252ad1be2c89b69c2b068fc378daa952ba7f163c4a11628f55a4df523b3ef60008481526006602052604081206001600160a01b03199081815416905583825260056020526040822060001981540190558482526040822060018154019055858252600460205284604083209182541617905580a4565b608460405162461bcd60e51b8152602060048201526024808201527f4552433732313a207472616e7366657220746f20746865207a65726f2061646460448201527f72657373000000000000000000000000000000000000000000000000000000006064820152fd5b6000526004602052610fc56001600160a01b03604060002054161515610c04565b565b9293600093909291803b156111795794849161103b96604051809481937f150b7a0200000000000000000000000000000000000000000000000000000000978884523360048501526001600160a01b0380921660248501526044840152608060648401528260209b8c976084830190610a96565b0393165af1849181611121575b506110f8575050503d6000146110f0573d61106281610b90565b906110706040519283610b6e565b81528091833d92013e5b805191826110ed5760405162461bcd60e51b815260206004820152603260248201527f4552433732313a207472616e7366657220746f206e6f6e20455243373231526560448201527f63656976657220696d706c656d656e74657200000000000000000000000000006064820152608490fd5b01fd5b50606061107a565b7fffffffff00000000000000000000000000000000000000000000000000000000161492509050565b9091508581813d8311611172575b6111398183610b6e565b8101031261037c57517fffffffff000000000000000000000000000000000000000000000000000000008116810361037c579038611048565b503d61112f565b50505091505060019056fea264697066735822122015b5d9d2c4c4fe4a97dfa394749b3c4136e7ffef4b794ce1c05869c3d66be9a364736f6c63430008110033",
  "immutableReferences": {},
  "source": "// SPDX-License-Identifier: MIT\npragma solidity ^0.8.17;\n\nimport \"@openzeppelin/contracts/access/Ownable2Step.sol\";\nimport \"@openzeppelin/contracts/token/ERC721/ERC721.sol\";\n\ncontract ZapsterNFT is Ownable2Step, ERC721 {\n    constructor() Ownable2Step() ERC721(\"Zapsteringz\", \"ZPZ\") {}\n}\n",
  "sourcePath": "/home/runner/smart-contracts/contracts/governanace/ZapsterNFT.sol",
  "compiler": {
    "name": "solc",
    "version": "0.8.17+commit.8df45f5f.Emscripten.clang"
  },
  "schemaVersion": "3.4.13",
  "updatedAt": "2024-07-31T04:56:55.961Z",
  "devdoc": {
    "kind": "dev",
    "methods": {
      "acceptOwnership()": {
        "details": "The new owner accepts the ownership transfer."
      },
      "approve(address,uint256)": {
        "details": "See {IERC721-approve}."
      },
      "balanceOf(address)": {
        "details": "See {IERC721-balanceOf}."
      },
      "getApproved(uint256)": {
        "details": "See {IERC721-getApproved}."
      },
      "isApprovedForAll(address,address)": {
        "details": "See {IERC721-isApprovedForAll}."
      },
      "name()": {
        "details": "See {IERC721Metadata-name}."
      },
      "owner()": {
        "details": "Returns the address of the current owner."
      },
      "ownerOf(uint256)": {
        "details": "See {IERC721-ownerOf}."
      },
      "pendingOwner()": {
        "details": "Returns the address of the pending owner."
      },
      "renounceOwnership()": {
        "details": "Leaves the contract without owner. It will not be possible to call `onlyOwner` functions anymore. Can only be called by the current owner. NOTE: Renouncing ownership will leave the contract without an owner, thereby removing any functionality that is only available to the owner."
      },
      "safeTransferFrom(address,address,uint256)": {
        "details": "See {IERC721-safeTransferFrom}."
      },
      "safeTransferFrom(address,address,uint256,bytes)": {
        "details": "See {IERC721-safeTransferFrom}."
      },
      "setApprovalForAll(address,bool)": {
        "details": "See {IERC721-setApprovalForAll}."
      },
      "supportsInterface(bytes4)": {
        "details": "See {IERC165-supportsInterface}."
      },
      "symbol()": {
        "details": "See {IERC721Metadata-symbol}."
      },
      "tokenURI(uint256)": {
        "details": "See {IERC721Metadata-tokenURI}."
      },
      "transferFrom(address,address,uint256)": {
        "details": "See {IERC721-transferFrom}."
      },
      "transferOwnership(address)": {
        "details": "Starts the ownership transfer of the contract to a new account. Replaces the pending transfer if there is one. Can only be called by the current owner."
      }
    },
    "version": 1
  },
  "userdoc": {
    "kind": "user",
    "methods": {},
    "version": 1
  }
}