{
  "contractName": "ZapsterScore",
  "abi": [
    {
      "inputs": [],
      "stateMutability": "nonpayable",
      "type": "constructor"
    },
    {
      "anonymous": false,
      "inputs": [
        {
          "indexed": true,
          "internalType": "address",
          "name": "previousOwner",
          "type": "address"
        },
        {
          "indexed": true,
          "internalType": "address",
          "name": "newOwner",
          "type": "address"
        }
      ],
      "name": "OwnershipTransferStarted",
      "type": "event"
    },
    {
      "anonymous": false,
      "inputs": [
        {
          "indexed": true,
          "internalType": "address",
          "name": "previousOwner",
          "type": "address"
        },
        {
          "indexed": true,
          "internalType": "address",
          "name": "newOwner",
          "type": "address"
        }
      ],
      "name": "OwnershipTransferred",
      "type": "event"
    },
    {
      "inputs": [],
      "name": "acceptOwnership",
      "outputs": [],
      "stateMutability": "nonpayable",
      "type": "function"
    },
    {
      "inputs": [],
      "name": "owner",
      "outputs": [
        {
          "internalType": "address",
          "name": "",
          "type": "address"
        }
      ],
      "stateMutability": "view",
      "type": "function",
      "constant": true
    },
    {
      "inputs": [],
      "name": "pendingOwner",
      "outputs": [
        {
          "internalType": "address",
          "name": "",
          "type": "address"
        }
      ],
      "stateMutability": "view",
      "type": "function",
      "constant": true
    },
    {
      "inputs": [],
      "name": "renounceOwnership",
      "outputs": [],
      "stateMutability": "nonpayable",
      "type": "function"
    },
    {
      "inputs": [
        {
          "internalType": "address",
          "name": "newOwner",
          "type": "address"
        }
      ],
      "name": "transferOwnership",
      "outputs": [],
      "stateMutability": "nonpayable",
      "type": "function"
    },
    {
      "inputs": [
        {
          "internalType": "address",
          "name": "user",
          "type": "address"
        }
      ],
      "name": "getScore",
      "outputs": [
        {
          "internalType": "uint16",
          "name": "",
          "type": "uint16"
        }
      ],
      "stateMutability": "view",
      "type": "function",
      "constant": true
    },
    {
      "inputs": [
        {
          "internalType": "address",
          "name": "activity_",
          "type": "address"
        }
      ],
      "name": "setActivity",
      "outputs": [],
      "stateMutability": "nonpayable",
      "type": "function"
    }
  ],
  "bytecode": "0x6080806040523461006357600180546001600160a01b03199081169091556000805433928116831782556001600160a01b0316907f8be0079c531659141344cd1fd0a4f28419497f9722a3daafe3b4186f6b6457e09080a361154b90816100698239f35b600080fdfe60406080815260048036101561001457600080fd5b600091823560e01c908163715018a61461128657816379ba5097146111a35781638da5cb5b1461117d578163d47875d014610161578163e30c39781461013957508063e3f43fdb146100ec5763f2fde38b1461006f57600080fd5b346100e85760203660031901126100e857356001600160a01b038082168092036100e45761009b6112f5565b8173ffffffffffffffffffffffffffffffffffffffff1960015416176001558254167f38d16b8cac22d99fc7c124b9cd0de2d3fa1faef420bfe791d8c362d765e227008380a380f35b8280fd5b5080fd5b50346100e85760203660031901126100e857356001600160a01b0381168091036100e8576101186112f5565b73ffffffffffffffffffffffffffffffffffffffff19600254161760025580f35b8390346100e857816003193601126100e8576020906001600160a01b03600154169051908152f35b9050823461117a57602092836003193601126100e8578035916001600160a01b03918284168094036100e85760029183835416908651937f66d13fb600000000000000000000000000000000000000000000000000000000855286848601526101609260249380878681855afa96871561068057849761109b575b505082908951987f9445ae040000000000000000000000000000000000000000000000000000000092838b5281888c01528c8b8881865afa9a8b1561109157869b611056575b508461ffff809c1611600014610f0f5761023b90611431565b8b5184815282898201528d818981875afa9081156106cd5786918d918991610ed6575b50161115610cf55761026f90611444565b8b5184815282898201528d818981875afa9081156106cd5786918d918991610cbc575b50161115610b71576102a39061141e565b8b5184815282898201528d818981875afa9081156106cd5786918d918991610b38575b50161115610958576102d79061141e565b8b5184815282898201528d818981875afa9081156106cd5786918d91899161091f575b501611156107105761030b90611431565b925b8b5181815282898201528d818981875afa9081156106cd5786918d9189916106d7575b501611156104a65750505090610347608092611444565b905b60e0870151891680610477575050610360906113fb565b610100860151806104365750610375906113fb565b955b421694018051801560001461039e575050505050506103959061140b565b915b5191168152f35b6213c6808101809111610424578510156103c65750505050506103c0906113fb565b91610397565b80516220f5808101809111610424578510156103ea5750505050506103c0906113d5565b5192623b5380840180941161041457505050111561040b576103c0906114c9565b6103c09061141e565b601190634e487b7160e01b835252fd5b5050601183634e487b7160e01b835252fd5b6801158e460913d000008111610456575061045090611431565b95610377565b6802b5e3af16b18800001061046e5761045090611502565b610450906114ef565b6001810361048f57505061048a90611431565b610360565b0361049d5761048a90611502565b61048a906114ef565b8b5181815282898201528d818981875afa9081156106cd5791868f94938a938f918b9161068a575b5016036104ec575050505050906104e6608092611431565b90610349565b8d51948593849283528b8301525afa90811561068057908991859161063a575b50608093929116600103610523576104e69061141e565b60c0870151680821ab0d441498000081111561054357506104e6906113fb565b68068155a43676e0000081111561055e57506104e6906113e8565b68056bc75e2d6310000081111561057957506104e6906113d5565b6804563918244f40000081111561059457506104e6906113c2565b680340aad21b3b7000008111156105af57506104e690611399565b680270801d946c9400008111156105ca57506104e69061141e565b68015af1d78b58c400008111156105e557506104e690611490565b67d02ab486cedc00008111156105ff57506104e69061147d565b678ac7230489e8000081111561061957506104e69061146a565b674563918244f400001015610631576104e690611457565b6104e690611444565b8092508c8092503d8311610679575b610653818361134d565b81010312610675579060018961066b60809594611385565b915091929361050c565b8380fd5b503d610649565b8a513d86823e3d90fd5b9450505050919281813d83116106c6575b6106a5818361134d565b810103126106c2578d9291868d6106bc8b94611385565b386104ce565b8680fd5b503d61069b565b8d513d89823e3d90fd5b925050508d81813d8311610709575b6106f0818361134d565b810103126106c2578b6107038792611385565b38610330565b503d6106e6565b8b5184815282898201528d818981875afa9081156106cd5786918d9189916108e6575b501603610749576107439061141e565b9261030d565b8b5184815282898201528d818981875afa80156106cd578c9088906108af575b1660011415905061077d576107439061140b565b8a60a08a01516907695a92c20d6fe0000081116000146107a2575050610743906113fb565b69054b40b1f852bda000008111156107bf575050610743906114dc565b6903635c9adc5dea0000008111156107dc575050610743906113e8565b69028a857425466f8000008111156107f9575050610743906114a3565b6901e7e4171bf4d3a000008111156108165750506107439061140b565b69014542ba12a337c00000811115610833575050610743906114c9565b68bdbc41e0348b30000081111561084f575050610743906114b6565b686c6b935b8bbd400000811115610884575016600b018a8111610872579261030d565b868660118a634e487b7160e01b835252fd5b681b1ae4d6e2ef50000010156108a55716600d018a8111610872579261030d565b5061074390611431565b50508d81813d83116108df575b6108c6818361134d565b810103126106c2578b6108da600192611385565b610769565b503d6108bc565b925050508d81813d8311610918575b6108ff818361134d565b810103126106c2578b6109128792611385565b38610733565b503d6108f5565b925050508d81813d8311610951575b610938818361134d565b810103126106c2578b61094b8792611385565b386102fa565b503d61092e565b8b5184815282898201528d818981875afa9081156106cd5786918d918991610aff575b5016036109905761098b90611399565b6102d7565b8b5184815282898201528d818981875afa80156106cd578c908890610ac8575b166001141590506109c45761098b906113c2565b888c01516907695a92c20d6fe000008111156109e4575061098b906113fb565b69054b40b1f852bda00000811115610a00575061098b906114dc565b6903635c9adc5dea000000811115610a1c575061098b906113e8565b69028a857425466f800000811115610a38575061098b906114a3565b6901e7e4171bf4d3a00000811115610a54575061098b906113d5565b69014542ba12a337c00000811115610a70575061098b906113c2565b68bdbc41e0348b300000811115610a8b575061098b906114c9565b686c6b935b8bbd400000811115610aa6575061098b90611399565b681b1ae4d6e2ef5000001015610abf5761098b906114b6565b61098b9061141e565b50508d81813d8311610af8575b610adf818361134d565b810103126106c2578b610af3600192611385565b6109b0565b503d610ad5565b925050508d81813d8311610b31575b610b18818361134d565b810103126106c2578b610b2b8792611385565b3861097b565b503d610b0e565b925050508d81813d8311610b6a575b610b51818361134d565b810103126106c2578b610b648792611385565b386102c6565b503d610b47565b8b5184815282898201528d818981875afa9081156106cd5786918d918991610c83575b501603610ba957610ba4906113c2565b6102a3565b8b5184815282898201528d818981875afa80156106cd578c908890610c4c575b16600114159050610bdd57610ba4906114a3565b848b8a5116601a8111600014610bf8575050610ba4906113fb565b6012811115610c0c575050610ba4906113e8565b600a811115610c20575050610ba4906113d5565b6005811115610c34575050610ba4906113c2565b1115610c4357610ba490611399565b610ba49061141e565b50508d81813d8311610c7c575b610c63818361134d565b810103126106c2578b610c77600192611385565b610bc9565b503d610c59565b925050508d81813d8311610cb5575b610c9c818361134d565b810103126106c2578b610caf8792611385565b38610b94565b503d610c92565b925050508d81813d8311610cee575b610cd5818361134d565b810103126106c2578b610ce88792611385565b38610292565b503d610ccb565b8b5184815282898201528d818981875afa9081156106cd5786918d918991610e9d575b501603610d2d57610d2890611431565b61026f565b8b5184815282898201528d818981875afa80156106cd578c908890610e66575b16600114159050610d6157610d289061141e565b60608901516907695a92c20d6fe00000811115610d825750610d28906113fb565b69054b40b1f852bda00000811115610d9e5750610d28906114a3565b6903635c9adc5dea000000811115610dba5750610d28906113c2565b69028a857425466f800000811115610dd65750610d2890611399565b6901e7e4171bf4d3a00000811115610df25750610d289061141e565b69014542ba12a337c00000811115610e0e5750610d2890611490565b68bdbc41e0348b300000811115610e295750610d289061147d565b686c6b935b8bbd400000811115610e445750610d289061146a565b681b1ae4d6e2ef5000001015610e5d57610d2890611457565b610d2890611444565b50508d81813d8311610e96575b610e7d818361134d565b810103126106c2578b610e91600192611385565b610d4d565b503d610e73565b925050508d81813d8311610ecf575b610eb6818361134d565b810103126106c2578b610ec98792611385565b38610d18565b503d610eac565b925050508d81813d8311610f08575b610eef818361134d565b810103126106c2578b610f028792611385565b3861025e565b503d610ee5565b8b5184815282898201528d818981875afa9081156106cd5786918d91899161101d575b501603610f4757610f429061141e565b61023b565b8b5184815282898201528d818981875afa80156106cd578c908890610fe6575b16600114159050610f7b57610f429061140b565b888d01518b16601e811115610f945750610f42906113fb565b6015811115610fa75750610f42906113e8565b600d811115610fba5750610f42906113d5565b6007811115610fcd5750610f42906113c2565b60031015610fde57610f4290611399565b50600a61023b565b50508d81813d8311611016575b610ffd818361134d565b810103126106c2578b611011600192611385565b610f67565b503d610ff3565b925050508d81813d831161104f575b611036818361134d565b810103126106c2578b6110498792611385565b38610f32565b503d61102c565b909a508c81813d831161108a575b61106e818361134d565b810103126110865761107f90611385565b998d610222565b8580fd5b503d611064565b8c513d88823e3d90fd5b908092975081813d8311611173575b6110b4818361134d565b8101031261067557895191820182811067ffffffffffffffff821117611161578a526110df81611385565b82526110ec8b8201611385565b8b830152898101518a830152606081015160608301526080810151608083015260a081015160a083015260c081015160c083015261112c60e08201611385565b60e083015261010080820151908301526101208082015190830152611155610140809201611385565b90820152948a806101dc565b8585604189634e487b7160e01b835252fd5b503d6110aa565b80fd5b8390346100e857816003193601126100e8576001600160a01b0360209254169051908152f35b9050346100e457826003193601126100e457600154916001600160a01b0391338385160361121d57505073ffffffffffffffffffffffffffffffffffffffff19809216600155825491339083161783553391167f8be0079c531659141344cd1fd0a4f28419497f9722a3daafe3b4186f6b6457e08380a380f35b906020608492519162461bcd60e51b8352820152602960248201527f4f776e61626c6532537465703a2063616c6c6572206973206e6f74207468652060448201527f6e6577206f776e657200000000000000000000000000000000000000000000006064820152fd5b833461117a578060031936011261117a5761129f6112f5565b806001600160a01b0373ffffffffffffffffffffffffffffffffffffffff19806001541660015582549081168355167f8be0079c531659141344cd1fd0a4f28419497f9722a3daafe3b4186f6b6457e08280a380f35b6001600160a01b0360005416330361130957565b606460405162461bcd60e51b815260206004820152602060248201527f4f776e61626c653a2063616c6c6572206973206e6f7420746865206f776e65726044820152fd5b90601f8019910116810190811067ffffffffffffffff82111761136f57604052565b634e487b7160e01b600052604160045260246000fd5b519061ffff8216820361139457565b600080fd5b90600861ffff809316019182116113ac57565b634e487b7160e01b600052601160045260246000fd5b90600661ffff809316019182116113ac57565b90600461ffff809316019182116113ac57565b90600261ffff809316019182116113ac57565b9061ffff8092169182116113ac57565b90600561ffff809316019182116113ac57565b90600a61ffff809316019182116113ac57565b90600f61ffff809316019182116113ac57565b90601461ffff809316019182116113ac57565b90601261ffff809316019182116113ac57565b90601061ffff809316019182116113ac57565b90600e61ffff809316019182116113ac57565b90600c61ffff809316019182116113ac57565b90600361ffff809316019182116113ac57565b90600961ffff809316019182116113ac57565b90600761ffff809316019182116113ac57565b90600161ffff809316019182116113ac57565b90603261ffff809316019182116113ac57565b90601961ffff809316019182116113ac5756fea264697066735822122047fc1ba015efd8bfcedccc0688bf5b3506ff614f505fb85c71dee033db84161964736f6c63430008110033",
  "immutableReferences": {},
  "source": "// SPDX-License-Identifier: MIT\npragma solidity ^0.8.17;\n\nimport \"./libraries/ActivityLibrary.sol\";\n\nimport \"./interfaces/IActivity.sol\";\nimport \"./interfaces/IZapsterScore.sol\";\n\nimport \"@openzeppelin/contracts/access/Ownable2Step.sol\";\n\ncontract ZapsterScore is Ownable2Step, IZapsterScore {\n    IActivity private _activity;\n\n    constructor() Ownable2Step() {}\n\n    function getScore(address user) public view override returns (uint16) {\n        ActivityLibrary.Model memory activity = _activity.getActivity(user);\n        uint16 result;\n\n        // repaymentTimes - 15 marks\n        if (_activity.activeLoansCount(user) > 2) {\n            result += 15;\n        } else if (_activity.activeLoansCount(user) == 2) {\n            result += 10;\n        } else if (_activity.activeLoansCount(user) == 1) {\n            result += 5;\n        } else if (activity.lentTimes > 30) {\n            result += 0;\n        } else if (activity.lentTimes > 21) {\n            result += 2;\n        } else if (activity.lentTimes > 13) {\n            result += 4;\n        } else if (activity.lentTimes > 7) {\n            result += 6;\n        } else if (activity.lentTimes > 3) {\n            result += 8;\n        } else {\n            result += 10;\n        }\n\n        // repaymentVolume - 20 marks\n        if (_activity.activeLoansCount(user) > 2) {\n            result += 20;\n        } else if (_activity.activeLoansCount(user) == 2) {\n            result += 15;\n        } else if (_activity.activeLoansCount(user) == 1) {\n            result += 10;\n        } else if (activity.lentVolume > 35000 * 1e18) {\n            result += 0;\n        } else if (activity.lentVolume > 25000 * 1e18) {\n            result += 3;\n        } else if (activity.lentVolume > 16000 * 1e18) {\n            result += 6;\n        } else if (activity.lentVolume > 12000 * 1e18) {\n            result += 8;\n        } else if (activity.lentVolume > 9000 * 1e18) {\n            result += 10;\n        } else if (activity.lentVolume > 6000 * 1e18) {\n            result += 12;\n        } else if (activity.lentVolume > 3500 * 1e18) {\n            result += 14;\n        } else if (activity.lentVolume > 2000 * 1e18) {\n            result += 16;\n        } else if (activity.lentVolume > 500 * 1e18) {\n            result += 18;\n        } else {\n            result += 20;\n        }\n\n        // borrowedTimes - 10 marks\n        if (_activity.activeLoansCount(user) > 2) {\n            result += 10;\n        } else if (_activity.activeLoansCount(user) == 2) {\n            result += 6;\n        } else if (_activity.activeLoansCount(user) == 1) {\n            result += 3;\n        } else if (activity.borrowedTimes > 26) {\n            result += 0;\n        } else if (activity.borrowedTimes > 18) {\n            result += 2;\n        } else if (activity.borrowedTimes > 10) {\n            result += 4;\n        } else if (activity.borrowedTimes > 5) {\n            result += 6;\n        } else if (activity.borrowedTimes > 2) {\n            result += 8;\n        } else {\n            result += 10;\n        }\n\n        // borrowedVolume - 10 marks\n        if (_activity.activeLoansCount(user) > 2) {\n            result += 10;\n        } else if (_activity.activeLoansCount(user) == 2) {\n            result += 8;\n        } else if (_activity.activeLoansCount(user) == 1) {\n            result += 6;\n        } else if (activity.borrowedVolume > 35000 * 1e18) {\n            result += 0;\n        } else if (activity.borrowedVolume > 25000 * 1e18) {\n            result += 1;\n        } else if (activity.borrowedVolume > 16000 * 1e18) {\n            result += 2;\n        } else if (activity.borrowedVolume > 12000 * 1e18) {\n            result += 3;\n        } else if (activity.borrowedVolume > 9000 * 1e18) {\n            result += 4;\n        } else if (activity.borrowedVolume > 6000 * 1e18) {\n            result += 6;\n        } else if (activity.borrowedVolume > 3500 * 1e18) {\n            result += 7;\n        } else if (activity.borrowedVolume > 2000 * 1e18) {\n            result += 8;\n        } else if (activity.borrowedVolume > 500 * 1e18) {\n            result += 9;\n        } else {\n            result += 10;\n        }\n\n        // collateralVolume - 15 marks\n        if (_activity.activeLoansCount(user) > 2) {\n            result += 15;\n        } else if (_activity.activeLoansCount(user) == 2) {\n            result += 10;\n        } else if (_activity.activeLoansCount(user) == 1) {\n            result += 5;\n        } else if (activity.collateralVolume > 35000 * 1e18) {\n            result += 0;\n        } else if (activity.collateralVolume > 25000 * 1e18) {\n            result += 1;\n        } else if (activity.collateralVolume > 16000 * 1e18) {\n            result += 2;\n        } else if (activity.collateralVolume > 12000 * 1e18) {\n            result += 3;\n        } else if (activity.collateralVolume > 9000 * 1e18) {\n            result += 5;\n        } else if (activity.collateralVolume > 6000 * 1e18) {\n            result += 7;\n        } else if (activity.collateralVolume > 3500 * 1e18) {\n            result += 9;\n        } else if (activity.collateralVolume > 2000 * 1e18) {\n            result += 11;\n        } else if (activity.collateralVolume > 500 * 1e18) {\n            result += 13;\n        } else {\n            result += 15;\n        }\n\n        // interestPaidVolume - 20 marks\n        if (_activity.activeLoansCount(user) > 2) {\n            result += 20;\n        } else if (_activity.activeLoansCount(user) == 2) {\n            result += 15;\n        } else if (_activity.activeLoansCount(user) == 1) {\n            result += 10;\n        } else if (activity.interestPaidVolume > 150 * 1e18) {\n            result += 0;\n        } else if (activity.interestPaidVolume > 120 * 1e18) {\n            result += 2;\n        } else if (activity.interestPaidVolume > 100 * 1e18) {\n            result += 4;\n        } else if (activity.interestPaidVolume > 80 * 1e18) {\n            result += 6;\n        } else if (activity.interestPaidVolume > 60 * 1e18) {\n            result += 8;\n        } else if (activity.interestPaidVolume > 45 * 1e18) {\n            result += 10;\n        } else if (activity.interestPaidVolume > 25 * 1e18) {\n            result += 12;\n        } else if (activity.interestPaidVolume > 15 * 1e18) {\n            result += 14;\n        } else if (activity.interestPaidVolume > 10 * 1e18) {\n            result += 16;\n        } else if (activity.interestPaidVolume > 5 * 1e18) {\n            result += 18;\n        } else {\n            result += 20;\n        }\n\n        // // stars - 10 marks\n        // if (activity.stars > 5) {\n        //     result += 0;\n        // } else if (activity.stars > 3) {\n        //     result += 2;\n        // } else if (activity.stars > 2) {\n        //     result += 4;\n        // } else if (activity.stars > 1) {\n        //     result += 6;\n        // } else if (activity.stars > 0) {\n        //     result += 8;\n        // } else {\n        //     result += 10;\n        // }\n\n        // EXTRA -- MARKS\n\n        // defaultedTimes - 50 marks\n        if (activity.defaultedTimes == 0) {\n            result += 0;\n        } else if (activity.defaultedTimes == 1) {\n            result += 15;\n        } else if (activity.defaultedTimes == 2) {\n            result += 25;\n        } else {\n            result += 50;\n        }\n\n        // defaultedVolume - 50 marks\n        if (activity.defaultedVolume == 0) {\n            result += 0;\n        } else if (activity.defaultedVolume <= 20 * 1e18) {\n            result += 15;\n        } else if (activity.defaultedVolume <= 50 * 1e18) {\n            result += 25;\n        } else {\n            result += 50;\n        }\n\n        // lastActive - 5 ~ 10 marks\n        uint160 currentTime = uint160(block.timestamp);\n\n        if (activity.lastActive == 0) {\n            result += 5;\n        } else if ((activity.lastActive + 15 days) > currentTime) {\n            result += 0;\n        } else if ((activity.lastActive + 25 days) > currentTime) {\n            result += 4;\n        } else if ((activity.lastActive + 45 days) > currentTime) {\n            result += 7;\n        } else {\n            result += 10;\n        }\n\n        return result;\n    }\n\n    function setActivity(address activity_) public onlyOwner {\n        _activity = IActivity(activity_);\n    }\n}\n",
  "sourcePath": "/home/runner/smart-contracts/contracts/ZapsterScore.sol",
  "compiler": {
    "name": "solc",
    "version": "0.8.17+commit.8df45f5f.Emscripten.clang"
  },
  "schemaVersion": "3.4.13",
  "updatedAt": "2024-07-31T05:01:52.422Z",
  "networkType": "ethereum",
  "devdoc": {
    "kind": "dev",
    "methods": {
      "acceptOwnership()": {
        "details": "The new owner accepts the ownership transfer."
      },
      "owner()": {
        "details": "Returns the address of the current owner."
      },
      "pendingOwner()": {
        "details": "Returns the address of the pending owner."
      },
      "renounceOwnership()": {
        "details": "Leaves the contract without owner. It will not be possible to call `onlyOwner` functions anymore. Can only be called by the current owner. NOTE: Renouncing ownership will leave the contract without an owner, thereby removing any functionality that is only available to the owner."
      },
      "transferOwnership(address)": {
        "details": "Starts the ownership transfer of the contract to a new account. Replaces the pending transfer if there is one. Can only be called by the current owner."
      }
    },
    "version": 1
  },
  "userdoc": {
    "kind": "user",
    "methods": {},
    "version": 1
  }
}